{
  "_format": "hh-sol-artifact-1",
  "contractName": "AelinPool",
  "sourceName": "contracts/AelinPool.sol",
  "abi": [
    {
      "inputs": [],
      "stateMutability": "nonpayable",
      "type": "constructor"
    },
    {
      "anonymous": false,
      "inputs": [
        {
          "indexed": true,
          "internalType": "address",
          "name": "purchaser",
          "type": "address"
        },
        {
          "indexed": true,
          "internalType": "address",
          "name": "poolAddress",
          "type": "address"
        },
        {
          "indexed": true,
          "internalType": "address",
          "name": "dealAddress",
          "type": "address"
        },
        {
          "indexed": false,
          "internalType": "uint256",
          "name": "poolTokenAmount",
          "type": "uint256"
        },
        {
          "indexed": false,
          "internalType": "uint256",
          "name": "underlyingToHolderAmt",
          "type": "uint256"
        }
      ],
      "name": "AcceptDeal",
      "type": "event"
    },
    {
      "anonymous": false,
      "inputs": [
        {
          "indexed": true,
          "internalType": "address",
          "name": "owner",
          "type": "address"
        },
        {
          "indexed": true,
          "internalType": "address",
          "name": "spender",
          "type": "address"
        },
        {
          "indexed": false,
          "internalType": "uint256",
          "name": "amount",
          "type": "uint256"
        }
      ],
      "name": "Approval",
      "type": "event"
    },
    {
      "anonymous": false,
      "inputs": [
        {
          "indexed": false,
          "internalType": "string",
          "name": "name",
          "type": "string"
        },
        {
          "indexed": false,
          "internalType": "string",
          "name": "symbol",
          "type": "string"
        },
        {
          "indexed": true,
          "internalType": "address",
          "name": "sponsor",
          "type": "address"
        },
        {
          "indexed": true,
          "internalType": "address",
          "name": "poolAddress",
          "type": "address"
        },
        {
          "indexed": true,
          "internalType": "address",
          "name": "dealContract",
          "type": "address"
        }
      ],
      "name": "CreateDeal",
      "type": "event"
    },
    {
      "anonymous": false,
      "inputs": [
        {
          "indexed": true,
          "internalType": "address",
          "name": "dealContract",
          "type": "address"
        },
        {
          "indexed": true,
          "internalType": "address",
          "name": "underlyingDealToken",
          "type": "address"
        },
        {
          "indexed": false,
          "internalType": "uint256",
          "name": "dealPurchaseTokenTotal",
          "type": "uint256"
        },
        {
          "indexed": false,
          "internalType": "uint256",
          "name": "underlyingDealTokenTotal",
          "type": "uint256"
        },
        {
          "indexed": false,
          "internalType": "uint256",
          "name": "vestingPeriod",
          "type": "uint256"
        },
        {
          "indexed": false,
          "internalType": "uint256",
          "name": "vestingCliff",
          "type": "uint256"
        },
        {
          "indexed": false,
          "internalType": "uint256",
          "name": "proRataRedemptionPeriod",
          "type": "uint256"
        },
        {
          "indexed": false,
          "internalType": "uint256",
          "name": "openRedemptionPeriod",
          "type": "uint256"
        },
        {
          "indexed": true,
          "internalType": "address",
          "name": "holder",
          "type": "address"
        }
      ],
      "name": "DealDetails",
      "type": "event"
    },
    {
      "anonymous": false,
      "inputs": [
        {
          "indexed": true,
          "internalType": "address",
          "name": "recipient",
          "type": "address"
        },
        {
          "indexed": true,
          "internalType": "address",
          "name": "purchaser",
          "type": "address"
        },
        {
          "indexed": true,
          "internalType": "address",
          "name": "poolAddress",
          "type": "address"
        },
        {
          "indexed": false,
          "internalType": "uint256",
          "name": "purchaseTokenAmount",
          "type": "uint256"
        },
        {
          "indexed": false,
          "internalType": "uint256",
          "name": "poolTokenAmount",
          "type": "uint256"
        }
      ],
      "name": "PurchasePoolToken",
      "type": "event"
    },
    {
      "anonymous": false,
      "inputs": [
        {
          "indexed": true,
          "internalType": "address",
          "name": "sponsor",
          "type": "address"
        }
      ],
      "name": "SetSponsor",
      "type": "event"
    },
    {
      "anonymous": false,
      "inputs": [
        {
          "indexed": true,
          "internalType": "address",
          "name": "from",
          "type": "address"
        },
        {
          "indexed": true,
          "internalType": "address",
          "name": "to",
          "type": "address"
        },
        {
          "indexed": false,
          "internalType": "uint256",
          "name": "amount",
          "type": "uint256"
        }
      ],
      "name": "Transfer",
      "type": "event"
    },
    {
      "anonymous": false,
      "inputs": [
        {
          "indexed": true,
          "internalType": "address",
          "name": "purchaser",
          "type": "address"
        },
        {
          "indexed": true,
          "internalType": "address",
          "name": "poolAddress",
          "type": "address"
        },
        {
          "indexed": false,
          "internalType": "uint256",
          "name": "purchaseTokenAmount",
          "type": "uint256"
        },
        {
          "indexed": false,
          "internalType": "uint256",
          "name": "poolTokenAmount",
          "type": "uint256"
        }
      ],
      "name": "WithdrawFromPool",
      "type": "event"
    },
    {
      "inputs": [],
      "name": "AELIN_DEAL_STORAGE_PROXY",
      "outputs": [
        {
          "internalType": "address",
          "name": "",
          "type": "address"
        }
      ],
      "stateMutability": "view",
      "type": "function"
    },
    {
      "inputs": [],
      "name": "CALLED_INITIALIZE",
      "outputs": [
        {
          "internalType": "bool",
          "name": "",
          "type": "bool"
        }
      ],
      "stateMutability": "view",
      "type": "function"
    },
    {
      "inputs": [
        {
          "internalType": "address",
          "name": "",
          "type": "address"
        }
      ],
      "name": "DEAL_AMT_ALLOCATED",
      "outputs": [
        {
          "internalType": "uint256",
          "name": "",
          "type": "uint256"
        }
      ],
      "stateMutability": "view",
      "type": "function"
    },
    {
      "inputs": [],
      "name": "DEAL_CREATED",
      "outputs": [
        {
          "internalType": "bool",
          "name": "",
          "type": "bool"
        }
      ],
      "stateMutability": "view",
      "type": "function"
    },
    {
      "inputs": [],
      "name": "FUTURE_SPONSOR",
      "outputs": [
        {
          "internalType": "address",
          "name": "",
          "type": "address"
        }
      ],
      "stateMutability": "view",
      "type": "function"
    },
    {
      "inputs": [],
      "name": "HOLDER",
      "outputs": [
        {
          "internalType": "address",
          "name": "",
          "type": "address"
        }
      ],
      "stateMutability": "view",
      "type": "function"
    },
    {
      "inputs": [
        {
          "internalType": "address",
          "name": "",
          "type": "address"
        }
      ],
      "name": "OPEN_PERIOD_ELIGIBLE",
      "outputs": [
        {
          "internalType": "bool",
          "name": "",
          "type": "bool"
        }
      ],
      "stateMutability": "view",
      "type": "function"
    },
    {
      "inputs": [],
      "name": "POOL_EXPIRY",
      "outputs": [
        {
          "internalType": "uint256",
          "name": "",
          "type": "uint256"
        }
      ],
      "stateMutability": "view",
      "type": "function"
    },
    {
      "inputs": [],
      "name": "PRO_RATA_CONVERSION",
      "outputs": [
        {
          "internalType": "uint256",
          "name": "",
          "type": "uint256"
        }
      ],
      "stateMutability": "view",
      "type": "function"
    },
    {
      "inputs": [],
      "name": "PURCHASE_EXPIRY",
      "outputs": [
        {
          "internalType": "uint256",
          "name": "",
          "type": "uint256"
        }
      ],
      "stateMutability": "view",
      "type": "function"
    },
    {
      "inputs": [],
      "name": "PURCHASE_TOKEN",
      "outputs": [
        {
          "internalType": "address",
          "name": "",
          "type": "address"
        }
      ],
      "stateMutability": "view",
      "type": "function"
    },
    {
      "inputs": [],
      "name": "PURCHASE_TOKEN_CAP",
      "outputs": [
        {
          "internalType": "uint256",
          "name": "",
          "type": "uint256"
        }
      ],
      "stateMutability": "view",
      "type": "function"
    },
    {
      "inputs": [],
      "name": "PURCHASE_TOKEN_DECIMALS",
      "outputs": [
        {
          "internalType": "uint256",
          "name": "",
          "type": "uint256"
        }
      ],
      "stateMutability": "view",
      "type": "function"
    },
    {
      "inputs": [],
      "name": "SPONSOR",
      "outputs": [
        {
          "internalType": "address",
          "name": "",
          "type": "address"
        }
      ],
      "stateMutability": "view",
      "type": "function"
    },
    {
      "inputs": [],
      "name": "SPONSOR_FEE",
      "outputs": [
        {
          "internalType": "uint256",
          "name": "",
          "type": "uint256"
        }
      ],
      "stateMutability": "view",
      "type": "function"
    },
    {
      "inputs": [
        {
          "internalType": "uint256",
          "name": "pool_token_amount",
          "type": "uint256"
        }
      ],
      "name": "acceptDealTokens",
      "outputs": [],
      "stateMutability": "nonpayable",
      "type": "function"
    },
    {
      "inputs": [
        {
          "internalType": "address",
          "name": "recipient",
          "type": "address"
        },
        {
          "internalType": "uint256",
          "name": "pool_token_amount",
          "type": "uint256"
        }
      ],
      "name": "acceptDealTokensAndAllocate",
      "outputs": [],
      "stateMutability": "nonpayable",
      "type": "function"
    },
    {
      "inputs": [],
      "name": "acceptMaxDealTokens",
      "outputs": [],
      "stateMutability": "nonpayable",
      "type": "function"
    },
    {
      "inputs": [
        {
          "internalType": "address",
          "name": "recipient",
          "type": "address"
        }
      ],
      "name": "acceptMaxDealTokensAndAllocate",
      "outputs": [],
      "stateMutability": "nonpayable",
      "type": "function"
    },
    {
      "inputs": [],
      "name": "acceptSponsor",
      "outputs": [],
      "stateMutability": "nonpayable",
      "type": "function"
    },
    {
      "inputs": [
        {
          "internalType": "address",
          "name": "",
          "type": "address"
        },
        {
          "internalType": "address",
          "name": "",
          "type": "address"
        }
      ],
      "name": "allowance",
      "outputs": [
        {
          "internalType": "uint256",
          "name": "",
          "type": "uint256"
        }
      ],
      "stateMutability": "view",
      "type": "function"
    },
    {
      "inputs": [
        {
          "internalType": "address",
          "name": "spender",
          "type": "address"
        },
        {
          "internalType": "uint256",
          "name": "amount",
          "type": "uint256"
        }
      ],
      "name": "approve",
      "outputs": [
        {
          "internalType": "bool",
          "name": "",
          "type": "bool"
        }
      ],
      "stateMutability": "nonpayable",
      "type": "function"
    },
    {
      "inputs": [
        {
          "internalType": "address",
          "name": "",
          "type": "address"
        }
      ],
      "name": "balanceOf",
      "outputs": [
        {
          "internalType": "uint256",
          "name": "",
          "type": "uint256"
        }
      ],
      "stateMutability": "view",
      "type": "function"
    },
    {
      "inputs": [
        {
          "internalType": "address",
          "name": "_underlying_deal_token",
          "type": "address"
        },
        {
          "internalType": "uint256",
          "name": "_deal_purchase_token_total",
          "type": "uint256"
        },
        {
          "internalType": "uint256",
          "name": "_underlying_deal_token_total",
          "type": "uint256"
        },
        {
          "internalType": "uint256",
          "name": "_vesting_period",
          "type": "uint256"
        },
        {
          "internalType": "uint256",
          "name": "_vesting_cliff",
          "type": "uint256"
        },
        {
          "internalType": "uint256",
          "name": "_pro_rata_redemption_period",
          "type": "uint256"
        },
        {
          "internalType": "uint256",
          "name": "_open_redemption_period",
          "type": "uint256"
        },
        {
          "internalType": "address",
          "name": "_holder",
          "type": "address"
        }
      ],
      "name": "createDeal",
      "outputs": [
        {
          "internalType": "address",
          "name": "",
          "type": "address"
        }
      ],
      "stateMutability": "nonpayable",
      "type": "function"
    },
    {
      "inputs": [],
      "name": "decimals",
      "outputs": [
        {
          "internalType": "uint8",
          "name": "",
          "type": "uint8"
        }
      ],
      "stateMutability": "view",
      "type": "function"
    },
    {
      "inputs": [
        {
          "internalType": "string",
          "name": "_name",
          "type": "string"
        },
        {
          "internalType": "string",
          "name": "_symbol",
          "type": "string"
        },
        {
          "internalType": "uint256",
          "name": "_purchase_token_cap",
          "type": "uint256"
        },
        {
          "internalType": "address",
          "name": "_purchase_token",
          "type": "address"
        },
        {
          "internalType": "uint256",
          "name": "_duration",
          "type": "uint256"
        },
        {
          "internalType": "uint256",
          "name": "_sponsor_fee",
          "type": "uint256"
        },
        {
          "internalType": "address",
          "name": "_sponsor",
          "type": "address"
        },
        {
          "internalType": "uint256",
          "name": "_purchase_expiry",
          "type": "uint256"
        }
      ],
      "name": "initialize",
      "outputs": [],
      "stateMutability": "nonpayable",
      "type": "function"
    },
    {
      "inputs": [
        {
          "internalType": "address",
          "name": "purchaser",
          "type": "address"
        }
      ],
      "name": "maxDealAccept",
      "outputs": [
        {
          "internalType": "uint256",
          "name": "",
          "type": "uint256"
        }
      ],
      "stateMutability": "view",
      "type": "function"
    },
    {
      "inputs": [],
      "name": "maxPoolPurchase",
      "outputs": [
        {
          "internalType": "uint256",
          "name": "",
          "type": "uint256"
        }
      ],
      "stateMutability": "view",
      "type": "function"
    },
    {
      "inputs": [
        {
          "internalType": "address",
          "name": "purchaser",
          "type": "address"
        }
      ],
      "name": "maxProRataAvail",
      "outputs": [
        {
          "internalType": "uint256",
          "name": "",
          "type": "uint256"
        }
      ],
      "stateMutability": "view",
      "type": "function"
    },
    {
      "inputs": [],
      "name": "name",
      "outputs": [
        {
          "internalType": "string",
          "name": "",
          "type": "string"
        }
      ],
      "stateMutability": "view",
      "type": "function"
    },
    {
      "inputs": [
        {
          "internalType": "uint256",
          "name": "purchase_token_amount",
          "type": "uint256"
        }
      ],
      "name": "purchasePoolTokens",
      "outputs": [],
      "stateMutability": "nonpayable",
      "type": "function"
    },
    {
      "inputs": [
        {
          "internalType": "address",
          "name": "recipient",
          "type": "address"
        },
        {
          "internalType": "uint256",
          "name": "purchase_token_amount",
          "type": "uint256"
        }
      ],
      "name": "purchasePoolTokensAndAllocate",
      "outputs": [],
      "stateMutability": "nonpayable",
      "type": "function"
    },
    {
      "inputs": [
        {
          "internalType": "address",
          "name": "_sponsor",
          "type": "address"
        }
      ],
      "name": "setSponsor",
      "outputs": [],
      "stateMutability": "nonpayable",
      "type": "function"
    },
    {
      "inputs": [],
      "name": "symbol",
      "outputs": [
        {
          "internalType": "string",
          "name": "",
          "type": "string"
        }
      ],
      "stateMutability": "view",
      "type": "function"
    },
    {
      "inputs": [],
      "name": "totalSupply",
      "outputs": [
        {
          "internalType": "uint256",
          "name": "",
          "type": "uint256"
        }
      ],
      "stateMutability": "view",
      "type": "function"
    },
    {
      "inputs": [
        {
          "internalType": "address",
          "name": "dst",
          "type": "address"
        },
        {
          "internalType": "uint256",
          "name": "amount",
          "type": "uint256"
        }
      ],
      "name": "transfer",
      "outputs": [
        {
          "internalType": "bool",
          "name": "",
          "type": "bool"
        }
      ],
      "stateMutability": "nonpayable",
      "type": "function"
    },
    {
      "inputs": [
        {
          "internalType": "address",
          "name": "src",
          "type": "address"
        },
        {
          "internalType": "address",
          "name": "dst",
          "type": "address"
        },
        {
          "internalType": "uint256",
          "name": "amount",
          "type": "uint256"
        }
      ],
      "name": "transferFrom",
      "outputs": [
        {
          "internalType": "bool",
          "name": "",
          "type": "bool"
        }
      ],
      "stateMutability": "nonpayable",
      "type": "function"
    },
    {
      "inputs": [
        {
          "internalType": "uint256",
          "name": "pool_token_amount",
          "type": "uint256"
        }
      ],
      "name": "withdrawFromPool",
      "outputs": [],
      "stateMutability": "nonpayable",
      "type": "function"
    },
    {
      "inputs": [],
      "name": "withdrawMaxFromPool",
      "outputs": [],
      "stateMutability": "nonpayable",
      "type": "function"
    }
  ],
  "bytecode": "0x60806040526000600260006101000a81548160ff02191690831515021790555060006003556000600f60006101000a81548160ff0219169083151502179055506000600f60016101000a81548160ff02191690831515021790555034801561006657600080fd5b50614ec4806100766000396000f3fe608060405234801561001057600080fd5b506004361061023d5760003560e01c806370a082311161013b578063b5311b10116100b8578063dce3a5341161007c578063dce3a53414610686578063dd62ed3e146106a4578063e267f7d7146106d4578063e2ef784e146106f0578063e5baea55146107205761023d565b8063b5311b101461060a578063bc991ed614610626578063bdfba5a314610642578063c00be9fc14610672578063da6cedd71461067c5761023d565b80639d02f71a116100ff5780639d02f71a146105645780639e68fa3114610582578063a9059cbb146105a0578063b21cd9d9146105d0578063b2f4e915146105da5761023d565b806370a08231146104bc57806377410c5e146104ec578063818162881461050a578063852f85361461052857806395d89b41146105465761023d565b80632be529d8116101c957806354a950911161018d57806354a950911461042a5780635542165a1461044857806359753fb11461046657806367807b2214610482578063688d0c2c1461049e5761023d565b80632be529d81461039857806330fc43ed146103b6578063313ce567146103d2578063381d7109146103f05780633bee26fe1461040e5761023d565b806310923d881161021057806310923d88146102cc57806311ef9a2c146102fc57806318160ddd1461032c5780631d073a7a1461034a57806323b872dd146103685761023d565b806306fdde0314610242578063088b32f414610260578063095ea7b31461027e5780630f9465e4146102ae575b600080fd5b61024a61073c565b60405161025791906140ad565b60405180910390f35b6102686107ca565b6040516102759190614410565b60405180910390f35b61029860048036038101906102939190613752565b6107d0565b6040516102a59190614092565b60405180910390f35b6102b66108c2565b6040516102c39190614017565b60405180910390f35b6102e660048036038101906102e19190613692565b6108e8565b6040516102f39190614410565b60405180910390f35b61031660048036038101906103119190613692565b610bd0565b6040516103239190614410565b60405180910390f35b610334610e7d565b6040516103419190614410565b60405180910390f35b610352610e83565b60405161035f9190614017565b60405180910390f35b610382600480360381019061037d91906136ff565b610ea9565b60405161038f9190614092565b60405180910390f35b6103a06110a1565b6040516103ad9190614017565b60405180910390f35b6103d060048036038101906103cb9190613963565b6110c7565b005b6103da6110d3565b6040516103e791906144b5565b60405180910390f35b6103f86110d8565b6040516104059190614410565b60405180910390f35b61042860048036038101906104239190613963565b6110de565b005b6104326110ee565b60405161043f9190614410565b60405180910390f35b6104506110f4565b60405161045d9190614092565b60405180910390f35b610480600480360381019061047b9190613692565b611107565b005b61049c60048036038101906104979190613692565b6111db565b005b6104a66111ec565b6040516104b39190614092565b60405180910390f35b6104d660048036038101906104d19190613692565b6111ff565b6040516104e39190614410565b60405180910390f35b6104f4611217565b6040516105019190614410565b60405180910390f35b61051261121d565b60405161051f9190614017565b60405180910390f35b610530611243565b60405161053d9190614410565b60405180910390f35b61054e611249565b60405161055b91906140ad565b60405180910390f35b61056c6112d7565b6040516105799190614017565b60405180910390f35b61058a6112fd565b6040516105979190614410565b60405180910390f35b6105ba60048036038101906105b59190613752565b611303565b6040516105c79190614092565b60405180910390f35b6105d861131a565b005b6105f460048036038101906105ef9190613692565b611364565b6040516106019190614092565b60405180910390f35b610624600480360381019061061f9190613752565b611384565b005b610640600480360381019061063b9190613875565b611392565b005b61065c60048036038101906106579190613792565b6116d4565b6040516106699190614017565b60405180910390f35b61067a611c30565b005b610684611d8a565b005b61068e611d9b565b60405161069b9190614410565b60405180910390f35b6106be60048036038101906106b991906136bf565b611ec0565b6040516106cb9190614410565b60405180910390f35b6106ee60048036038101906106e99190613752565b611ee5565b005b61070a60048036038101906107059190613692565b611ef7565b6040516107179190614410565b60405180910390f35b61073a60048036038101906107359190613963565b611f0f565b005b60008054610749906148ed565b80601f0160208091040260200160405190810160405280929190818152602001828054610775906148ed565b80156107c25780601f10610797576101008083540402835291602001916107c2565b820191906000526020600020905b8154815290600101906020018083116107a557829003601f168201915b505050505081565b60075481565b600081600460003373ffffffffffffffffffffffffffffffffffffffff1673ffffffffffffffffffffffffffffffffffffffff16815260200190815260200160002060008573ffffffffffffffffffffffffffffffffffffffff1673ffffffffffffffffffffffffffffffffffffffff168152602001908152602001600020819055508273ffffffffffffffffffffffffffffffffffffffff163373ffffffffffffffffffffffffffffffffffffffff167f8c5be1e5ebec7d5bd14f71427d1e84f3dd0314c0f7b2291e5b200ac8c7c3b925846040516108b09190614410565b60405180910390a36001905092915050565b600660009054906101000a900473ffffffffffffffffffffffffffffffffffffffff1681565b600080600f60029054906101000a900473ffffffffffffffffffffffffffffffffffffffff16905060001515600f60019054906101000a900460ff1615151480610a3757508073ffffffffffffffffffffffffffffffffffffffff16639c6cb4a66040518163ffffffff1660e01b815260040160206040518083038186803b15801561097357600080fd5b505afa158015610987573d6000803e3d6000fd5b505050506040513d601f19601f820116820180604052508101906109ab9190613990565b42118015610a36575060008173ffffffffffffffffffffffffffffffffffffffff166396069fb56040518163ffffffff1660e01b815260040160206040518083038186803b1580156109fc57600080fd5b505afa158015610a10573d6000803e3d6000fd5b505050506040513d601f19601f82011682018060405250810190610a349190613990565b145b5b80610abe57508073ffffffffffffffffffffffffffffffffffffffff16639c6cb4a66040518163ffffffff1660e01b815260040160206040518083038186803b158015610a8357600080fd5b505afa158015610a97573d6000803e3d6000fd5b505050506040513d601f19601f82011682018060405250810190610abb9190613990565b42115b15610acd576000915050610bcb565b8073ffffffffffffffffffffffffffffffffffffffff1663d08c275c6040518163ffffffff1660e01b815260040160206040518083038186803b158015610b1357600080fd5b505afa158015610b27573d6000803e3d6000fd5b505050506040513d601f19601f82011682018060405250810190610b4b9190613990565b421015610b6357610b5b83610bd0565b915050610bcb565b601160008473ffffffffffffffffffffffffffffffffffffffff1673ffffffffffffffffffffffffffffffffffffffff16815260200190815260200160002060009054906101000a900460ff16610bbe576000915050610bcb565b610bc783611f1c565b9150505b919050565b600080600f60029054906101000a900473ffffffffffffffffffffffffffffffffffffffff1690506000600560008573ffffffffffffffffffffffffffffffffffffffff1673ffffffffffffffffffffffffffffffffffffffff168152602001908152602001600020541480610c59575060001515600f60019054906101000a900460ff161515145b80610ce157508073ffffffffffffffffffffffffffffffffffffffff1663d08c275c6040518163ffffffff1660e01b815260040160206040518083038186803b158015610ca557600080fd5b505afa158015610cb9573d6000803e3d6000fd5b505050506040513d601f19601f82011682018060405250810190610cdd9190613990565b4210155b15610cf0576000915050610e78565b6000601260008573ffffffffffffffffffffffffffffffffffffffff1673ffffffffffffffffffffffffffffffffffffffff16815260200190815260200160002054600a546107d0620186a0610d4691906147ca565b610d5091906147ca565b620186a08473ffffffffffffffffffffffffffffffffffffffff166370a08231886040518263ffffffff1660e01b8152600401610d8d9190614017565b60206040518083038186803b158015610da557600080fd5b505afa158015610db9573d6000803e3d6000fd5b505050506040513d601f19601f82011682018060405250810190610ddd9190613990565b610de79190614770565b610df191906145ce565b610dfb91906147ca565b905080670de0b6b3a764000082600560008873ffffffffffffffffffffffffffffffffffffffff1673ffffffffffffffffffffffffffffffffffffffff16815260200190815260200160002054610e529190614578565b600954610e5f9190614770565b610e6991906145ce565b610e7391906147ca565b925050505b919050565b60035481565b600b60009054906101000a900473ffffffffffffffffffffffffffffffffffffffff1681565b6000803390506000600460008773ffffffffffffffffffffffffffffffffffffffff1673ffffffffffffffffffffffffffffffffffffffff16815260200190815260200160002060008373ffffffffffffffffffffffffffffffffffffffff1673ffffffffffffffffffffffffffffffffffffffff1681526020019081526020016000205490508573ffffffffffffffffffffffffffffffffffffffff168273ffffffffffffffffffffffffffffffffffffffff1614158015610f8c57507fffffffffffffffffffffffffffffffffffffffffffffffffffffffffffffffff8114155b156110895760008482610f9f91906147ca565b905080600460008973ffffffffffffffffffffffffffffffffffffffff1673ffffffffffffffffffffffffffffffffffffffff16815260200190815260200160002060008573ffffffffffffffffffffffffffffffffffffffff1673ffffffffffffffffffffffffffffffffffffffff168152602001908152602001600020819055508273ffffffffffffffffffffffffffffffffffffffff168773ffffffffffffffffffffffffffffffffffffffff167f8c5be1e5ebec7d5bd14f71427d1e84f3dd0314c0f7b2291e5b200ac8c7c3b9258360405161107f9190614410565b60405180910390a3505b6110948686866121e4565b6001925050509392505050565b601060009054906101000a900473ffffffffffffffffffffffffffffffffffffffff1681565b6110d08161237d565b50565b601281565b600a5481565b6110eb3382600080612473565b50565b60085481565b600f60019054906101000a900460ff1681565b600b60009054906101000a900473ffffffffffffffffffffffffffffffffffffffff1673ffffffffffffffffffffffffffffffffffffffff163373ffffffffffffffffffffffffffffffffffffffff1614611197576040517f08c379a000000000000000000000000000000000000000000000000000000000815260040161118e90614290565b60405180910390fd5b80600c60006101000a81548173ffffffffffffffffffffffffffffffffffffffff021916908373ffffffffffffffffffffffffffffffffffffffff16021790555050565b6111e9816000600180612473565b50565b600f60009054906101000a900460ff1681565b60056020528060005260406000206000915090505481565b600d5481565b600f60029054906101000a900473ffffffffffffffffffffffffffffffffffffffff1681565b600e5481565b60018054611256906148ed565b80601f0160208091040260200160405190810160405280929190818152602001828054611282906148ed565b80156112cf5780601f106112a4576101008083540402835291602001916112cf565b820191906000526020600020905b8154815290600101906020018083116112b257829003601f168201915b505050505081565b600c60009054906101000a900473ffffffffffffffffffffffffffffffffffffffff1681565b60095481565b60006113103384846121e4565b6001905092915050565b611362600560003373ffffffffffffffffffffffffffffffffffffffff1673ffffffffffffffffffffffffffffffffffffffff1681526020019081526020016000205461237d565b565b60116020528060005260406000206000915054906101000a900460ff1681565b61138e8282612771565b5050565b60001515600f60009054906101000a900460ff161515146113e8576040517f08c379a00000000000000000000000000000000000000000000000000000000081526004016113df906141d0565b60405180910390fd5b87601390805190602001906113fe929190613516565b508660149080519060200190611415929190613516565b5061145e8860405160200161142a9190613ff5565b6040516020818303038152906040528860405160200161144a9190613fd3565b6040516020818303038152906040526129d8565b508560078190555084600660006101000a81548173ffffffffffffffffffffffffffffffffffffffff021916908373ffffffffffffffffffffffffffffffffffffffff1602179055508473ffffffffffffffffffffffffffffffffffffffff1663313ce5676040518163ffffffff1660e01b815260040160206040518083038186803b1580156114ed57600080fd5b505afa158015611501573d6000803e3d6000fd5b505050506040513d601f19601f8201168201806040525081019061152591906139bd565b60ff16600881905550836301e133801015611575576040517f08c379a000000000000000000000000000000000000000000000000000000000815260040161156c90614270565b60405180910390fd5b83426115819190614578565b600e819055508061070811156115cc576040517f08c379a00000000000000000000000000000000000000000000000000000000081526004016115c390614310565b60405180910390fd5b80426115d89190614578565b600d8190555062017ed0831115611624576040517f08c379a000000000000000000000000000000000000000000000000000000000815260040161161b90614230565b60405180910390fd5b82600a8190555081600b60006101000a81548173ffffffffffffffffffffffffffffffffffffffff021916908373ffffffffffffffffffffffffffffffffffffffff1602179055506001600f60006101000a81548160ff0219169083151502179055508173ffffffffffffffffffffffffffffffffffffffff167f664990684c2a471ecd811b0746b52f569a208f58b796c699208ed71379bf3c2760405160405180910390a25050505050505050565b6000600b60009054906101000a900473ffffffffffffffffffffffffffffffffffffffff1673ffffffffffffffffffffffffffffffffffffffff163373ffffffffffffffffffffffffffffffffffffffff1614611766576040517f08c379a000000000000000000000000000000000000000000000000000000000815260040161175d90614290565b60405180910390fd5b60001515600f60019054906101000a900460ff161515146117bc576040517f08c379a00000000000000000000000000000000000000000000000000000000081526004016117b3906141b0565b60405180910390fd5b836107081115611801576040517f08c379a00000000000000000000000000000000000000000000000000000000081526004016117f8906142f0565b60405180910390fd5b600061180f89600854612a82565b9050600354811115611856576040517f08c379a000000000000000000000000000000000000000000000000000000000815260040161184d906143f0565b60405180910390fd5b600354670de0b6b3a76400008261186d9190614770565b61187791906145ce565b600981905550670de0b6b3a764000060095414156118d757836000146118d2576040517f08c379a00000000000000000000000000000000000000000000000000000000081526004016118c9906142d0565b60405180910390fd5b61191d565b83610708111561191c576040517f08c379a0000000000000000000000000000000000000000000000000000000008152600401611913906142b0565b60405180910390fd5b5b42600e8190555082601060006101000a81548173ffffffffffffffffffffffffffffffffffffffff021916908373ffffffffffffffffffffffffffffffffffffffff1602179055506001600f60016101000a81548160ff02191690831515021790555060006119d573ade4d77cd687b0ecbd7a8af2c83a8b8029a04fd96040518060400160405280601981526020017f436f756c64206e6f7420637265617465206e6577206465616c00000000000000815250612ab0565b90508073ffffffffffffffffffffffffffffffffffffffff1663206efe20601360148e8d8d8d8d8d8d8c6040518b63ffffffff1660e01b8152600401611a249a99989796959493929190614106565b600060405180830381600087803b158015611a3e57600080fd5b505af1158015611a52573d6000803e3d6000fd5b5050505080600f60026101000a81548173ffffffffffffffffffffffffffffffffffffffff021916908373ffffffffffffffffffffffffffffffffffffffff1602179055508073ffffffffffffffffffffffffffffffffffffffff163073ffffffffffffffffffffffffffffffffffffffff16600b60009054906101000a900473ffffffffffffffffffffffffffffffffffffffff1673ffffffffffffffffffffffffffffffffffffffff167f53b17985dcbce8c567970982329774606251888834dbf73a6631f3da1eeba07e6013604051602001611b319190613f8f565b6040516020818303038152906040526014604051602001611b529190613fb1565b604051602081830303815290604052604051611b6f9291906140cf565b60405180910390a48373ffffffffffffffffffffffffffffffffffffffff168b73ffffffffffffffffffffffffffffffffffffffff168273ffffffffffffffffffffffffffffffffffffffff167f6edce1e026b76a2156993278b6d27c1581bdc4d6a2815f123ad519cec8be7e1a8d8d8d8d8d8d604051611bf596959493929190614454565b60405180910390a4600f60029054906101000a900473ffffffffffffffffffffffffffffffffffffffff169250505098975050505050505050565b600c60009054906101000a900473ffffffffffffffffffffffffffffffffffffffff1673ffffffffffffffffffffffffffffffffffffffff163373ffffffffffffffffffffffffffffffffffffffff1614611cc0576040517f08c379a0000000000000000000000000000000000000000000000000000000008152600401611cb7906143b0565b60405180910390fd5b600c60009054906101000a900473ffffffffffffffffffffffffffffffffffffffff16600b60006101000a81548173ffffffffffffffffffffffffffffffffffffffff021916908373ffffffffffffffffffffffffffffffffffffffff160217905550600c60009054906101000a900473ffffffffffffffffffffffffffffffffffffffff1673ffffffffffffffffffffffffffffffffffffffff167f664990684c2a471ecd811b0746b52f569a208f58b796c699208ed71379bf3c2760405160405180910390a2565b611d9933600060016000612473565b565b600060011515600f60019054906101000a900460ff1615151480611dc15750600d544210155b15611dcf5760009050611ebd565b60006007541415611e02577fffffffffffffffffffffffffffffffffffffffffffffffffffffffffffffffff9050611ebd565b600660009054906101000a900473ffffffffffffffffffffffffffffffffffffffff1673ffffffffffffffffffffffffffffffffffffffff166370a08231306040518263ffffffff1660e01b8152600401611e5d9190614017565b60206040518083038186803b158015611e7557600080fd5b505afa158015611e89573d6000803e3d6000fd5b505050506040513d601f19601f82011682018060405250810190611ead9190613990565b600754611eba91906147ca565b90505b90565b6004602052816000526040600020602052806000526040600020600091509150505481565b611ef3828260006001612473565b5050565b60126020528060005260406000206000915090505481565b611f193382612771565b50565b600080600f60029054906101000a900473ffffffffffffffffffffffffffffffffffffffff1690508073ffffffffffffffffffffffffffffffffffffffff166333039d3d6040518163ffffffff1660e01b815260040160206040518083038186803b158015611f8a57600080fd5b505afa158015611f9e573d6000803e3d6000fd5b505050506040513d601f19601f82011682018060405250810190611fc29190613990565b8173ffffffffffffffffffffffffffffffffffffffff166318160ddd6040518163ffffffff1660e01b815260040160206040518083038186803b15801561200857600080fd5b505afa15801561201c573d6000803e3d6000fd5b505050506040513d601f19601f820116820180604052508101906120409190613990565b600560008673ffffffffffffffffffffffffffffffffffffffff1673ffffffffffffffffffffffffffffffffffffffff1681526020019081526020016000205461208a9190614578565b111561219b578073ffffffffffffffffffffffffffffffffffffffff166318160ddd6040518163ffffffff1660e01b815260040160206040518083038186803b1580156120d657600080fd5b505afa1580156120ea573d6000803e3d6000fd5b505050506040513d601f19601f8201168201806040525081019061210e9190613990565b8173ffffffffffffffffffffffffffffffffffffffff166333039d3d6040518163ffffffff1660e01b815260040160206040518083038186803b15801561215457600080fd5b505afa158015612168573d6000803e3d6000fd5b505050506040513d601f19601f8201168201806040525081019061218c9190613990565b61219691906147ca565b6121dc565b600560008473ffffffffffffffffffffffffffffffffffffffff1673ffffffffffffffffffffffffffffffffffffffff168152602001908152602001600020545b915050919050565b80600560008573ffffffffffffffffffffffffffffffffffffffff1673ffffffffffffffffffffffffffffffffffffffff168152602001908152602001600020600082825461223391906147ca565b9250508190555080600560008473ffffffffffffffffffffffffffffffffffffffff1673ffffffffffffffffffffffffffffffffffffffff16815260200190815260200160002060008282546122899190614578565b925050819055506000600560008573ffffffffffffffffffffffffffffffffffffffff1673ffffffffffffffffffffffffffffffffffffffff168152602001908152602001600020541015612313576040517f08c379a000000000000000000000000000000000000000000000000000000000815260040161230a906141f0565b60405180910390fd5b8173ffffffffffffffffffffffffffffffffffffffff168373ffffffffffffffffffffffffffffffffffffffff167fddf252ad1be2c89b69c2b068fc378daa952ba7f163c4a11628f55a4df523b3ef836040516123709190614410565b60405180910390a3505050565b600e5442116123c1576040517f08c379a00000000000000000000000000000000000000000000000000000000081526004016123b890614350565b60405180910390fd5b6123cb3382612b44565b60006123d982600854612c1d565b9050612408600660009054906101000a900473ffffffffffffffffffffffffffffffffffffffff163383612c4b565b3073ffffffffffffffffffffffffffffffffffffffff163373ffffffffffffffffffffffffffffffffffffffff167f817b0c0d4788c2aad942468226077f2ecebee8ffc9a58c433b980b15d2679d70838560405161246792919061442b565b60405180910390a35050565b60011515600f60019054906101000a900460ff161515146124c9576040517f08c379a00000000000000000000000000000000000000000000000000000000081526004016124c090614370565b60405180910390fd5b6000600f60029054906101000a900473ffffffffffffffffffffffffffffffffffffffff1690508073ffffffffffffffffffffffffffffffffffffffff16636c84e6466040518163ffffffff1660e01b815260040160206040518083038186803b15801561253657600080fd5b505afa15801561254a573d6000803e3d6000fd5b505050506040513d601f19601f8201168201806040525081019061256e9190613990565b42101580156125f957508073ffffffffffffffffffffffffffffffffffffffff1663d08c275c6040518163ffffffff1660e01b815260040160206040518083038186803b1580156125be57600080fd5b505afa1580156125d2573d6000803e3d6000fd5b505050506040513d601f19601f820116820180604052508101906125f69190613990565b42105b1561260f5761260a85858585612d6a565b61276a565b60008173ffffffffffffffffffffffffffffffffffffffff166396069fb56040518163ffffffff1660e01b815260040160206040518083038186803b15801561265757600080fd5b505afa15801561266b573d6000803e3d6000fd5b505050506040513d601f19601f8201168201806040525081019061268f9190613990565b11801561271857508073ffffffffffffffffffffffffffffffffffffffff16639c6cb4a66040518163ffffffff1660e01b815260040160206040518083038186803b1580156126dd57600080fd5b505afa1580156126f1573d6000803e3d6000fd5b505050506040513d601f19601f820116820180604052508101906127159190613990565b42105b1561272e5761272985858585612e64565b612769565b6040517f08c379a0000000000000000000000000000000000000000000000000000000008152600401612760906143d0565b60405180910390fd5b5b5050505050565b60001515600f60019054906101000a900460ff1615151480156127955750600d5442105b6127d4576040517f08c379a00000000000000000000000000000000000000000000000000000000081526004016127cb90614390565b60405180910390fd5b6000600660009054906101000a900473ffffffffffffffffffffffffffffffffffffffff1673ffffffffffffffffffffffffffffffffffffffff166370a08231306040518263ffffffff1660e01b81526004016128319190614017565b60206040518083038186803b15801561284957600080fd5b505afa15801561285d573d6000803e3d6000fd5b505050506040513d601f19601f820116820180604052508101906128819190613990565b905060006007541480612895575060075481105b6128d4576040517f08c379a00000000000000000000000000000000000000000000000000000000081526004016128cb90614330565b60405180910390fd5b6000600754111561290c5760075481836128ee9190614578565b1115612907578060075461290291906147ca565b612909565b815b91505b600061291a83600854612a82565b905061294a600660009054906101000a900473ffffffffffffffffffffffffffffffffffffffff16333086612f6a565b612954848261308c565b3073ffffffffffffffffffffffffffffffffffffffff163373ffffffffffffffffffffffffffffffffffffffff168573ffffffffffffffffffffffffffffffffffffffff167f7e937eb0e1c6fed455215464c1bbd1a776f78226ccdc293a0e81f286504517e386856040516129ca92919061442b565b60405180910390a450505050565b6000801515600260009054906101000a900460ff16151514612a2f576040517f08c379a0000000000000000000000000000000000000000000000000000000008152600401612a26906141d0565b60405180910390fd5b8260009080519060200190612a45929190613516565b508160019080519060200190612a5c929190613516565b506001600260006101000a81548160ff0219169083151502179055506001905092915050565b6000816012612a9191906147ca565b600a612a9d9190614652565b83612aa89190614770565b905092915050565b600080612abc84613165565b90506037602082016000f09150600073ffffffffffffffffffffffffffffffffffffffff168273ffffffffffffffffffffffffffffffffffffffff1614158390612b3c576040517f08c379a0000000000000000000000000000000000000000000000000000000008152600401612b3391906140ad565b60405180910390fd5b505092915050565b8060036000828254612b5691906147ca565b9250508190555080600560008473ffffffffffffffffffffffffffffffffffffffff1673ffffffffffffffffffffffffffffffffffffffff1681526020019081526020016000206000828254612bac91906147ca565b92505081905550600073ffffffffffffffffffffffffffffffffffffffff168273ffffffffffffffffffffffffffffffffffffffff167fddf252ad1be2c89b69c2b068fc378daa952ba7f163c4a11628f55a4df523b3ef83604051612c119190614410565b60405180910390a35050565b6000816012612c2c91906147ca565b600a612c389190614652565b83612c4391906145ce565b905092915050565b6000808473ffffffffffffffffffffffffffffffffffffffff1663a9059cbb60e01b8585604051602401612c80929190614069565b604051602081830303815290604052907bffffffffffffffffffffffffffffffffffffffffffffffffffffffff19166020820180517bffffffffffffffffffffffffffffffffffffffffffffffffffffffff8381831617835250505050604051612cea9190613f78565b6000604051808303816000865af19150503d8060008114612d27576040519150601f19603f3d011682016040523d82523d6000602084013e612d2c565b606091505b5091509150818015612d5a5750600081511480612d59575080806020019051810190612d589190613848565b5b5b612d6357600080fd5b5050505050565b6000612d7533610bd0565b905082612dc05780841115612dbf576040517f08c379a0000000000000000000000000000000000000000000000000000000008152600401612db690614210565b60405180910390fd5b5b600083612dcd5784612dcf565b815b9050612ddc8682856131c0565b670de0b6b3a764000060095414158015612dfe57506000612dfc33610bd0565b145b15612e5c576001601160003373ffffffffffffffffffffffffffffffffffffffff1673ffffffffffffffffffffffffffffffffffffffff16815260200190815260200160002060006101000a81548160ff0219169083151502179055505b505050505050565b601160003373ffffffffffffffffffffffffffffffffffffffff1673ffffffffffffffffffffffffffffffffffffffff16815260200190815260200160002060009054906101000a900460ff16612ef0576040517f08c379a0000000000000000000000000000000000000000000000000000000008152600401612ee790614250565b60405180910390fd5b6000612efb33611f1c565b9050600083612f0a5784612f0c565b815b905083612f575781811115612f56576040517f08c379a0000000000000000000000000000000000000000000000000000000008152600401612f4d90614210565b60405180910390fd5b5b612f628682856131c0565b505050505050565b6000808573ffffffffffffffffffffffffffffffffffffffff166323b872dd60e01b868686604051602401612fa193929190614032565b604051602081830303815290604052907bffffffffffffffffffffffffffffffffffffffffffffffffffffffff19166020820180517bffffffffffffffffffffffffffffffffffffffffffffffffffffffff838183161783525050505060405161300b9190613f78565b6000604051808303816000865af19150503d8060008114613048576040519150601f19603f3d011682016040523d82523d6000602084013e61304d565b606091505b509150915081801561307b575060008151148061307a5750808060200190518101906130799190613848565b5b5b61308457600080fd5b505050505050565b806003600082825461309e9190614578565b9250508190555080600560008473ffffffffffffffffffffffffffffffffffffffff1673ffffffffffffffffffffffffffffffffffffffff16815260200190815260200160002060008282546130f49190614578565b925050819055508173ffffffffffffffffffffffffffffffffffffffff16600073ffffffffffffffffffffffffffffffffffffffff167fddf252ad1be2c89b69c2b068fc378daa952ba7f163c4a11628f55a4df523b3ef836040516131599190614410565b60405180910390a35050565b6060693d602d80600a3d3981f360b01b69363d3d373d3d3d363d7360b01b836e5af43d82803e903d91602b57fd5bf360881b6040516020016131aa9493929190613f2a565b6040516020818303038152906040529050919050565b6000600f60029054906101000a900473ffffffffffffffffffffffffffffffffffffffff16905081156132445782601260008673ffffffffffffffffffffffffffffffffffffffff1673ffffffffffffffffffffffffffffffffffffffff168152602001908152602001600020600082825461323c9190614578565b925050819055505b61324e3384612b44565b6000620186a06107d0856132629190614770565b61326c91906145ce565b90506000620186a0600a54866132829190614770565b61328c91906145ce565b90508273ffffffffffffffffffffffffffffffffffffffff166340c10f19600b60009054906101000a900473ffffffffffffffffffffffffffffffffffffffff16836040518363ffffffff1660e01b81526004016132eb929190614069565b600060405180830381600087803b15801561330557600080fd5b505af1158015613319573d6000803e3d6000fd5b505050508273ffffffffffffffffffffffffffffffffffffffff166340c10f196000846040518363ffffffff1660e01b8152600401613359929190614069565b600060405180830381600087803b15801561337357600080fd5b505af1158015613387573d6000803e3d6000fd5b505050508273ffffffffffffffffffffffffffffffffffffffff166340c10f198784846133b49190614578565b886133bf91906147ca565b6040518363ffffffff1660e01b81526004016133dc929190614069565b600060405180830381600087803b1580156133f657600080fd5b505af115801561340a573d6000803e3d6000fd5b50505050600061341c86600854612c1d565b905061346d600660009054906101000a900473ffffffffffffffffffffffffffffffffffffffff16601060009054906101000a900473ffffffffffffffffffffffffffffffffffffffff1683612c4b565b600f60029054906101000a900473ffffffffffffffffffffffffffffffffffffffff1673ffffffffffffffffffffffffffffffffffffffff163073ffffffffffffffffffffffffffffffffffffffff168873ffffffffffffffffffffffffffffffffffffffff167f6f7b25f3e8af7990515569049c014834b70902e031d53ab5b5387decc49c0b8c898560405161350592919061442b565b60405180910390a450505050505050565b828054613522906148ed565b90600052602060002090601f016020900481019282613544576000855561358b565b82601f1061355d57805160ff191683800117855561358b565b8280016001018555821561358b579182015b8281111561358a57825182559160200191906001019061356f565b5b509050613598919061359c565b5090565b5b808211156135b557600081600090555060010161359d565b5090565b60006135cc6135c7846144f5565b6144d0565b9050828152602081018484840111156135e8576135e7614a49565b5b6135f38482856148ab565b509392505050565b60008135905061360a81614e32565b92915050565b60008151905061361f81614e49565b92915050565b600082601f83011261363a57613639614a44565b5b813561364a8482602086016135b9565b91505092915050565b60008135905061366281614e60565b92915050565b60008151905061367781614e60565b92915050565b60008151905061368c81614e77565b92915050565b6000602082840312156136a8576136a7614a53565b5b60006136b6848285016135fb565b91505092915050565b600080604083850312156136d6576136d5614a53565b5b60006136e4858286016135fb565b92505060206136f5858286016135fb565b9150509250929050565b60008060006060848603121561371857613717614a53565b5b6000613726868287016135fb565b9350506020613737868287016135fb565b925050604061374886828701613653565b9150509250925092565b6000806040838503121561376957613768614a53565b5b6000613777858286016135fb565b925050602061378885828601613653565b9150509250929050565b600080600080600080600080610100898b0312156137b3576137b2614a53565b5b60006137c18b828c016135fb565b98505060206137d28b828c01613653565b97505060406137e38b828c01613653565b96505060606137f48b828c01613653565b95505060806138058b828c01613653565b94505060a06138168b828c01613653565b93505060c06138278b828c01613653565b92505060e06138388b828c016135fb565b9150509295985092959890939650565b60006020828403121561385e5761385d614a53565b5b600061386c84828501613610565b91505092915050565b600080600080600080600080610100898b03121561389657613895614a53565b5b600089013567ffffffffffffffff8111156138b4576138b3614a4e565b5b6138c08b828c01613625565b985050602089013567ffffffffffffffff8111156138e1576138e0614a4e565b5b6138ed8b828c01613625565b97505060406138fe8b828c01613653565b965050606061390f8b828c016135fb565b95505060806139208b828c01613653565b94505060a06139318b828c01613653565b93505060c06139428b828c016135fb565b92505060e06139538b828c01613653565b9150509295985092959890939650565b60006020828403121561397957613978614a53565b5b600061398784828501613653565b91505092915050565b6000602082840312156139a6576139a5614a53565b5b60006139b484828501613668565b91505092915050565b6000602082840312156139d3576139d2614a53565b5b60006139e18482850161367d565b91505092915050565b6139f3816147fe565b82525050565b613a0a613a05826147fe565b614950565b82525050565b613a1981614810565b82525050565b613a30613a2b8261481c565b614962565b82525050565b613a47613a4282614848565b61496c565b82525050565b6000613a588261453b565b613a628185614551565b9350613a728185602086016148ba565b80840191505092915050565b6000613a8982614546565b613a93818561455c565b9350613aa38185602086016148ba565b613aac81614a58565b840191505092915050565b6000613ac282614546565b613acc818561456d565b9350613adc8185602086016148ba565b80840191505092915050565b60008154613af5816148ed565b613aff818661455c565b94506001821660008114613b1a5760018114613b2c57613b5f565b60ff1983168652602086019350613b5f565b613b3585614526565b60005b83811015613b5757815481890152600182019150602081019050613b38565b808801955050505b50505092915050565b60008154613b75816148ed565b613b7f818661456d565b94506001821660008114613b9a5760018114613bab57613bde565b60ff19831686528186019350613bde565b613bb485614526565b60005b83811015613bd657815481890152600182019150602081019050613bb7565b838801955050505b50505092915050565b6000613bf460158361455c565b9150613bff82614a83565b602082019050919050565b6000613c1760188361455c565b9150613c2282614aac565b602082019050919050565b6000613c3a60078361456d565b9150613c4582614ad5565b600782019050919050565b6000613c5d60048361456d565b9150613c6882614afe565b600482019050919050565b6000613c8060188361455c565b9150613c8b82614b27565b602082019050919050565b6000613ca360198361455c565b9150613cae82614b50565b602082019050919050565b6000613cc660178361455c565b9150613cd182614b79565b602082019050919050565b6000613ce9601f8361455c565b9150613cf482614ba2565b602082019050919050565b6000613d0c60138361455c565b9150613d1782614bcb565b602082019050919050565b6000613d2f60178361455c565b9150613d3a82614bf4565b602082019050919050565b6000613d52601a8361455c565b9150613d5d82614c1d565b602082019050919050565b6000613d75601a8361455c565b9150613d8082614c46565b602082019050919050565b6000613d9860048361456d565b9150613da382614c6f565b600482019050919050565b6000613dbb601d8361455c565b9150613dc682614c98565b602082019050919050565b6000613dde601e8361455c565b9150613de982614cc1565b602082019050919050565b6000613e0160188361455c565b9150613e0c82614cea565b602082019050919050565b6000613e2460178361455c565b9150613e2f82614d13565b602082019050919050565b6000613e4760148361455c565b9150613e5282614d3c565b602082019050919050565b6000613e6a60078361456d565b9150613e7582614d65565b600782019050919050565b6000613e8d60168361455c565b9150613e9882614d8e565b602082019050919050565b6000613eb0601e8361455c565b9150613ebb82614db7565b602082019050919050565b6000613ed360188361455c565b9150613ede82614de0565b602082019050919050565b6000613ef6601a8361455c565b9150613f0182614e09565b602082019050919050565b613f1581614894565b82525050565b613f248161489e565b82525050565b6000613f368287613a1f565b600a82019150613f468286613a1f565b600a82019150613f5682856139f9565b601482019150613f668284613a36565b600f8201915081905095945050505050565b6000613f848284613a4d565b915081905092915050565b6000613f9a82613c2d565b9150613fa68284613b68565b915081905092915050565b6000613fbc82613c50565b9150613fc88284613b68565b915081905092915050565b6000613fde82613d8b565b9150613fea8284613ab7565b915081905092915050565b600061400082613e5d565b915061400c8284613ab7565b915081905092915050565b600060208201905061402c60008301846139ea565b92915050565b600060608201905061404760008301866139ea565b61405460208301856139ea565b6140616040830184613f0c565b949350505050565b600060408201905061407e60008301856139ea565b61408b6020830184613f0c565b9392505050565b60006020820190506140a76000830184613a10565b92915050565b600060208201905081810360008301526140c78184613a7e565b905092915050565b600060408201905081810360008301526140e98185613a7e565b905081810360208301526140fd8184613a7e565b90509392505050565b6000610140820190508181036000830152614121818d613ae8565b90508181036020830152614135818c613ae8565b9050614144604083018b6139ea565b614151606083018a613f0c565b61415e6080830189613f0c565b61416b60a0830188613f0c565b61417860c0830187613f0c565b61418560e0830186613f0c565b6141936101008301856139ea565b6141a1610120830184613f0c565b9b9a5050505050505050505050565b600060208201905081810360008301526141c981613be7565b9050919050565b600060208201905081810360008301526141e981613c0a565b9050919050565b6000602082019050818103600083015261420981613c73565b9050919050565b6000602082019050818103600083015261422981613c96565b9050919050565b6000602082019050818103600083015261424981613cb9565b9050919050565b6000602082019050818103600083015261426981613cdc565b9050919050565b6000602082019050818103600083015261428981613cff565b9050919050565b600060208201905081810360008301526142a981613d22565b9050919050565b600060208201905081810360008301526142c981613d45565b9050919050565b600060208201905081810360008301526142e981613d68565b9050919050565b6000602082019050818103600083015261430981613dae565b9050919050565b6000602082019050818103600083015261432981613dd1565b9050919050565b6000602082019050818103600083015261434981613df4565b9050919050565b6000602082019050818103600083015261436981613e17565b9050919050565b6000602082019050818103600083015261438981613e3a565b9050919050565b600060208201905081810360008301526143a981613e80565b9050919050565b600060208201905081810360008301526143c981613ea3565b9050919050565b600060208201905081810360008301526143e981613ec6565b9050919050565b6000602082019050818103600083015261440981613ee9565b9050919050565b60006020820190506144256000830184613f0c565b92915050565b60006040820190506144406000830185613f0c565b61444d6020830184613f0c565b9392505050565b600060c0820190506144696000830189613f0c565b6144766020830188613f0c565b6144836040830187613f0c565b6144906060830186613f0c565b61449d6080830185613f0c565b6144aa60a0830184613f0c565b979650505050505050565b60006020820190506144ca6000830184613f1b565b92915050565b60006144da6144eb565b90506144e6828261491f565b919050565b6000604051905090565b600067ffffffffffffffff8211156145105761450f614a15565b5b61451982614a58565b9050602081019050919050565b60008190508160005260206000209050919050565b600081519050919050565b600081519050919050565b600081905092915050565b600082825260208201905092915050565b600081905092915050565b600061458382614894565b915061458e83614894565b9250827fffffffffffffffffffffffffffffffffffffffffffffffffffffffffffffffff038211156145c3576145c2614988565b5b828201905092915050565b60006145d982614894565b91506145e483614894565b9250826145f4576145f36149b7565b5b828204905092915050565b6000808291508390505b60018511156146495780860481111561462557614624614988565b5b60018516156146345780820291505b808102905061464285614a76565b9450614609565b94509492505050565b600061465d82614894565b915061466883614894565b92506146957fffffffffffffffffffffffffffffffffffffffffffffffffffffffffffffffff848461469d565b905092915050565b6000826146ad5760019050614769565b816146bb5760009050614769565b81600181146146d157600281146146db5761470a565b6001915050614769565b60ff8411156146ed576146ec614988565b5b8360020a91508482111561470457614703614988565b5b50614769565b5060208310610133831016604e8410600b841016171561473f5782820a90508381111561473a57614739614988565b5b614769565b61474c84848460016145ff565b9250905081840481111561476357614762614988565b5b81810290505b9392505050565b600061477b82614894565b915061478683614894565b9250817fffffffffffffffffffffffffffffffffffffffffffffffffffffffffffffffff04831182151516156147bf576147be614988565b5b828202905092915050565b60006147d582614894565b91506147e083614894565b9250828210156147f3576147f2614988565b5b828203905092915050565b600061480982614874565b9050919050565b60008115159050919050565b60007fffffffffffffffffffff0000000000000000000000000000000000000000000082169050919050565b60007fffffffffffffffffffffffffffffff000000000000000000000000000000000082169050919050565b600073ffffffffffffffffffffffffffffffffffffffff82169050919050565b6000819050919050565b600060ff82169050919050565b82818337600083830152505050565b60005b838110156148d85780820151818401526020810190506148bd565b838111156148e7576000848401525b50505050565b6000600282049050600182168061490557607f821691505b60208210811415614919576149186149e6565b5b50919050565b61492882614a58565b810181811067ffffffffffffffff8211171561494757614946614a15565b5b80604052505050565b600061495b82614976565b9050919050565b6000819050919050565b6000819050919050565b600061498182614a69565b9050919050565b7f4e487b7100000000000000000000000000000000000000000000000000000000600052601160045260246000fd5b7f4e487b7100000000000000000000000000000000000000000000000000000000600052601260045260246000fd5b7f4e487b7100000000000000000000000000000000000000000000000000000000600052602260045260246000fd5b7f4e487b7100000000000000000000000000000000000000000000000000000000600052604160045260246000fd5b600080fd5b600080fd5b600080fd5b600080fd5b6000601f19601f8301169050919050565b60008160601b9050919050565b60008160011c9050919050565b7f6465616c20686173206265656e20637265617465640000000000000000000000600082015250565b7f63616e206f6e6c7920696e697469616c697a65206f6e63650000000000000000600082015250565b7f61654465616c2d00000000000000000000000000000000000000000000000000600082015250565b7f6165442d00000000000000000000000000000000000000000000000000000000600082015250565b7f62616c616e63652063616e74206265206e656761746976650000000000000000600082015250565b7f616363657074696e67206d6f7265207468616e20736861726500000000000000600082015250565b7f65786365656473206d61782073706f6e736f7220666565000000000000000000600082015250565b7f696e656c696769626c653a206469646e2774206d61782070726f207261746100600082015250565b7f6d617820312079656172206475726174696f6e00000000000000000000000000600082015250565b7f6f6e6c792073706f6e736f722063616e20616363657373000000000000000000600082015250565b7f3330206d696e73206973206d696e206f70656e20706572696f64000000000000600082015250565b7f6465616c20697320313a312c20736574206f70656e20746f2030000000000000600082015250565b7f6165502d00000000000000000000000000000000000000000000000000000000600082015250565b7f3330206d696e73206973206d696e2070726f7261746120706572696f64000000600082015250565b7f6d696e203330206d696e75746573207075726368617365206578706972790000600082015250565b7f7468652063617020686173206265656e20726561636865640000000000000000600082015250565b7f6e6f742079657420776974686472617720706572696f64000000000000000000600082015250565b7f6465616c206e6f74207965742063726561746564000000000000000000000000600082015250565b7f6165506f6f6c2d00000000000000000000000000000000000000000000000000600082015250565b7f6e6f7420696e2070757263686173652077696e646f7700000000000000000000600082015250565b7f6f6e6c79206675747572652073706f6e736f722063616e206163636573730000600082015250565b7f6f757473696465206f662072656465656d2077696e646f770000000000000000600082015250565b7f6e6f7420656e6f7567682066756e647320617661696c61626c65000000000000600082015250565b614e3b816147fe565b8114614e4657600080fd5b50565b614e5281614810565b8114614e5d57600080fd5b50565b614e6981614894565b8114614e7457600080fd5b50565b614e808161489e565b8114614e8b57600080fd5b5056fea26469706673582212201ba00257570f72557a3347badda03d3f71cc48ede54383db45e8b16209f3ccfc64736f6c63430008060033",
  "linkReferences": {},
  "deployedLinkReferences": {}
}