{
  "_format": "hh-sol-artifact-1",
  "contractName": "AelinPool",
  "sourceName": "contracts/AelinPool.sol",
  "abi": [
    {
      "inputs": [],
      "stateMutability": "nonpayable",
      "type": "constructor"
    },
    {
      "anonymous": false,
      "inputs": [
        {
          "indexed": false,
          "internalType": "address",
          "name": "purchaser",
          "type": "address"
        },
        {
          "indexed": false,
          "internalType": "address",
          "name": "poolAddress",
          "type": "address"
        },
        {
          "indexed": false,
          "internalType": "address",
          "name": "dealAddress",
          "type": "address"
        },
        {
          "indexed": false,
          "internalType": "uint256",
          "name": "poolTokenAmount",
          "type": "uint256"
        },
        {
          "indexed": false,
          "internalType": "uint256",
          "name": "underlyingToHolderAmt",
          "type": "uint256"
        }
      ],
      "name": "AcceptDeal",
      "type": "event"
    },
    {
      "anonymous": false,
      "inputs": [
        {
          "indexed": true,
          "internalType": "address",
          "name": "owner",
          "type": "address"
        },
        {
          "indexed": true,
          "internalType": "address",
          "name": "spender",
          "type": "address"
        },
        {
          "indexed": false,
          "internalType": "uint256",
          "name": "amount",
          "type": "uint256"
        }
      ],
      "name": "Approval",
      "type": "event"
    },
    {
      "anonymous": false,
      "inputs": [
        {
          "indexed": false,
          "internalType": "string",
          "name": "name",
          "type": "string"
        },
        {
          "indexed": false,
          "internalType": "string",
          "name": "symbol",
          "type": "string"
        },
        {
          "indexed": false,
          "internalType": "address",
          "name": "dealContract",
          "type": "address"
        },
        {
          "indexed": false,
          "internalType": "address",
          "name": "underlyingDealToken",
          "type": "address"
        },
        {
          "indexed": false,
          "internalType": "uint256",
          "name": "dealPurchaseTokenTotal",
          "type": "uint256"
        },
        {
          "indexed": false,
          "internalType": "uint256",
          "name": "underlyingDealTokenTotal",
          "type": "uint256"
        },
        {
          "indexed": false,
          "internalType": "uint256",
          "name": "vestingPeriod",
          "type": "uint256"
        },
        {
          "indexed": false,
          "internalType": "uint256",
          "name": "vestingCliff",
          "type": "uint256"
        },
        {
          "indexed": false,
          "internalType": "uint256",
          "name": "redemptionPeriod",
          "type": "uint256"
        },
        {
          "indexed": false,
          "internalType": "address",
          "name": "holder",
          "type": "address"
        },
        {
          "indexed": false,
          "internalType": "uint256",
          "name": "poolTokenMaxPurchaseAmount",
          "type": "uint256"
        }
      ],
      "name": "CreateDeal",
      "type": "event"
    },
    {
      "anonymous": false,
      "inputs": [
        {
          "indexed": false,
          "internalType": "address",
          "name": "recipient",
          "type": "address"
        },
        {
          "indexed": false,
          "internalType": "address",
          "name": "purchaser",
          "type": "address"
        },
        {
          "indexed": false,
          "internalType": "address",
          "name": "poolAddress",
          "type": "address"
        },
        {
          "indexed": false,
          "internalType": "uint256",
          "name": "purchaseTokenAmount",
          "type": "uint256"
        },
        {
          "indexed": false,
          "internalType": "uint256",
          "name": "poolTokenAmount",
          "type": "uint256"
        }
      ],
      "name": "PurchasePoolToken",
      "type": "event"
    },
    {
      "anonymous": false,
      "inputs": [
        {
          "indexed": false,
          "internalType": "address",
          "name": "sponsor",
          "type": "address"
        }
      ],
      "name": "SetSponsor",
      "type": "event"
    },
    {
      "anonymous": false,
      "inputs": [
        {
          "indexed": true,
          "internalType": "address",
          "name": "from",
          "type": "address"
        },
        {
          "indexed": true,
          "internalType": "address",
          "name": "to",
          "type": "address"
        },
        {
          "indexed": false,
          "internalType": "uint256",
          "name": "amount",
          "type": "uint256"
        }
      ],
      "name": "Transfer",
      "type": "event"
    },
    {
      "anonymous": false,
      "inputs": [
        {
          "indexed": false,
          "internalType": "address",
          "name": "purchaser",
          "type": "address"
        },
        {
          "indexed": false,
          "internalType": "address",
          "name": "poolAddress",
          "type": "address"
        },
        {
          "indexed": false,
          "internalType": "uint256",
          "name": "purchaseTokenAmount",
          "type": "uint256"
        },
        {
          "indexed": false,
          "internalType": "uint256",
          "name": "poolTokenAmount",
          "type": "uint256"
        }
      ],
      "name": "WithdrawFromPool",
      "type": "event"
    },
    {
      "inputs": [],
      "name": "AELIN_DEAL_STORAGE_PROXY",
      "outputs": [
        {
          "internalType": "address",
          "name": "",
          "type": "address"
        }
      ],
      "stateMutability": "view",
      "type": "function"
    },
    {
      "inputs": [],
      "name": "CALLED_INITIALIZE",
      "outputs": [
        {
          "internalType": "bool",
          "name": "",
          "type": "bool"
        }
      ],
      "stateMutability": "view",
      "type": "function"
    },
    {
      "inputs": [],
      "name": "DEAL_CREATED",
      "outputs": [
        {
          "internalType": "bool",
          "name": "",
          "type": "bool"
        }
      ],
      "stateMutability": "view",
      "type": "function"
    },
    {
      "inputs": [],
      "name": "FUTURE_SPONSOR",
      "outputs": [
        {
          "internalType": "address",
          "name": "",
          "type": "address"
        }
      ],
      "stateMutability": "view",
      "type": "function"
    },
    {
      "inputs": [],
      "name": "HOLDER",
      "outputs": [
        {
          "internalType": "address",
          "name": "",
          "type": "address"
        }
      ],
      "stateMutability": "view",
      "type": "function"
    },
    {
      "inputs": [],
      "name": "POOL_EXPIRY",
      "outputs": [
        {
          "internalType": "uint256",
          "name": "",
          "type": "uint256"
        }
      ],
      "stateMutability": "view",
      "type": "function"
    },
    {
      "inputs": [],
      "name": "PRO_RATA_CONVERSION",
      "outputs": [
        {
          "internalType": "uint256",
          "name": "",
          "type": "uint256"
        }
      ],
      "stateMutability": "view",
      "type": "function"
    },
    {
      "inputs": [],
      "name": "PURCHASE_EXPIRY",
      "outputs": [
        {
          "internalType": "uint256",
          "name": "",
          "type": "uint256"
        }
      ],
      "stateMutability": "view",
      "type": "function"
    },
    {
      "inputs": [],
      "name": "PURCHASE_TOKEN",
      "outputs": [
        {
          "internalType": "address",
          "name": "",
          "type": "address"
        }
      ],
      "stateMutability": "view",
      "type": "function"
    },
    {
      "inputs": [],
      "name": "PURCHASE_TOKEN_CAP",
      "outputs": [
        {
          "internalType": "uint256",
          "name": "",
          "type": "uint256"
        }
      ],
      "stateMutability": "view",
      "type": "function"
    },
    {
      "inputs": [],
      "name": "PURCHASE_TOKEN_DECIMALS",
      "outputs": [
        {
          "internalType": "uint256",
          "name": "",
          "type": "uint256"
        }
      ],
      "stateMutability": "view",
      "type": "function"
    },
    {
      "inputs": [],
      "name": "SPONSOR",
      "outputs": [
        {
          "internalType": "address",
          "name": "",
          "type": "address"
        }
      ],
      "stateMutability": "view",
      "type": "function"
    },
    {
      "inputs": [],
      "name": "SPONSOR_FEE",
      "outputs": [
        {
          "internalType": "uint256",
          "name": "",
          "type": "uint256"
        }
      ],
      "stateMutability": "view",
      "type": "function"
    },
    {
      "inputs": [
        {
          "internalType": "uint256",
          "name": "pool_token_amount",
          "type": "uint256"
        }
      ],
      "name": "acceptDealTokens",
      "outputs": [],
      "stateMutability": "nonpayable",
      "type": "function"
    },
    {
      "inputs": [
        {
          "internalType": "address",
          "name": "recipient",
          "type": "address"
        },
        {
          "internalType": "uint256",
          "name": "pool_token_amount",
          "type": "uint256"
        }
      ],
      "name": "acceptDealTokensAndAllocate",
      "outputs": [],
      "stateMutability": "nonpayable",
      "type": "function"
    },
    {
      "inputs": [],
      "name": "acceptMaxDealTokens",
      "outputs": [],
      "stateMutability": "nonpayable",
      "type": "function"
    },
    {
      "inputs": [
        {
          "internalType": "address",
          "name": "recipient",
          "type": "address"
        }
      ],
      "name": "acceptMaxDealTokensAndAllocate",
      "outputs": [],
      "stateMutability": "nonpayable",
      "type": "function"
    },
    {
      "inputs": [],
      "name": "acceptSponsor",
      "outputs": [],
      "stateMutability": "nonpayable",
      "type": "function"
    },
    {
      "inputs": [
        {
          "internalType": "address",
          "name": "",
          "type": "address"
        },
        {
          "internalType": "address",
          "name": "",
          "type": "address"
        }
      ],
      "name": "allowance",
      "outputs": [
        {
          "internalType": "uint256",
          "name": "",
          "type": "uint256"
        }
      ],
      "stateMutability": "view",
      "type": "function"
    },
    {
      "inputs": [
        {
          "internalType": "address",
          "name": "spender",
          "type": "address"
        },
        {
          "internalType": "uint256",
          "name": "amount",
          "type": "uint256"
        }
      ],
      "name": "approve",
      "outputs": [
        {
          "internalType": "bool",
          "name": "",
          "type": "bool"
        }
      ],
      "stateMutability": "nonpayable",
      "type": "function"
    },
    {
      "inputs": [
        {
          "internalType": "address",
          "name": "",
          "type": "address"
        }
      ],
      "name": "balanceOf",
      "outputs": [
        {
          "internalType": "uint256",
          "name": "",
          "type": "uint256"
        }
      ],
      "stateMutability": "view",
      "type": "function"
    },
    {
      "inputs": [
        {
          "internalType": "address",
          "name": "_underlying_deal_token",
          "type": "address"
        },
        {
          "internalType": "uint256",
          "name": "_deal_purchase_token_total",
          "type": "uint256"
        },
        {
          "internalType": "uint256",
          "name": "_underlying_deal_token_total",
          "type": "uint256"
        },
        {
          "internalType": "uint256",
          "name": "_vesting_period",
          "type": "uint256"
        },
        {
          "internalType": "uint256",
          "name": "_vesting_cliff",
          "type": "uint256"
        },
        {
          "internalType": "uint256",
          "name": "_redemption_period",
          "type": "uint256"
        },
        {
          "internalType": "address",
          "name": "_holder",
          "type": "address"
        }
      ],
      "name": "createDeal",
      "outputs": [
        {
          "internalType": "address",
          "name": "",
          "type": "address"
        }
      ],
      "stateMutability": "nonpayable",
      "type": "function"
    },
    {
      "inputs": [],
      "name": "decimals",
      "outputs": [
        {
          "internalType": "uint8",
          "name": "",
          "type": "uint8"
        }
      ],
      "stateMutability": "view",
      "type": "function"
    },
    {
      "inputs": [
        {
          "internalType": "string",
          "name": "_name",
          "type": "string"
        },
        {
          "internalType": "string",
          "name": "_symbol",
          "type": "string"
        },
        {
          "internalType": "uint256",
          "name": "_purchase_token_cap",
          "type": "uint256"
        },
        {
          "internalType": "address",
          "name": "_purchase_token",
          "type": "address"
        },
        {
          "internalType": "uint256",
          "name": "_duration",
          "type": "uint256"
        },
        {
          "internalType": "uint256",
          "name": "_sponsor_fee",
          "type": "uint256"
        },
        {
          "internalType": "address",
          "name": "_sponsor",
          "type": "address"
        },
        {
          "internalType": "uint256",
          "name": "_purchase_expiry",
          "type": "uint256"
        }
      ],
      "name": "initialize",
      "outputs": [],
      "stateMutability": "nonpayable",
      "type": "function"
    },
    {
      "inputs": [],
      "name": "maxPurchase",
      "outputs": [
        {
          "internalType": "uint256",
          "name": "",
          "type": "uint256"
        }
      ],
      "stateMutability": "view",
      "type": "function"
    },
    {
      "inputs": [],
      "name": "name",
      "outputs": [
        {
          "internalType": "string",
          "name": "",
          "type": "string"
        }
      ],
      "stateMutability": "view",
      "type": "function"
    },
    {
      "inputs": [
        {
          "internalType": "address",
          "name": "purchaser",
          "type": "address"
        }
      ],
      "name": "proRataBalance",
      "outputs": [
        {
          "internalType": "uint256",
          "name": "",
          "type": "uint256"
        }
      ],
      "stateMutability": "view",
      "type": "function"
    },
    {
      "inputs": [
        {
          "internalType": "uint256",
          "name": "purchase_token_amount",
          "type": "uint256"
        }
      ],
      "name": "purchasePoolTokens",
      "outputs": [],
      "stateMutability": "nonpayable",
      "type": "function"
    },
    {
      "inputs": [
        {
          "internalType": "address",
          "name": "recipient",
          "type": "address"
        },
        {
          "internalType": "uint256",
          "name": "purchase_token_amount",
          "type": "uint256"
        }
      ],
      "name": "purchasePoolTokensAndAllocate",
      "outputs": [],
      "stateMutability": "nonpayable",
      "type": "function"
    },
    {
      "inputs": [
        {
          "internalType": "address",
          "name": "_sponsor",
          "type": "address"
        }
      ],
      "name": "setSponsor",
      "outputs": [],
      "stateMutability": "nonpayable",
      "type": "function"
    },
    {
      "inputs": [],
      "name": "symbol",
      "outputs": [
        {
          "internalType": "string",
          "name": "",
          "type": "string"
        }
      ],
      "stateMutability": "view",
      "type": "function"
    },
    {
      "inputs": [],
      "name": "totalSupply",
      "outputs": [
        {
          "internalType": "uint256",
          "name": "",
          "type": "uint256"
        }
      ],
      "stateMutability": "view",
      "type": "function"
    },
    {
      "inputs": [
        {
          "internalType": "address",
          "name": "dst",
          "type": "address"
        },
        {
          "internalType": "uint256",
          "name": "amount",
          "type": "uint256"
        }
      ],
      "name": "transfer",
      "outputs": [
        {
          "internalType": "bool",
          "name": "",
          "type": "bool"
        }
      ],
      "stateMutability": "nonpayable",
      "type": "function"
    },
    {
      "inputs": [
        {
          "internalType": "address",
          "name": "src",
          "type": "address"
        },
        {
          "internalType": "address",
          "name": "dst",
          "type": "address"
        },
        {
          "internalType": "uint256",
          "name": "amount",
          "type": "uint256"
        }
      ],
      "name": "transferFrom",
      "outputs": [
        {
          "internalType": "bool",
          "name": "",
          "type": "bool"
        }
      ],
      "stateMutability": "nonpayable",
      "type": "function"
    },
    {
      "inputs": [
        {
          "internalType": "uint256",
          "name": "pool_token_amount",
          "type": "uint256"
        }
      ],
      "name": "withdrawFromPool",
      "outputs": [],
      "stateMutability": "nonpayable",
      "type": "function"
    },
    {
      "inputs": [],
      "name": "withdrawMaxFromPool",
      "outputs": [],
      "stateMutability": "nonpayable",
      "type": "function"
    }
  ],
  "bytecode": "0x60806040526000600260006101000a81548160ff02191690831515021790555060006003556000600f60006101000a81548160ff0219169083151502179055506000600f60016101000a81548160ff02191690831515021790555034801561006657600080fd5b506141c1806100766000396000f3fe608060405234801561001057600080fd5b506004361061021c5760003560e01c806377410c5e11610125578063b21cd9d9116100ad578063da6cedd71161007c578063da6cedd7146105e9578063dd62ed3e146105f3578063e267f7d714610623578063e5baea551461063f578063e6a4b6ee1461065b5761021c565b8063b21cd9d91461059d578063b5311b10146105a7578063bc991ed6146105c3578063c00be9fc146105df5761021c565b806395d89b41116100f457806395d89b41146104f5578063977b055b146105135780639d02f71a146105315780639e68fa311461054f578063a9059cbb1461056d5761021c565b806377410c5e1461046b57806381816288146104895780638318f27e146104a7578063852f8536146104d75761021c565b8063313ce567116101a85780635542165a116101775780635542165a146103c757806359753fb1146103e557806367807b2214610401578063688d0c2c1461041d57806370a082311461043b5761021c565b8063313ce56714610351578063381d71091461036f5780633bee26fe1461038d57806354a95091146103a95761021c565b806318160ddd116101ef57806318160ddd146102ab5780631d073a7a146102c957806323b872dd146102e75780632be529d81461031757806330fc43ed146103355761021c565b806306fdde0314610221578063088b32f41461023f578063095ea7b31461025d5780630f9465e41461028d575b600080fd5b61022961068b565b604051610236919061341e565b60405180910390f35b610247610719565b60405161025491906137c3565b60405180910390f35b61027760048036038101906102729190612a85565b61071f565b6040516102849190613403565b60405180910390f35b610295610811565b6040516102a291906132f0565b60405180910390f35b6102b3610837565b6040516102c091906137c3565b60405180910390f35b6102d161083d565b6040516102de91906132f0565b60405180910390f35b61030160048036038101906102fc9190612a32565b610863565b60405161030e9190613403565b60405180910390f35b61031f610a5b565b60405161032c91906132f0565b60405180910390f35b61034f600480360381019061034a9190612c82565b610a81565b005b610359610a8d565b60405161036691906137de565b60405180910390f35b610377610a92565b60405161038491906137c3565b60405180910390f35b6103a760048036038101906103a29190612c82565b610a98565b005b6103b1610aa5565b6040516103be91906137c3565b60405180910390f35b6103cf610aab565b6040516103dc9190613403565b60405180910390f35b6103ff60048036038101906103fa91906129c5565b610abe565b005b61041b600480360381019061041691906129c5565b610b92565b005b610425610ba7565b6040516104329190613403565b60405180910390f35b610455600480360381019061045091906129c5565b610bba565b60405161046291906137c3565b60405180910390f35b610473610bd2565b60405161048091906137c3565b60405180910390f35b610491610bd8565b60405161049e91906132f0565b60405180910390f35b6104c160048036038101906104bc9190612ac5565b610bfe565b6040516104ce91906132f0565b60405180910390f35b6104df61119d565b6040516104ec91906137c3565b60405180910390f35b6104fd6111a3565b60405161050a919061341e565b60405180910390f35b61051b611231565b60405161052891906137c3565b60405180910390f35b610539611356565b60405161054691906132f0565b60405180910390f35b61055761137c565b60405161056491906137c3565b60405180910390f35b61058760048036038101906105829190612a85565b611382565b6040516105949190613403565b60405180910390f35b6105a5611399565b005b6105c160048036038101906105bc9190612a85565b6113e3565b005b6105dd60048036038101906105d89190612b94565b6113f1565b005b6105e7611727565b005b6105f1611875565b005b61060d600480360381019061060891906129f2565b611889565b60405161061a91906137c3565b60405180910390f35b61063d60048036038101906106389190612a85565b6118ae565b005b61065960048036038101906106549190612c82565b6118bc565b005b610675600480360381019061067091906129c5565b6118c9565b60405161068291906137c3565b60405180910390f35b6000805461069890613c16565b80601f01602080910402602001604051908101604052809291908181526020018280546106c490613c16565b80156107115780601f106106e657610100808354040283529160200191610711565b820191906000526020600020905b8154815290600101906020018083116106f457829003601f168201915b505050505081565b60075481565b600081600460003373ffffffffffffffffffffffffffffffffffffffff1673ffffffffffffffffffffffffffffffffffffffff16815260200190815260200160002060008573ffffffffffffffffffffffffffffffffffffffff1673ffffffffffffffffffffffffffffffffffffffff168152602001908152602001600020819055508273ffffffffffffffffffffffffffffffffffffffff163373ffffffffffffffffffffffffffffffffffffffff167f8c5be1e5ebec7d5bd14f71427d1e84f3dd0314c0f7b2291e5b200ac8c7c3b925846040516107ff91906137c3565b60405180910390a36001905092915050565b600660009054906101000a900473ffffffffffffffffffffffffffffffffffffffff1681565b60035481565b600b60009054906101000a900473ffffffffffffffffffffffffffffffffffffffff1681565b6000803390506000600460008773ffffffffffffffffffffffffffffffffffffffff1673ffffffffffffffffffffffffffffffffffffffff16815260200190815260200160002060008373ffffffffffffffffffffffffffffffffffffffff1673ffffffffffffffffffffffffffffffffffffffff1681526020019081526020016000205490508573ffffffffffffffffffffffffffffffffffffffff168273ffffffffffffffffffffffffffffffffffffffff161415801561094657507fffffffffffffffffffffffffffffffffffffffffffffffffffffffffffffffff8114155b15610a4357600084826109599190613af3565b905080600460008973ffffffffffffffffffffffffffffffffffffffff1673ffffffffffffffffffffffffffffffffffffffff16815260200190815260200160002060008573ffffffffffffffffffffffffffffffffffffffff1673ffffffffffffffffffffffffffffffffffffffff168152602001908152602001600020819055508273ffffffffffffffffffffffffffffffffffffffff168773ffffffffffffffffffffffffffffffffffffffff167f8c5be1e5ebec7d5bd14f71427d1e84f3dd0314c0f7b2291e5b200ac8c7c3b92583604051610a3991906137c3565b60405180910390a3505b610a4e868686611932565b6001925050509392505050565b601060009054906101000a900473ffffffffffffffffffffffffffffffffffffffff1681565b610a8a81611acb565b50565b601281565b600a5481565b610aa23382611b97565b50565b60085481565b600f60019054906101000a900460ff1681565b600b60009054906101000a900473ffffffffffffffffffffffffffffffffffffffff1673ffffffffffffffffffffffffffffffffffffffff163373ffffffffffffffffffffffffffffffffffffffff1614610b4e576040517f08c379a0000000000000000000000000000000000000000000000000000000008152600401610b4590613683565b60405180910390fd5b80600c60006101000a81548173ffffffffffffffffffffffffffffffffffffffff021916908373ffffffffffffffffffffffffffffffffffffffff16021790555050565b610ba481610b9f336118c9565b611b97565b50565b600f60009054906101000a900460ff1681565b60056020528060005260406000206000915090505481565b600d5481565b600f60029054906101000a900473ffffffffffffffffffffffffffffffffffffffff1681565b6000600b60009054906101000a900473ffffffffffffffffffffffffffffffffffffffff1673ffffffffffffffffffffffffffffffffffffffff163373ffffffffffffffffffffffffffffffffffffffff1614610c90576040517f08c379a0000000000000000000000000000000000000000000000000000000008152600401610c8790613683565b60405180910390fd5b60001515600f60019054906101000a900460ff16151514610ce6576040517f08c379a0000000000000000000000000000000000000000000000000000000008152600401610cdd906135a3565b60405180910390fd5b826107081115610d2b576040517f08c379a0000000000000000000000000000000000000000000000000000000008152600401610d2290613763565b60405180910390fd5b6000600660009054906101000a900473ffffffffffffffffffffffffffffffffffffffff1673ffffffffffffffffffffffffffffffffffffffff166370a08231306040518263ffffffff1660e01b8152600401610d8891906132f0565b60206040518083038186803b158015610da057600080fd5b505afa158015610db4573d6000803e3d6000fd5b505050506040513d601f19601f82011682018060405250810190610dd89190612caf565b11610e18576040517f08c379a0000000000000000000000000000000000000000000000000000000008152600401610e0f90613603565b60405180910390fd5b600660009054906101000a900473ffffffffffffffffffffffffffffffffffffffff1673ffffffffffffffffffffffffffffffffffffffff166370a08231306040518263ffffffff1660e01b8152600401610e7391906132f0565b60206040518083038186803b158015610e8b57600080fd5b505afa158015610e9f573d6000803e3d6000fd5b505050506040513d601f19601f82011682018060405250810190610ec39190612caf565b871115610f05576040517f08c379a0000000000000000000000000000000000000000000000000000000008152600401610efc90613623565b60405180910390fd5b42600e8190555081601060006101000a81548173ffffffffffffffffffffffffffffffffffffffff021916908373ffffffffffffffffffffffffffffffffffffffff1602179055506001600f60016101000a81548160ff0219169083151502179055506000610f7688600854612039565b9050600354670de0b6b3a764000082610f8f9190613a99565b610f9991906138f7565b600981905550600088600854600a610fb1919061397b565b89610fbc9190613a99565b610fc691906138f7565b9050600061101d73bca4e7065bae69bb30a34d21fb99464c81b600ab6040518060400160405280601981526020017f436f756c64206e6f7420637265617465206e6577206465616c00000000000000815250612067565b90508073ffffffffffffffffffffffffffffffffffffffff1663206efe20601160128e868e8e8e8e8e8d6040518b63ffffffff1660e01b815260040161106c9a999897969594939291906134f9565b600060405180830381600087803b15801561108657600080fd5b505af115801561109a573d6000803e3d6000fd5b5050505080600f60026101000a81548173ffffffffffffffffffffffffffffffffffffffff021916908373ffffffffffffffffffffffffffffffffffffffff1602179055507f6267ad7336e6fd383ff65cb6c73afde0e961380acb9571d38bc2225a3be2259a60116040516020016111129190613268565b6040516020818303038152906040526012604051602001611133919061328a565b604051602081830303815290604052838e8e8e8e8e8e8e8d6040516111629b9a99989796959493929190613440565b60405180910390a1600f60029054906101000a900473ffffffffffffffffffffffffffffffffffffffff169350505050979650505050505050565b600e5481565b600180546111b090613c16565b80601f01602080910402602001604051908101604052809291908181526020018280546111dc90613c16565b80156112295780601f106111fe57610100808354040283529160200191611229565b820191906000526020600020905b81548152906001019060200180831161120c57829003601f168201915b505050505081565b600060011515600f60019054906101000a900460ff16151514806112575750600d544210155b156112655760009050611353565b60006007541415611298577fffffffffffffffffffffffffffffffffffffffffffffffffffffffffffffffff9050611353565b600660009054906101000a900473ffffffffffffffffffffffffffffffffffffffff1673ffffffffffffffffffffffffffffffffffffffff166370a08231306040518263ffffffff1660e01b81526004016112f391906132f0565b60206040518083038186803b15801561130b57600080fd5b505afa15801561131f573d6000803e3d6000fd5b505050506040513d601f19601f820116820180604052508101906113439190612caf565b6007546113509190613af3565b90505b90565b600c60009054906101000a900473ffffffffffffffffffffffffffffffffffffffff1681565b60095481565b600061138f338484611932565b6001905092915050565b6113e1600560003373ffffffffffffffffffffffffffffffffffffffff1673ffffffffffffffffffffffffffffffffffffffff16815260200190815260200160002054611acb565b565b6113ed82826120fb565b5050565b60001515600f60009054906101000a900460ff16151514611447576040517f08c379a000000000000000000000000000000000000000000000000000000000815260040161143e906135c3565b60405180910390fd5b876011908051906020019061145d929190612849565b508660129080519060200190611474929190612849565b506114bd8860405160200161148991906132ce565b604051602081830303815290604052886040516020016114a991906132ac565b604051602081830303815290604052612323565b508560078190555084600660006101000a81548173ffffffffffffffffffffffffffffffffffffffff021916908373ffffffffffffffffffffffffffffffffffffffff1602179055508473ffffffffffffffffffffffffffffffffffffffff1663313ce5676040518163ffffffff1660e01b815260040160206040518083038186803b15801561154c57600080fd5b505afa158015611560573d6000803e3d6000fd5b505050506040513d601f19601f820116820180604052508101906115849190612cdc565b60ff16600881905550836301e1338010156115d4576040517f08c379a00000000000000000000000000000000000000000000000000000000081526004016115cb90613663565b60405180910390fd5b83426115e091906138a1565b600e8190555080610708111561162b576040517f08c379a0000000000000000000000000000000000000000000000000000000008152600401611622906136a3565b60405180910390fd5b804261163791906138a1565b600d8190555062017ed0831115611683576040517f08c379a000000000000000000000000000000000000000000000000000000000815260040161167a90613643565b60405180910390fd5b82600a8190555081600b60006101000a81548173ffffffffffffffffffffffffffffffffffffffff021916908373ffffffffffffffffffffffffffffffffffffffff1602179055506001600f60006101000a81548160ff0219169083151502179055507f664990684c2a471ecd811b0746b52f569a208f58b796c699208ed71379bf3c278260405161171591906132f0565b60405180910390a15050505050505050565b600c60009054906101000a900473ffffffffffffffffffffffffffffffffffffffff1673ffffffffffffffffffffffffffffffffffffffff163373ffffffffffffffffffffffffffffffffffffffff16146117b7576040517f08c379a00000000000000000000000000000000000000000000000000000000081526004016117ae90613783565b60405180910390fd5b600c60009054906101000a900473ffffffffffffffffffffffffffffffffffffffff16600b60006101000a81548173ffffffffffffffffffffffffffffffffffffffff021916908373ffffffffffffffffffffffffffffffffffffffff1602179055507f664990684c2a471ecd811b0746b52f569a208f58b796c699208ed71379bf3c27600c60009054906101000a900473ffffffffffffffffffffffffffffffffffffffff1660405161186b91906132f0565b60405180910390a1565b61188733611882336118c9565b611b97565b565b6004602052816000526040600020602052806000526040600020600091509150505481565b6118b88282611b97565b5050565b6118c633826120fb565b50565b6000670de0b6b3a7640000600560008473ffffffffffffffffffffffffffffffffffffffff1673ffffffffffffffffffffffffffffffffffffffff168152602001908152602001600020546009546119219190613a99565b61192b91906138f7565b9050919050565b80600560008573ffffffffffffffffffffffffffffffffffffffff1673ffffffffffffffffffffffffffffffffffffffff16815260200190815260200160002060008282546119819190613af3565b9250508190555080600560008473ffffffffffffffffffffffffffffffffffffffff1673ffffffffffffffffffffffffffffffffffffffff16815260200190815260200160002060008282546119d791906138a1565b925050819055506000600560008573ffffffffffffffffffffffffffffffffffffffff1673ffffffffffffffffffffffffffffffffffffffff168152602001908152602001600020541015611a61576040517f08c379a0000000000000000000000000000000000000000000000000000000008152600401611a58906135e3565b60405180910390fd5b8173ffffffffffffffffffffffffffffffffffffffff168373ffffffffffffffffffffffffffffffffffffffff167fddf252ad1be2c89b69c2b068fc378daa952ba7f163c4a11628f55a4df523b3ef83604051611abe91906137c3565b60405180910390a3505050565b600e544211611b0f576040517f08c379a0000000000000000000000000000000000000000000000000000000008152600401611b06906136e3565b60405180910390fd5b611b1933826123cd565b6000611b27826008546124a6565b9050611b56600660009054906101000a900473ffffffffffffffffffffffffffffffffffffffff1633836124d4565b7f817b0c0d4788c2aad942468226077f2ecebee8ffc9a58c433b980b15d2679d7033308385604051611b8b9493929190613395565b60405180910390a15050565b60011515600f60019054906101000a900460ff16151514611bed576040517f08c379a0000000000000000000000000000000000000000000000000000000008152600401611be490613723565b60405180910390fd5b6000600f60029054906101000a900473ffffffffffffffffffffffffffffffffffffffff1690508073ffffffffffffffffffffffffffffffffffffffff166358ce466a6040518163ffffffff1660e01b815260040160206040518083038186803b158015611c5a57600080fd5b505afa158015611c6e573d6000803e3d6000fd5b505050506040513d601f19601f82011682018060405250810190611c929190612caf565b4210158015611d1d57508073ffffffffffffffffffffffffffffffffffffffff1663bf55dbb36040518163ffffffff1660e01b815260040160206040518083038186803b158015611ce257600080fd5b505afa158015611cf6573d6000803e3d6000fd5b505050506040513d601f19601f82011682018060405250810190611d1a9190612caf565b42105b611d5c576040517f08c379a0000000000000000000000000000000000000000000000000000000008152600401611d53906137a3565b60405180910390fd5b611d65336118c9565b821115611da7576040517f08c379a0000000000000000000000000000000000000000000000000000000008152600401611d9e90613703565b60405180910390fd5b611db133836123cd565b6000620186a06107d084611dc59190613a99565b611dcf91906138f7565b90506000620186a0600a5485611de59190613a99565b611def91906138f7565b90508273ffffffffffffffffffffffffffffffffffffffff166340c10f19600b60009054906101000a900473ffffffffffffffffffffffffffffffffffffffff16836040518363ffffffff1660e01b8152600401611e4e9291906133da565b600060405180830381600087803b158015611e6857600080fd5b505af1158015611e7c573d6000803e3d6000fd5b505050508273ffffffffffffffffffffffffffffffffffffffff166340c10f196000846040518363ffffffff1660e01b8152600401611ebc9291906133da565b600060405180830381600087803b158015611ed657600080fd5b505af1158015611eea573d6000803e3d6000fd5b505050508273ffffffffffffffffffffffffffffffffffffffff166340c10f19868484611f1791906138a1565b87611f229190613af3565b6040518363ffffffff1660e01b8152600401611f3f9291906133da565b600060405180830381600087803b158015611f5957600080fd5b505af1158015611f6d573d6000803e3d6000fd5b505050506000611f7f856008546124a6565b9050611fd0600660009054906101000a900473ffffffffffffffffffffffffffffffffffffffff16601060009054906101000a900473ffffffffffffffffffffffffffffffffffffffff16836124d4565b7f6f7b25f3e8af7990515569049c014834b70902e031d53ab5b5387decc49c0b8c8630600f60029054906101000a900473ffffffffffffffffffffffffffffffffffffffff16888560405161202995949392919061330b565b60405180910390a1505050505050565b60008160126120489190613af3565b600a612054919061397b565b8361205f9190613a99565b905092915050565b600080612073846125f3565b90506037602082016000f09150600073ffffffffffffffffffffffffffffffffffffffff168273ffffffffffffffffffffffffffffffffffffffff16141583906120f3576040517f08c379a00000000000000000000000000000000000000000000000000000000081526004016120ea919061341e565b60405180910390fd5b505092915050565b60001515600f60019054906101000a900460ff16151514801561211f5750600d5442105b61215e576040517f08c379a000000000000000000000000000000000000000000000000000000000815260040161215590613743565b60405180910390fd5b6000600660009054906101000a900473ffffffffffffffffffffffffffffffffffffffff1673ffffffffffffffffffffffffffffffffffffffff166370a08231306040518263ffffffff1660e01b81526004016121bb91906132f0565b60206040518083038186803b1580156121d357600080fd5b505afa1580156121e7573d6000803e3d6000fd5b505050506040513d601f19601f8201168201806040525081019061220b9190612caf565b90506000600754148061221f575060075481105b61225e576040517f08c379a0000000000000000000000000000000000000000000000000000000008152600401612255906136c3565b60405180910390fd5b6000600754111561229657600754818361227891906138a1565b1115612291578060075461228c9190613af3565b612293565b815b91505b60006122a483600854612039565b90506122d4600660009054906101000a900473ffffffffffffffffffffffffffffffffffffffff1633308661264e565b6122de8482612770565b7f7e937eb0e1c6fed455215464c1bbd1a776f78226ccdc293a0e81f286504517e3843330868560405161231595949392919061330b565b60405180910390a150505050565b6000801515600260009054906101000a900460ff1615151461237a576040517f08c379a0000000000000000000000000000000000000000000000000000000008152600401612371906135c3565b60405180910390fd5b8260009080519060200190612390929190612849565b5081600190805190602001906123a7929190612849565b506001600260006101000a81548160ff0219169083151502179055506001905092915050565b80600360008282546123df9190613af3565b9250508190555080600560008473ffffffffffffffffffffffffffffffffffffffff1673ffffffffffffffffffffffffffffffffffffffff16815260200190815260200160002060008282546124359190613af3565b92505081905550600073ffffffffffffffffffffffffffffffffffffffff168273ffffffffffffffffffffffffffffffffffffffff167fddf252ad1be2c89b69c2b068fc378daa952ba7f163c4a11628f55a4df523b3ef8360405161249a91906137c3565b60405180910390a35050565b60008160126124b59190613af3565b600a6124c1919061397b565b836124cc91906138f7565b905092915050565b6000808473ffffffffffffffffffffffffffffffffffffffff1663a9059cbb60e01b85856040516024016125099291906133da565b604051602081830303815290604052907bffffffffffffffffffffffffffffffffffffffffffffffffffffffff19166020820180517bffffffffffffffffffffffffffffffffffffffffffffffffffffffff83818316178352505050506040516125739190613251565b6000604051808303816000865af19150503d80600081146125b0576040519150601f19603f3d011682016040523d82523d6000602084013e6125b5565b606091505b50915091508180156125e357506000815114806125e25750808060200190518101906125e19190612b67565b5b5b6125ec57600080fd5b5050505050565b6060693d602d80600a3d3981f360b01b69363d3d373d3d3d363d7360b01b836e5af43d82803e903d91602b57fd5bf360881b6040516020016126389493929190613203565b6040516020818303038152906040529050919050565b6000808573ffffffffffffffffffffffffffffffffffffffff166323b872dd60e01b8686866040516024016126859392919061335e565b604051602081830303815290604052907bffffffffffffffffffffffffffffffffffffffffffffffffffffffff19166020820180517bffffffffffffffffffffffffffffffffffffffffffffffffffffffff83818316178352505050506040516126ef9190613251565b6000604051808303816000865af19150503d806000811461272c576040519150601f19603f3d011682016040523d82523d6000602084013e612731565b606091505b509150915081801561275f575060008151148061275e57508080602001905181019061275d9190612b67565b5b5b61276857600080fd5b505050505050565b806003600082825461278291906138a1565b9250508190555080600560008473ffffffffffffffffffffffffffffffffffffffff1673ffffffffffffffffffffffffffffffffffffffff16815260200190815260200160002060008282546127d891906138a1565b925050819055508173ffffffffffffffffffffffffffffffffffffffff16600073ffffffffffffffffffffffffffffffffffffffff167fddf252ad1be2c89b69c2b068fc378daa952ba7f163c4a11628f55a4df523b3ef8360405161283d91906137c3565b60405180910390a35050565b82805461285590613c16565b90600052602060002090601f01602090048101928261287757600085556128be565b82601f1061289057805160ff19168380011785556128be565b828001600101855582156128be579182015b828111156128bd5782518255916020019190600101906128a2565b5b5090506128cb91906128cf565b5090565b5b808211156128e85760008160009055506001016128d0565b5090565b60006128ff6128fa8461381e565b6137f9565b90508281526020810184848401111561291b5761291a613d72565b5b612926848285613bd4565b509392505050565b60008135905061293d8161412f565b92915050565b60008151905061295281614146565b92915050565b600082601f83011261296d5761296c613d6d565b5b813561297d8482602086016128ec565b91505092915050565b6000813590506129958161415d565b92915050565b6000815190506129aa8161415d565b92915050565b6000815190506129bf81614174565b92915050565b6000602082840312156129db576129da613d7c565b5b60006129e98482850161292e565b91505092915050565b60008060408385031215612a0957612a08613d7c565b5b6000612a178582860161292e565b9250506020612a288582860161292e565b9150509250929050565b600080600060608486031215612a4b57612a4a613d7c565b5b6000612a598682870161292e565b9350506020612a6a8682870161292e565b9250506040612a7b86828701612986565b9150509250925092565b60008060408385031215612a9c57612a9b613d7c565b5b6000612aaa8582860161292e565b9250506020612abb85828601612986565b9150509250929050565b600080600080600080600060e0888a031215612ae457612ae3613d7c565b5b6000612af28a828b0161292e565b9750506020612b038a828b01612986565b9650506040612b148a828b01612986565b9550506060612b258a828b01612986565b9450506080612b368a828b01612986565b93505060a0612b478a828b01612986565b92505060c0612b588a828b0161292e565b91505092959891949750929550565b600060208284031215612b7d57612b7c613d7c565b5b6000612b8b84828501612943565b91505092915050565b600080600080600080600080610100898b031215612bb557612bb4613d7c565b5b600089013567ffffffffffffffff811115612bd357612bd2613d77565b5b612bdf8b828c01612958565b985050602089013567ffffffffffffffff811115612c0057612bff613d77565b5b612c0c8b828c01612958565b9750506040612c1d8b828c01612986565b9650506060612c2e8b828c0161292e565b9550506080612c3f8b828c01612986565b94505060a0612c508b828c01612986565b93505060c0612c618b828c0161292e565b92505060e0612c728b828c01612986565b9150509295985092959890939650565b600060208284031215612c9857612c97613d7c565b5b6000612ca684828501612986565b91505092915050565b600060208284031215612cc557612cc4613d7c565b5b6000612cd38482850161299b565b91505092915050565b600060208284031215612cf257612cf1613d7c565b5b6000612d00848285016129b0565b91505092915050565b612d1281613b27565b82525050565b612d29612d2482613b27565b613c79565b82525050565b612d3881613b39565b82525050565b612d4f612d4a82613b45565b613c8b565b82525050565b612d66612d6182613b71565b613c95565b82525050565b6000612d7782613864565b612d81818561387a565b9350612d91818560208601613be3565b80840191505092915050565b6000612da88261386f565b612db28185613885565b9350612dc2818560208601613be3565b612dcb81613d81565b840191505092915050565b6000612de18261386f565b612deb8185613896565b9350612dfb818560208601613be3565b80840191505092915050565b60008154612e1481613c16565b612e1e8186613885565b94506001821660008114612e395760018114612e4b57612e7e565b60ff1983168652602086019350612e7e565b612e548561384f565b60005b83811015612e7657815481890152600182019150602081019050612e57565b808801955050505b50505092915050565b60008154612e9481613c16565b612e9e8186613896565b94506001821660008114612eb95760018114612eca57612efd565b60ff19831686528186019350612efd565b612ed38561384f565b60005b83811015612ef557815481890152600182019150602081019050612ed6565b838801955050505b50505092915050565b6000612f13601583613885565b9150612f1e82613dac565b602082019050919050565b6000612f36601883613885565b9150612f4182613dd5565b602082019050919050565b6000612f59600783613896565b9150612f6482613dfe565b600782019050919050565b6000612f7c600483613896565b9150612f8782613e27565b600482019050919050565b6000612f9f601883613885565b9150612faa82613e50565b602082019050919050565b6000612fc2602283613885565b9150612fcd82613e79565b604082019050919050565b6000612fe5601683613885565b9150612ff082613ec8565b602082019050919050565b6000613008601783613885565b915061301382613ef1565b602082019050919050565b600061302b601383613885565b915061303682613f1a565b602082019050919050565b600061304e601783613885565b915061305982613f43565b602082019050919050565b6000613071600483613896565b915061307c82613f6c565b600482019050919050565b6000613094601e83613885565b915061309f82613f95565b602082019050919050565b60006130b7601883613885565b91506130c282613fbe565b602082019050919050565b60006130da601783613885565b91506130e582613fe7565b602082019050919050565b60006130fd601e83613885565b915061310882614010565b602082019050919050565b6000613120601483613885565b915061312b82614039565b602082019050919050565b6000613143600783613896565b915061314e82614062565b600782019050919050565b6000613166601683613885565b91506131718261408b565b602082019050919050565b6000613189601c83613885565b9150613194826140b4565b602082019050919050565b60006131ac601e83613885565b91506131b7826140dd565b602082019050919050565b60006131cf601883613885565b91506131da82614106565b602082019050919050565b6131ee81613bbd565b82525050565b6131fd81613bc7565b82525050565b600061320f8287612d3e565b600a8201915061321f8286612d3e565b600a8201915061322f8285612d18565b60148201915061323f8284612d55565b600f8201915081905095945050505050565b600061325d8284612d6c565b915081905092915050565b600061327382612f4c565b915061327f8284612e87565b915081905092915050565b600061329582612f6f565b91506132a18284612e87565b915081905092915050565b60006132b782613064565b91506132c38284612dd6565b915081905092915050565b60006132d982613136565b91506132e58284612dd6565b915081905092915050565b60006020820190506133056000830184612d09565b92915050565b600060a0820190506133206000830188612d09565b61332d6020830187612d09565b61333a6040830186612d09565b61334760608301856131e5565b61335460808301846131e5565b9695505050505050565b60006060820190506133736000830186612d09565b6133806020830185612d09565b61338d60408301846131e5565b949350505050565b60006080820190506133aa6000830187612d09565b6133b76020830186612d09565b6133c460408301856131e5565b6133d160608301846131e5565b95945050505050565b60006040820190506133ef6000830185612d09565b6133fc60208301846131e5565b9392505050565b60006020820190506134186000830184612d2f565b92915050565b600060208201905081810360008301526134388184612d9d565b905092915050565b600061016082019050818103600083015261345b818e612d9d565b9050818103602083015261346f818d612d9d565b905061347e604083018c612d09565b61348b606083018b612d09565b613498608083018a6131e5565b6134a560a08301896131e5565b6134b260c08301886131e5565b6134bf60e08301876131e5565b6134cd6101008301866131e5565b6134db610120830185612d09565b6134e96101408301846131e5565b9c9b505050505050505050505050565b6000610140820190508181036000830152613514818d612e07565b90508181036020830152613528818c612e07565b9050613537604083018b612d09565b613544606083018a6131e5565b61355160808301896131e5565b61355e60a08301886131e5565b61356b60c08301876131e5565b61357860e08301866131e5565b613586610100830185612d09565b6135946101208301846131e5565b9b9a5050505050505050505050565b600060208201905081810360008301526135bc81612f06565b9050919050565b600060208201905081810360008301526135dc81612f29565b9050919050565b600060208201905081810360008301526135fc81612f92565b9050919050565b6000602082019050818103600083015261361c81612fb5565b9050919050565b6000602082019050818103600083015261363c81612fd8565b9050919050565b6000602082019050818103600083015261365c81612ffb565b9050919050565b6000602082019050818103600083015261367c8161301e565b9050919050565b6000602082019050818103600083015261369c81613041565b9050919050565b600060208201905081810360008301526136bc81613087565b9050919050565b600060208201905081810360008301526136dc816130aa565b9050919050565b600060208201905081810360008301526136fc816130cd565b9050919050565b6000602082019050818103600083015261371c816130f0565b9050919050565b6000602082019050818103600083015261373c81613113565b9050919050565b6000602082019050818103600083015261375c81613159565b9050919050565b6000602082019050818103600083015261377c8161317c565b9050919050565b6000602082019050818103600083015261379c8161319f565b9050919050565b600060208201905081810360008301526137bc816131c2565b9050919050565b60006020820190506137d860008301846131e5565b92915050565b60006020820190506137f360008301846131f4565b92915050565b6000613803613814565b905061380f8282613c48565b919050565b6000604051905090565b600067ffffffffffffffff82111561383957613838613d3e565b5b61384282613d81565b9050602081019050919050565b60008190508160005260206000209050919050565b600081519050919050565b600081519050919050565b600081905092915050565b600082825260208201905092915050565b600081905092915050565b60006138ac82613bbd565b91506138b783613bbd565b9250827fffffffffffffffffffffffffffffffffffffffffffffffffffffffffffffffff038211156138ec576138eb613cb1565b5b828201905092915050565b600061390282613bbd565b915061390d83613bbd565b92508261391d5761391c613ce0565b5b828204905092915050565b6000808291508390505b60018511156139725780860481111561394e5761394d613cb1565b5b600185161561395d5780820291505b808102905061396b85613d9f565b9450613932565b94509492505050565b600061398682613bbd565b915061399183613bbd565b92506139be7fffffffffffffffffffffffffffffffffffffffffffffffffffffffffffffffff84846139c6565b905092915050565b6000826139d65760019050613a92565b816139e45760009050613a92565b81600181146139fa5760028114613a0457613a33565b6001915050613a92565b60ff841115613a1657613a15613cb1565b5b8360020a915084821115613a2d57613a2c613cb1565b5b50613a92565b5060208310610133831016604e8410600b8410161715613a685782820a905083811115613a6357613a62613cb1565b5b613a92565b613a758484846001613928565b92509050818404811115613a8c57613a8b613cb1565b5b81810290505b9392505050565b6000613aa482613bbd565b9150613aaf83613bbd565b9250817fffffffffffffffffffffffffffffffffffffffffffffffffffffffffffffffff0483118215151615613ae857613ae7613cb1565b5b828202905092915050565b6000613afe82613bbd565b9150613b0983613bbd565b925082821015613b1c57613b1b613cb1565b5b828203905092915050565b6000613b3282613b9d565b9050919050565b60008115159050919050565b60007fffffffffffffffffffff0000000000000000000000000000000000000000000082169050919050565b60007fffffffffffffffffffffffffffffff000000000000000000000000000000000082169050919050565b600073ffffffffffffffffffffffffffffffffffffffff82169050919050565b6000819050919050565b600060ff82169050919050565b82818337600083830152505050565b60005b83811015613c01578082015181840152602081019050613be6565b83811115613c10576000848401525b50505050565b60006002820490506001821680613c2e57607f821691505b60208210811415613c4257613c41613d0f565b5b50919050565b613c5182613d81565b810181811067ffffffffffffffff82111715613c7057613c6f613d3e565b5b80604052505050565b6000613c8482613c9f565b9050919050565b6000819050919050565b6000819050919050565b6000613caa82613d92565b9050919050565b7f4e487b7100000000000000000000000000000000000000000000000000000000600052601160045260246000fd5b7f4e487b7100000000000000000000000000000000000000000000000000000000600052601260045260246000fd5b7f4e487b7100000000000000000000000000000000000000000000000000000000600052602260045260246000fd5b7f4e487b7100000000000000000000000000000000000000000000000000000000600052604160045260246000fd5b600080fd5b600080fd5b600080fd5b600080fd5b6000601f19601f8301169050919050565b60008160601b9050919050565b60008160011c9050919050565b7f6465616c20686173206265656e20637265617465640000000000000000000000600082015250565b7f63616e206f6e6c7920696e697469616c697a65206f6e63650000000000000000600082015250565b7f61654465616c2d00000000000000000000000000000000000000000000000000600082015250565b7f6165442d00000000000000000000000000000000000000000000000000000000600082015250565b7f62616c616e63652063616e74206265206e656761746976650000000000000000600082015250565b7f6e6f20707572636861736520746f6b656e7320696e2074686520636f6e74726160008201527f6374000000000000000000000000000000000000000000000000000000000000602082015250565b7f6e6f7420656e6f7567682066756e647320617661696c00000000000000000000600082015250565b7f65786365656473206d61782073706f6e736f7220666565000000000000000000600082015250565b7f6d617820312079656172206475726174696f6e00000000000000000000000000600082015250565b7f6f6e6c792073706f6e736f722063616e20616363657373000000000000000000600082015250565b7f6165502d00000000000000000000000000000000000000000000000000000000600082015250565b7f6d696e203330206d696e75746573207075726368617365206578706972790000600082015250565b7f7468652063617020686173206265656e20726561636865640000000000000000600082015250565b7f6e6f742079657420776974686472617720706572696f64000000000000000000600082015250565b7f616363657074696e67206d6f7265207468616e206465616c2073686172650000600082015250565b7f6465616c206e6f74207965742063726561746564000000000000000000000000600082015250565b7f6165506f6f6c2d00000000000000000000000000000000000000000000000000600082015250565b7f6e6f7420696e2070757263686173652077696e646f7700000000000000000000600082015250565b7f3330206d696e73206973206d696e2072656465656d20706572696f6400000000600082015250565b7f6f6e6c79206675747572652073706f6e736f722063616e206163636573730000600082015250565b7f6f757473696465206f662072656465656d2077696e646f770000000000000000600082015250565b61413881613b27565b811461414357600080fd5b50565b61414f81613b39565b811461415a57600080fd5b50565b61416681613bbd565b811461417157600080fd5b50565b61417d81613bc7565b811461418857600080fd5b5056fea264697066735822122044d5fe08497d11cd88dcae2fefac65bbc06c9b1c7716f8ae0a9251c52dc1dc2d64736f6c63430008060033",
  "linkReferences": {},
  "deployedLinkReferences": {}
}