{
  "_format": "hh-sol-artifact-1",
  "contractName": "AelinPool",
  "sourceName": "contracts/AelinPool.sol",
  "abi": [
    {
      "inputs": [],
      "stateMutability": "nonpayable",
      "type": "constructor"
    },
    {
      "anonymous": false,
      "inputs": [
        {
          "indexed": true,
          "internalType": "address",
          "name": "purchaser",
          "type": "address"
        },
        {
          "indexed": true,
          "internalType": "address",
          "name": "poolAddress",
          "type": "address"
        },
        {
          "indexed": true,
          "internalType": "address",
          "name": "dealAddress",
          "type": "address"
        },
        {
          "indexed": false,
          "internalType": "uint256",
          "name": "poolTokenAmount",
          "type": "uint256"
        },
        {
          "indexed": false,
          "internalType": "uint256",
          "name": "underlyingToHolderAmt",
          "type": "uint256"
        }
      ],
      "name": "AcceptDeal",
      "type": "event"
    },
    {
      "anonymous": false,
      "inputs": [
        {
          "indexed": true,
          "internalType": "address",
          "name": "owner",
          "type": "address"
        },
        {
          "indexed": true,
          "internalType": "address",
          "name": "spender",
          "type": "address"
        },
        {
          "indexed": false,
          "internalType": "uint256",
          "name": "amount",
          "type": "uint256"
        }
      ],
      "name": "Approval",
      "type": "event"
    },
    {
      "anonymous": false,
      "inputs": [
        {
          "indexed": false,
          "internalType": "string",
          "name": "name",
          "type": "string"
        },
        {
          "indexed": false,
          "internalType": "string",
          "name": "symbol",
          "type": "string"
        },
        {
          "indexed": true,
          "internalType": "address",
          "name": "sponsor",
          "type": "address"
        },
        {
          "indexed": true,
          "internalType": "address",
          "name": "poolAddress",
          "type": "address"
        },
        {
          "indexed": true,
          "internalType": "address",
          "name": "dealContract",
          "type": "address"
        }
      ],
      "name": "CreateDeal",
      "type": "event"
    },
    {
      "anonymous": false,
      "inputs": [
        {
          "indexed": true,
          "internalType": "address",
          "name": "dealContract",
          "type": "address"
        },
        {
          "indexed": true,
          "internalType": "address",
          "name": "underlyingDealToken",
          "type": "address"
        },
        {
          "indexed": false,
          "internalType": "uint256",
          "name": "dealPurchaseTokenTotal",
          "type": "uint256"
        },
        {
          "indexed": false,
          "internalType": "uint256",
          "name": "underlyingDealTokenTotal",
          "type": "uint256"
        },
        {
          "indexed": false,
          "internalType": "uint256",
          "name": "vestingPeriod",
          "type": "uint256"
        },
        {
          "indexed": false,
          "internalType": "uint256",
          "name": "vestingCliff",
          "type": "uint256"
        },
        {
          "indexed": false,
          "internalType": "uint256",
          "name": "proRataRedemptionPeriod",
          "type": "uint256"
        },
        {
          "indexed": false,
          "internalType": "uint256",
          "name": "openRedemptionPeriod",
          "type": "uint256"
        },
        {
          "indexed": true,
          "internalType": "address",
          "name": "holder",
          "type": "address"
        }
      ],
      "name": "DealDetails",
      "type": "event"
    },
    {
      "anonymous": false,
      "inputs": [
        {
          "indexed": true,
          "internalType": "address",
          "name": "recipient",
          "type": "address"
        },
        {
          "indexed": true,
          "internalType": "address",
          "name": "purchaser",
          "type": "address"
        },
        {
          "indexed": true,
          "internalType": "address",
          "name": "poolAddress",
          "type": "address"
        },
        {
          "indexed": false,
          "internalType": "uint256",
          "name": "purchaseTokenAmount",
          "type": "uint256"
        },
        {
          "indexed": false,
          "internalType": "uint256",
          "name": "poolTokenAmount",
          "type": "uint256"
        }
      ],
      "name": "PurchasePoolToken",
      "type": "event"
    },
    {
      "anonymous": false,
      "inputs": [
        {
          "indexed": true,
          "internalType": "address",
          "name": "sponsor",
          "type": "address"
        }
      ],
      "name": "SetSponsor",
      "type": "event"
    },
    {
      "anonymous": false,
      "inputs": [
        {
          "indexed": true,
          "internalType": "address",
          "name": "from",
          "type": "address"
        },
        {
          "indexed": true,
          "internalType": "address",
          "name": "to",
          "type": "address"
        },
        {
          "indexed": false,
          "internalType": "uint256",
          "name": "amount",
          "type": "uint256"
        }
      ],
      "name": "Transfer",
      "type": "event"
    },
    {
      "anonymous": false,
      "inputs": [
        {
          "indexed": true,
          "internalType": "address",
          "name": "purchaser",
          "type": "address"
        },
        {
          "indexed": true,
          "internalType": "address",
          "name": "poolAddress",
          "type": "address"
        },
        {
          "indexed": false,
          "internalType": "uint256",
          "name": "purchaseTokenAmount",
          "type": "uint256"
        },
        {
          "indexed": false,
          "internalType": "uint256",
          "name": "poolTokenAmount",
          "type": "uint256"
        }
      ],
      "name": "WithdrawFromPool",
      "type": "event"
    },
    {
      "inputs": [],
      "name": "AELIN_DEAL_STORAGE_PROXY",
      "outputs": [
        {
          "internalType": "address",
          "name": "",
          "type": "address"
        }
      ],
      "stateMutability": "view",
      "type": "function"
    },
    {
      "inputs": [],
      "name": "CALLED_INITIALIZE",
      "outputs": [
        {
          "internalType": "bool",
          "name": "",
          "type": "bool"
        }
      ],
      "stateMutability": "view",
      "type": "function"
    },
    {
      "inputs": [
        {
          "internalType": "address",
          "name": "",
          "type": "address"
        }
      ],
      "name": "DEAL_AMT_ALLOCATED",
      "outputs": [
        {
          "internalType": "uint256",
          "name": "",
          "type": "uint256"
        }
      ],
      "stateMutability": "view",
      "type": "function"
    },
    {
      "inputs": [],
      "name": "DEAL_CREATED",
      "outputs": [
        {
          "internalType": "bool",
          "name": "",
          "type": "bool"
        }
      ],
      "stateMutability": "view",
      "type": "function"
    },
    {
      "inputs": [],
      "name": "FUTURE_SPONSOR",
      "outputs": [
        {
          "internalType": "address",
          "name": "",
          "type": "address"
        }
      ],
      "stateMutability": "view",
      "type": "function"
    },
    {
      "inputs": [],
      "name": "HOLDER",
      "outputs": [
        {
          "internalType": "address",
          "name": "",
          "type": "address"
        }
      ],
      "stateMutability": "view",
      "type": "function"
    },
    {
      "inputs": [
        {
          "internalType": "address",
          "name": "",
          "type": "address"
        }
      ],
      "name": "OPEN_PERIOD_ELIGIBLE",
      "outputs": [
        {
          "internalType": "bool",
          "name": "",
          "type": "bool"
        }
      ],
      "stateMutability": "view",
      "type": "function"
    },
    {
      "inputs": [],
      "name": "POOL_EXPIRY",
      "outputs": [
        {
          "internalType": "uint256",
          "name": "",
          "type": "uint256"
        }
      ],
      "stateMutability": "view",
      "type": "function"
    },
    {
      "inputs": [],
      "name": "PRO_RATA_CONVERSION",
      "outputs": [
        {
          "internalType": "uint256",
          "name": "",
          "type": "uint256"
        }
      ],
      "stateMutability": "view",
      "type": "function"
    },
    {
      "inputs": [],
      "name": "PURCHASE_EXPIRY",
      "outputs": [
        {
          "internalType": "uint256",
          "name": "",
          "type": "uint256"
        }
      ],
      "stateMutability": "view",
      "type": "function"
    },
    {
      "inputs": [],
      "name": "PURCHASE_TOKEN",
      "outputs": [
        {
          "internalType": "address",
          "name": "",
          "type": "address"
        }
      ],
      "stateMutability": "view",
      "type": "function"
    },
    {
      "inputs": [],
      "name": "PURCHASE_TOKEN_CAP",
      "outputs": [
        {
          "internalType": "uint256",
          "name": "",
          "type": "uint256"
        }
      ],
      "stateMutability": "view",
      "type": "function"
    },
    {
      "inputs": [],
      "name": "PURCHASE_TOKEN_DECIMALS",
      "outputs": [
        {
          "internalType": "uint256",
          "name": "",
          "type": "uint256"
        }
      ],
      "stateMutability": "view",
      "type": "function"
    },
    {
      "inputs": [],
      "name": "SPONSOR",
      "outputs": [
        {
          "internalType": "address",
          "name": "",
          "type": "address"
        }
      ],
      "stateMutability": "view",
      "type": "function"
    },
    {
      "inputs": [],
      "name": "SPONSOR_FEE",
      "outputs": [
        {
          "internalType": "uint256",
          "name": "",
          "type": "uint256"
        }
      ],
      "stateMutability": "view",
      "type": "function"
    },
    {
      "inputs": [
        {
          "internalType": "uint256",
          "name": "pool_token_amount",
          "type": "uint256"
        }
      ],
      "name": "acceptDealTokens",
      "outputs": [],
      "stateMutability": "nonpayable",
      "type": "function"
    },
    {
      "inputs": [
        {
          "internalType": "address",
          "name": "recipient",
          "type": "address"
        },
        {
          "internalType": "uint256",
          "name": "pool_token_amount",
          "type": "uint256"
        }
      ],
      "name": "acceptDealTokensAndAllocate",
      "outputs": [],
      "stateMutability": "nonpayable",
      "type": "function"
    },
    {
      "inputs": [],
      "name": "acceptMaxDealTokens",
      "outputs": [],
      "stateMutability": "nonpayable",
      "type": "function"
    },
    {
      "inputs": [
        {
          "internalType": "address",
          "name": "recipient",
          "type": "address"
        }
      ],
      "name": "acceptMaxDealTokensAndAllocate",
      "outputs": [],
      "stateMutability": "nonpayable",
      "type": "function"
    },
    {
      "inputs": [],
      "name": "acceptSponsor",
      "outputs": [],
      "stateMutability": "nonpayable",
      "type": "function"
    },
    {
      "inputs": [
        {
          "internalType": "address",
          "name": "",
          "type": "address"
        },
        {
          "internalType": "address",
          "name": "",
          "type": "address"
        }
      ],
      "name": "allowance",
      "outputs": [
        {
          "internalType": "uint256",
          "name": "",
          "type": "uint256"
        }
      ],
      "stateMutability": "view",
      "type": "function"
    },
    {
      "inputs": [
        {
          "internalType": "address",
          "name": "spender",
          "type": "address"
        },
        {
          "internalType": "uint256",
          "name": "amount",
          "type": "uint256"
        }
      ],
      "name": "approve",
      "outputs": [
        {
          "internalType": "bool",
          "name": "",
          "type": "bool"
        }
      ],
      "stateMutability": "nonpayable",
      "type": "function"
    },
    {
      "inputs": [
        {
          "internalType": "address",
          "name": "",
          "type": "address"
        }
      ],
      "name": "balanceOf",
      "outputs": [
        {
          "internalType": "uint256",
          "name": "",
          "type": "uint256"
        }
      ],
      "stateMutability": "view",
      "type": "function"
    },
    {
      "inputs": [
        {
          "internalType": "address",
          "name": "_underlying_deal_token",
          "type": "address"
        },
        {
          "internalType": "uint256",
          "name": "_deal_purchase_token_total",
          "type": "uint256"
        },
        {
          "internalType": "uint256",
          "name": "_underlying_deal_token_total",
          "type": "uint256"
        },
        {
          "internalType": "uint256",
          "name": "_vesting_period",
          "type": "uint256"
        },
        {
          "internalType": "uint256",
          "name": "_vesting_cliff",
          "type": "uint256"
        },
        {
          "internalType": "uint256",
          "name": "_pro_rata_redemption_period",
          "type": "uint256"
        },
        {
          "internalType": "uint256",
          "name": "_open_redemption_period",
          "type": "uint256"
        },
        {
          "internalType": "address",
          "name": "_holder",
          "type": "address"
        }
      ],
      "name": "createDeal",
      "outputs": [
        {
          "internalType": "address",
          "name": "",
          "type": "address"
        }
      ],
      "stateMutability": "nonpayable",
      "type": "function"
    },
    {
      "inputs": [],
      "name": "decimals",
      "outputs": [
        {
          "internalType": "uint8",
          "name": "",
          "type": "uint8"
        }
      ],
      "stateMutability": "view",
      "type": "function"
    },
    {
      "inputs": [
        {
          "internalType": "string",
          "name": "_name",
          "type": "string"
        },
        {
          "internalType": "string",
          "name": "_symbol",
          "type": "string"
        },
        {
          "internalType": "uint256",
          "name": "_purchase_token_cap",
          "type": "uint256"
        },
        {
          "internalType": "address",
          "name": "_purchase_token",
          "type": "address"
        },
        {
          "internalType": "uint256",
          "name": "_duration",
          "type": "uint256"
        },
        {
          "internalType": "uint256",
          "name": "_sponsor_fee",
          "type": "uint256"
        },
        {
          "internalType": "address",
          "name": "_sponsor",
          "type": "address"
        },
        {
          "internalType": "uint256",
          "name": "_purchase_expiry",
          "type": "uint256"
        }
      ],
      "name": "initialize",
      "outputs": [],
      "stateMutability": "nonpayable",
      "type": "function"
    },
    {
      "inputs": [
        {
          "internalType": "address",
          "name": "purchaser",
          "type": "address"
        }
      ],
      "name": "maxDealAccept",
      "outputs": [
        {
          "internalType": "uint256",
          "name": "",
          "type": "uint256"
        }
      ],
      "stateMutability": "view",
      "type": "function"
    },
    {
      "inputs": [],
      "name": "maxPoolPurchase",
      "outputs": [
        {
          "internalType": "uint256",
          "name": "",
          "type": "uint256"
        }
      ],
      "stateMutability": "view",
      "type": "function"
    },
    {
      "inputs": [
        {
          "internalType": "address",
          "name": "purchaser",
          "type": "address"
        }
      ],
      "name": "maxProRataAvail",
      "outputs": [
        {
          "internalType": "uint256",
          "name": "",
          "type": "uint256"
        }
      ],
      "stateMutability": "view",
      "type": "function"
    },
    {
      "inputs": [],
      "name": "name",
      "outputs": [
        {
          "internalType": "string",
          "name": "",
          "type": "string"
        }
      ],
      "stateMutability": "view",
      "type": "function"
    },
    {
      "inputs": [
        {
          "internalType": "uint256",
          "name": "purchase_token_amount",
          "type": "uint256"
        }
      ],
      "name": "purchasePoolTokens",
      "outputs": [],
      "stateMutability": "nonpayable",
      "type": "function"
    },
    {
      "inputs": [
        {
          "internalType": "address",
          "name": "recipient",
          "type": "address"
        },
        {
          "internalType": "uint256",
          "name": "purchase_token_amount",
          "type": "uint256"
        }
      ],
      "name": "purchasePoolTokensAndAllocate",
      "outputs": [],
      "stateMutability": "nonpayable",
      "type": "function"
    },
    {
      "inputs": [
        {
          "internalType": "address",
          "name": "_sponsor",
          "type": "address"
        }
      ],
      "name": "setSponsor",
      "outputs": [],
      "stateMutability": "nonpayable",
      "type": "function"
    },
    {
      "inputs": [],
      "name": "symbol",
      "outputs": [
        {
          "internalType": "string",
          "name": "",
          "type": "string"
        }
      ],
      "stateMutability": "view",
      "type": "function"
    },
    {
      "inputs": [],
      "name": "totalSupply",
      "outputs": [
        {
          "internalType": "uint256",
          "name": "",
          "type": "uint256"
        }
      ],
      "stateMutability": "view",
      "type": "function"
    },
    {
      "inputs": [
        {
          "internalType": "address",
          "name": "dst",
          "type": "address"
        },
        {
          "internalType": "uint256",
          "name": "amount",
          "type": "uint256"
        }
      ],
      "name": "transfer",
      "outputs": [
        {
          "internalType": "bool",
          "name": "",
          "type": "bool"
        }
      ],
      "stateMutability": "nonpayable",
      "type": "function"
    },
    {
      "inputs": [
        {
          "internalType": "address",
          "name": "src",
          "type": "address"
        },
        {
          "internalType": "address",
          "name": "dst",
          "type": "address"
        },
        {
          "internalType": "uint256",
          "name": "amount",
          "type": "uint256"
        }
      ],
      "name": "transferFrom",
      "outputs": [
        {
          "internalType": "bool",
          "name": "",
          "type": "bool"
        }
      ],
      "stateMutability": "nonpayable",
      "type": "function"
    },
    {
      "inputs": [
        {
          "internalType": "uint256",
          "name": "pool_token_amount",
          "type": "uint256"
        }
      ],
      "name": "withdrawFromPool",
      "outputs": [],
      "stateMutability": "nonpayable",
      "type": "function"
    },
    {
      "inputs": [],
      "name": "withdrawMaxFromPool",
      "outputs": [],
      "stateMutability": "nonpayable",
      "type": "function"
    }
  ],
  "bytecode": "0x60806040526000600260006101000a81548160ff02191690831515021790555060006003556000600f60006101000a81548160ff0219169083151502179055506000600f60016101000a81548160ff02191690831515021790555034801561006657600080fd5b50615a4e80620000776000396000f3fe608060405234801561001057600080fd5b506004361061023d5760003560e01c806370a082311161013b578063b5311b10116100b8578063dce3a5341161007c578063dce3a53414610686578063dd62ed3e146106a4578063e267f7d7146106d4578063e2ef784e146106f0578063e5baea55146107205761023d565b8063b5311b101461060a578063bc991ed614610626578063bdfba5a314610642578063c00be9fc14610672578063da6cedd71461067c5761023d565b80639d02f71a116100ff5780639d02f71a146105645780639e68fa3114610582578063a9059cbb146105a0578063b21cd9d9146105d0578063b2f4e915146105da5761023d565b806370a08231146104bc57806377410c5e146104ec578063818162881461050a578063852f85361461052857806395d89b41146105465761023d565b80632be529d8116101c957806354a950911161018d57806354a950911461042a5780635542165a1461044857806359753fb11461046657806367807b2214610482578063688d0c2c1461049e5761023d565b80632be529d81461039857806330fc43ed146103b6578063313ce567146103d2578063381d7109146103f05780633bee26fe1461040e5761023d565b806310923d881161021057806310923d88146102cc57806311ef9a2c146102fc57806318160ddd1461032c5780631d073a7a1461034a57806323b872dd146103685761023d565b806306fdde0314610242578063088b32f414610260578063095ea7b31461027e5780630f9465e4146102ae575b600080fd5b61024a61073c565b6040516102579190614b16565b60405180910390f35b6102686107ca565b6040516102759190614f17565b60405180910390f35b610298600480360381019061029391906141bb565b6107d0565b6040516102a59190614afb565b60405180910390f35b6102b66108c2565b6040516102c39190614a80565b60405180910390f35b6102e660048036038101906102e191906140fb565b6108e8565b6040516102f39190614f17565b60405180910390f35b610316600480360381019061031191906140fb565b610bd0565b6040516103239190614f17565b60405180910390f35b6103346113ea565b6040516103419190614f17565b60405180910390f35b6103526113f0565b60405161035f9190614a80565b60405180910390f35b610382600480360381019061037d9190614168565b611416565b60405161038f9190614afb565b60405180910390f35b6103a061160e565b6040516103ad9190614a80565b60405180910390f35b6103d060048036038101906103cb91906143cc565b611634565b005b6103da611640565b6040516103e79190614fbc565b60405180910390f35b6103f8611645565b6040516104059190614f17565b60405180910390f35b610428600480360381019061042391906143cc565b61164b565b005b61043261165b565b60405161043f9190614f17565b60405180910390f35b610450611661565b60405161045d9190614afb565b60405180910390f35b610480600480360381019061047b91906140fb565b611674565b005b61049c600480360381019061049791906140fb565b611748565b005b6104a6611759565b6040516104b39190614afb565b60405180910390f35b6104d660048036038101906104d191906140fb565b61176c565b6040516104e39190614f17565b60405180910390f35b6104f4611784565b6040516105019190614f17565b60405180910390f35b61051261178a565b60405161051f9190614a80565b60405180910390f35b6105306117b0565b60405161053d9190614f17565b60405180910390f35b61054e6117b6565b60405161055b9190614b16565b60405180910390f35b61056c611844565b6040516105799190614a80565b60405180910390f35b61058a61186a565b6040516105979190614f17565b60405180910390f35b6105ba60048036038101906105b591906141bb565b611870565b6040516105c79190614afb565b60405180910390f35b6105d8611887565b005b6105f460048036038101906105ef91906140fb565b6118d1565b6040516106019190614afb565b60405180910390f35b610624600480360381019061061f91906141bb565b6118f1565b005b610640600480360381019061063b91906142de565b6118ff565b005b61065c600480360381019061065791906141fb565b611c41565b6040516106699190614a80565b60405180910390f35b61067a6121de565b005b610684612338565b005b61068e612349565b60405161069b9190614f17565b60405180910390f35b6106be60048036038101906106b99190614128565b61246e565b6040516106cb9190614f17565b60405180910390f35b6106ee60048036038101906106e991906141bb565b612493565b005b61070a600480360381019061070591906140fb565b6124a5565b6040516107179190614f17565b60405180910390f35b61073a600480360381019061073591906143cc565b6124bd565b005b60008054610749906153f4565b80601f0160208091040260200160405190810160405280929190818152602001828054610775906153f4565b80156107c25780601f10610797576101008083540402835291602001916107c2565b820191906000526020600020905b8154815290600101906020018083116107a557829003601f168201915b505050505081565b60075481565b600081600460003373ffffffffffffffffffffffffffffffffffffffff1673ffffffffffffffffffffffffffffffffffffffff16815260200190815260200160002060008573ffffffffffffffffffffffffffffffffffffffff1673ffffffffffffffffffffffffffffffffffffffff168152602001908152602001600020819055508273ffffffffffffffffffffffffffffffffffffffff163373ffffffffffffffffffffffffffffffffffffffff167f8c5be1e5ebec7d5bd14f71427d1e84f3dd0314c0f7b2291e5b200ac8c7c3b925846040516108b09190614f17565b60405180910390a36001905092915050565b600660009054906101000a900473ffffffffffffffffffffffffffffffffffffffff1681565b600080600f60029054906101000a900473ffffffffffffffffffffffffffffffffffffffff16905060001515600f60019054906101000a900460ff1615151480610a3757508073ffffffffffffffffffffffffffffffffffffffff16639c6cb4a66040518163ffffffff1660e01b815260040160206040518083038186803b15801561097357600080fd5b505afa158015610987573d6000803e3d6000fd5b505050506040513d601f19601f820116820180604052508101906109ab91906143f9565b42118015610a36575060008173ffffffffffffffffffffffffffffffffffffffff166396069fb56040518163ffffffff1660e01b815260040160206040518083038186803b1580156109fc57600080fd5b505afa158015610a10573d6000803e3d6000fd5b505050506040513d601f19601f82011682018060405250810190610a3491906143f9565b145b5b80610abe57508073ffffffffffffffffffffffffffffffffffffffff16639c6cb4a66040518163ffffffff1660e01b815260040160206040518083038186803b158015610a8357600080fd5b505afa158015610a97573d6000803e3d6000fd5b505050506040513d601f19601f82011682018060405250810190610abb91906143f9565b42115b15610acd576000915050610bcb565b8073ffffffffffffffffffffffffffffffffffffffff1663d08c275c6040518163ffffffff1660e01b815260040160206040518083038186803b158015610b1357600080fd5b505afa158015610b27573d6000803e3d6000fd5b505050506040513d601f19601f82011682018060405250810190610b4b91906143f9565b421015610b6357610b5b83610bd0565b915050610bcb565b601160008473ffffffffffffffffffffffffffffffffffffffff1673ffffffffffffffffffffffffffffffffffffffff16815260200190815260200160002060009054906101000a900460ff16610bbe576000915050610bcb565b610bc7836124ca565b9150505b919050565b600080600f60029054906101000a900473ffffffffffffffffffffffffffffffffffffffff1690506000600560008573ffffffffffffffffffffffffffffffffffffffff1673ffffffffffffffffffffffffffffffffffffffff168152602001908152602001600020541480610c59575060001515600f60019054906101000a900460ff161515145b80610ce157508073ffffffffffffffffffffffffffffffffffffffff1663d08c275c6040518163ffffffff1660e01b815260040160206040518083038186803b158015610ca557600080fd5b505afa158015610cb9573d6000803e3d6000fd5b505050506040513d601f19601f82011682018060405250810190610cdd91906143f9565b4210155b15610cf05760009150506113e5565b610d2e6040518060400160405280600f81526020017f6d617850726f52617461417661696c0000000000000000000000000000000000815250612792565b610d6f6040518060400160405280601381526020017f50524f5f524154415f434f4e56455253494f4e0000000000000000000000000081525060095461282b565b610dae6040518060400160405280600981526020017f7075726368617365720000000000000000000000000000000000000000000000815250846128c7565b610e2c6040518060400160405280601481526020017f62616c616e63654f665b7075726368617365725d000000000000000000000000815250600560008673ffffffffffffffffffffffffffffffffffffffff1673ffffffffffffffffffffffffffffffffffffffff1681526020019081526020016000205461282b565b610eaa6040518060400160405280601d81526020017f4445414c5f414d545f414c4c4f43415445445b7075726368617365725d000000815250601260008673ffffffffffffffffffffffffffffffffffffffff1673ffffffffffffffffffffffffffffffffffffffff1681526020019081526020016000205461282b565b610f716040518060400160405280601f81526020017f41454c494e5f4445414c2e62616c616e63654f662870757263686173657229008152508273ffffffffffffffffffffffffffffffffffffffff166370a08231866040518263ffffffff1660e01b8152600401610f1c9190614a80565b60206040518083038186803b158015610f3457600080fd5b505afa158015610f48573d6000803e3d6000fd5b505050506040513d601f19601f82011682018060405250810190610f6c91906143f9565b61282b565b610ff26040518060600160405280603381526020016159c460339139670de0b6b3a7640000600560008773ffffffffffffffffffffffffffffffffffffffff1673ffffffffffffffffffffffffffffffffffffffff16815260200190815260200160002054600954610fe39190615277565b610fed91906150d5565b61282b565b6110306040518060400160405280601381526020017f656e64206d617850726f52617461417661696c00000000000000000000000000815250612792565b6000600a546107d0620186a061104691906152d1565b61105091906152d1565b620186a08373ffffffffffffffffffffffffffffffffffffffff166370a08231876040518263ffffffff1660e01b815260040161108d9190614a80565b60206040518083038186803b1580156110a557600080fd5b505afa1580156110b9573d6000803e3d6000fd5b505050506040513d601f19601f820116820180604052508101906110dd91906143f9565b6110e79190615277565b6110f191906150d5565b90506111326040518060400160405280600f81526020017f6869676865725f626173653a20257300000000000000000000000000000000008152508261282b565b6000601260008673ffffffffffffffffffffffffffffffffffffffff1673ffffffffffffffffffffffffffffffffffffffff16815260200190815260200160002054600a546107d0620186a061118891906152d1565b61119291906152d1565b620186a08573ffffffffffffffffffffffffffffffffffffffff166370a08231896040518263ffffffff1660e01b81526004016111cf9190614a80565b60206040518083038186803b1580156111e757600080fd5b505afa1580156111fb573d6000803e3d6000fd5b505050506040513d601f19601f8201168201806040525081019061121f91906143f9565b6112299190615277565b61123391906150d5565b61123d91906152d1565b90506112816040518060600160405280602e8152602001615996602e9139670de0b6b3a7640000836009546112729190615277565b61127c91906150d5565b61282b565b61132a6040518060400160405280600d81526020017f73756d6d6174696f6e3a20257300000000000000000000000000000000000000815250670de0b6b3a764000083600560008a73ffffffffffffffffffffffffffffffffffffffff1673ffffffffffffffffffffffffffffffffffffffff1681526020019081526020016000205461130e919061507f565b60095461131b9190615277565b61132591906150d5565b61282b565b6113696040518060400160405280601381526020017f616d6f756e745f61636365707465643a202573000000000000000000000000008152508261282b565b80670de0b6b3a764000082600560008973ffffffffffffffffffffffffffffffffffffffff1673ffffffffffffffffffffffffffffffffffffffff168152602001908152602001600020546113be919061507f565b6009546113cb9190615277565b6113d591906150d5565b6113df91906152d1565b93505050505b919050565b60035481565b600b60009054906101000a900473ffffffffffffffffffffffffffffffffffffffff1681565b6000803390506000600460008773ffffffffffffffffffffffffffffffffffffffff1673ffffffffffffffffffffffffffffffffffffffff16815260200190815260200160002060008373ffffffffffffffffffffffffffffffffffffffff1673ffffffffffffffffffffffffffffffffffffffff1681526020019081526020016000205490508573ffffffffffffffffffffffffffffffffffffffff168273ffffffffffffffffffffffffffffffffffffffff16141580156114f957507fffffffffffffffffffffffffffffffffffffffffffffffffffffffffffffffff8114155b156115f6576000848261150c91906152d1565b905080600460008973ffffffffffffffffffffffffffffffffffffffff1673ffffffffffffffffffffffffffffffffffffffff16815260200190815260200160002060008573ffffffffffffffffffffffffffffffffffffffff1673ffffffffffffffffffffffffffffffffffffffff168152602001908152602001600020819055508273ffffffffffffffffffffffffffffffffffffffff168773ffffffffffffffffffffffffffffffffffffffff167f8c5be1e5ebec7d5bd14f71427d1e84f3dd0314c0f7b2291e5b200ac8c7c3b925836040516115ec9190614f17565b60405180910390a3505b611601868686612963565b6001925050509392505050565b601060009054906101000a900473ffffffffffffffffffffffffffffffffffffffff1681565b61163d81612afc565b50565b601281565b600a5481565b6116583382600080612bf2565b50565b60085481565b600f60019054906101000a900460ff1681565b600b60009054906101000a900473ffffffffffffffffffffffffffffffffffffffff1673ffffffffffffffffffffffffffffffffffffffff163373ffffffffffffffffffffffffffffffffffffffff1614611704576040517f08c379a00000000000000000000000000000000000000000000000000000000081526004016116fb90614d97565b60405180910390fd5b80600c60006101000a81548173ffffffffffffffffffffffffffffffffffffffff021916908373ffffffffffffffffffffffffffffffffffffffff16021790555050565b611756816000600180612bf2565b50565b600f60009054906101000a900460ff1681565b60056020528060005260406000206000915090505481565b600d5481565b600f60029054906101000a900473ffffffffffffffffffffffffffffffffffffffff1681565b600e5481565b600180546117c3906153f4565b80601f01602080910402602001604051908101604052809291908181526020018280546117ef906153f4565b801561183c5780601f106118115761010080835404028352916020019161183c565b820191906000526020600020905b81548152906001019060200180831161181f57829003601f168201915b505050505081565b600c60009054906101000a900473ffffffffffffffffffffffffffffffffffffffff1681565b60095481565b600061187d338484612963565b6001905092915050565b6118cf600560003373ffffffffffffffffffffffffffffffffffffffff1673ffffffffffffffffffffffffffffffffffffffff16815260200190815260200160002054612afc565b565b60116020528060005260406000206000915054906101000a900460ff1681565b6118fb8282612ef0565b5050565b60001515600f60009054906101000a900460ff16151514611955576040517f08c379a000000000000000000000000000000000000000000000000000000000815260040161194c90614cd7565b60405180910390fd5b876013908051906020019061196b929190613f7f565b508660149080519060200190611982929190613f7f565b506119cb886040516020016119979190614a5e565b604051602081830303815290604052886040516020016119b79190614a3c565b604051602081830303815290604052613277565b508560078190555084600660006101000a81548173ffffffffffffffffffffffffffffffffffffffff021916908373ffffffffffffffffffffffffffffffffffffffff1602179055508473ffffffffffffffffffffffffffffffffffffffff1663313ce5676040518163ffffffff1660e01b815260040160206040518083038186803b158015611a5a57600080fd5b505afa158015611a6e573d6000803e3d6000fd5b505050506040513d601f19601f82011682018060405250810190611a929190614426565b60ff16600881905550836301e133801015611ae2576040517f08c379a0000000000000000000000000000000000000000000000000000000008152600401611ad990614d77565b60405180910390fd5b8342611aee919061507f565b600e81905550806107081115611b39576040517f08c379a0000000000000000000000000000000000000000000000000000000008152600401611b3090614e17565b60405180910390fd5b8042611b45919061507f565b600d8190555062017ed0831115611b91576040517f08c379a0000000000000000000000000000000000000000000000000000000008152600401611b8890614d37565b60405180910390fd5b82600a8190555081600b60006101000a81548173ffffffffffffffffffffffffffffffffffffffff021916908373ffffffffffffffffffffffffffffffffffffffff1602179055506001600f60006101000a81548160ff0219169083151502179055508173ffffffffffffffffffffffffffffffffffffffff167f664990684c2a471ecd811b0746b52f569a208f58b796c699208ed71379bf3c2760405160405180910390a25050505050505050565b6000600b60009054906101000a900473ffffffffffffffffffffffffffffffffffffffff1673ffffffffffffffffffffffffffffffffffffffff163373ffffffffffffffffffffffffffffffffffffffff1614611cd3576040517f08c379a0000000000000000000000000000000000000000000000000000000008152600401611cca90614d97565b60405180910390fd5b60001515600f60019054906101000a900460ff16151514611d29576040517f08c379a0000000000000000000000000000000000000000000000000000000008152600401611d2090614cb7565b60405180910390fd5b836107081115611d6e576040517f08c379a0000000000000000000000000000000000000000000000000000000008152600401611d6590614df7565b60405180910390fd5b6000611d7c89600854613321565b9050600354811115611dc3576040517f08c379a0000000000000000000000000000000000000000000000000000000008152600401611dba90614ef7565b60405180910390fd5b600354670de0b6b3a764000082611dda9190615277565b611de491906150d5565b600981905550611e2b6040518060400160405280601781526020017f50524f5f524154415f434f4e56455253494f4e3a20257300000000000000000081525060095461282b565b670de0b6b3a76400006009541415611e855783600014611e80576040517f08c379a0000000000000000000000000000000000000000000000000000000008152600401611e7790614dd7565b60405180910390fd5b611ecb565b836107081115611eca576040517f08c379a0000000000000000000000000000000000000000000000000000000008152600401611ec190614db7565b60405180910390fd5b5b42600e8190555082601060006101000a81548173ffffffffffffffffffffffffffffffffffffffff021916908373ffffffffffffffffffffffffffffffffffffffff1602179055506001600f60016101000a81548160ff0219169083151502179055506000611f83739e641c7155d72ee9ef1f383b74117647aed3006a6040518060400160405280601981526020017f436f756c64206e6f7420637265617465206e6577206465616c0000000000000081525061334f565b90508073ffffffffffffffffffffffffffffffffffffffff1663206efe20601360148e8d8d8d8d8d8d8c6040518b63ffffffff1660e01b8152600401611fd29a99989796959493929190614c0d565b600060405180830381600087803b158015611fec57600080fd5b505af1158015612000573d6000803e3d6000fd5b5050505080600f60026101000a81548173ffffffffffffffffffffffffffffffffffffffff021916908373ffffffffffffffffffffffffffffffffffffffff1602179055508073ffffffffffffffffffffffffffffffffffffffff163073ffffffffffffffffffffffffffffffffffffffff16600b60009054906101000a900473ffffffffffffffffffffffffffffffffffffffff1673ffffffffffffffffffffffffffffffffffffffff167f53b17985dcbce8c567970982329774606251888834dbf73a6631f3da1eeba07e60136040516020016120df91906149f8565b60405160208183030381529060405260146040516020016121009190614a1a565b60405160208183030381529060405260405161211d929190614b68565b60405180910390a48373ffffffffffffffffffffffffffffffffffffffff168b73ffffffffffffffffffffffffffffffffffffffff168273ffffffffffffffffffffffffffffffffffffffff167f6edce1e026b76a2156993278b6d27c1581bdc4d6a2815f123ad519cec8be7e1a8d8d8d8d8d8d6040516121a396959493929190614f5b565b60405180910390a4600f60029054906101000a900473ffffffffffffffffffffffffffffffffffffffff169250505098975050505050505050565b600c60009054906101000a900473ffffffffffffffffffffffffffffffffffffffff1673ffffffffffffffffffffffffffffffffffffffff163373ffffffffffffffffffffffffffffffffffffffff161461226e576040517f08c379a000000000000000000000000000000000000000000000000000000000815260040161226590614eb7565b60405180910390fd5b600c60009054906101000a900473ffffffffffffffffffffffffffffffffffffffff16600b60006101000a81548173ffffffffffffffffffffffffffffffffffffffff021916908373ffffffffffffffffffffffffffffffffffffffff160217905550600c60009054906101000a900473ffffffffffffffffffffffffffffffffffffffff1673ffffffffffffffffffffffffffffffffffffffff167f664990684c2a471ecd811b0746b52f569a208f58b796c699208ed71379bf3c2760405160405180910390a2565b61234733600060016000612bf2565b565b600060011515600f60019054906101000a900460ff161515148061236f5750600d544210155b1561237d576000905061246b565b600060075414156123b0577fffffffffffffffffffffffffffffffffffffffffffffffffffffffffffffffff905061246b565b600660009054906101000a900473ffffffffffffffffffffffffffffffffffffffff1673ffffffffffffffffffffffffffffffffffffffff166370a08231306040518263ffffffff1660e01b815260040161240b9190614a80565b60206040518083038186803b15801561242357600080fd5b505afa158015612437573d6000803e3d6000fd5b505050506040513d601f19601f8201168201806040525081019061245b91906143f9565b60075461246891906152d1565b90505b90565b6004602052816000526040600020602052806000526040600020600091509150505481565b6124a1828260006001612bf2565b5050565b60126020528060005260406000206000915090505481565b6124c73382612ef0565b50565b600080600f60029054906101000a900473ffffffffffffffffffffffffffffffffffffffff1690508073ffffffffffffffffffffffffffffffffffffffff166333039d3d6040518163ffffffff1660e01b815260040160206040518083038186803b15801561253857600080fd5b505afa15801561254c573d6000803e3d6000fd5b505050506040513d601f19601f8201168201806040525081019061257091906143f9565b8173ffffffffffffffffffffffffffffffffffffffff166318160ddd6040518163ffffffff1660e01b815260040160206040518083038186803b1580156125b657600080fd5b505afa1580156125ca573d6000803e3d6000fd5b505050506040513d601f19601f820116820180604052508101906125ee91906143f9565b600560008673ffffffffffffffffffffffffffffffffffffffff1673ffffffffffffffffffffffffffffffffffffffff16815260200190815260200160002054612638919061507f565b1115612749578073ffffffffffffffffffffffffffffffffffffffff166318160ddd6040518163ffffffff1660e01b815260040160206040518083038186803b15801561268457600080fd5b505afa158015612698573d6000803e3d6000fd5b505050506040513d601f19601f820116820180604052508101906126bc91906143f9565b8173ffffffffffffffffffffffffffffffffffffffff166333039d3d6040518163ffffffff1660e01b815260040160206040518083038186803b15801561270257600080fd5b505afa158015612716573d6000803e3d6000fd5b505050506040513d601f19601f8201168201806040525081019061273a91906143f9565b61274491906152d1565b61278a565b600560008473ffffffffffffffffffffffffffffffffffffffff1673ffffffffffffffffffffffffffffffffffffffff168152602001908152602001600020545b915050919050565b612828816040516024016127a69190614b16565b6040516020818303038152906040527f41304fac000000000000000000000000000000000000000000000000000000007bffffffffffffffffffffffffffffffffffffffffffffffffffffffff19166020820180517bffffffffffffffffffffffffffffffffffffffffffffffffffffffff83818316178352505050506133e3565b50565b6128c38282604051602401612841929190614b9f565b6040516020818303038152906040527f9710a9d0000000000000000000000000000000000000000000000000000000007bffffffffffffffffffffffffffffffffffffffffffffffffffffffff19166020820180517bffffffffffffffffffffffffffffffffffffffffffffffffffffffff83818316178352505050506133e3565b5050565b61295f82826040516024016128dd929190614b38565b6040516020818303038152906040527f319af333000000000000000000000000000000000000000000000000000000007bffffffffffffffffffffffffffffffffffffffffffffffffffffffff19166020820180517bffffffffffffffffffffffffffffffffffffffffffffffffffffffff83818316178352505050506133e3565b5050565b80600560008573ffffffffffffffffffffffffffffffffffffffff1673ffffffffffffffffffffffffffffffffffffffff16815260200190815260200160002060008282546129b291906152d1565b9250508190555080600560008473ffffffffffffffffffffffffffffffffffffffff1673ffffffffffffffffffffffffffffffffffffffff1681526020019081526020016000206000828254612a08919061507f565b925050819055506000600560008573ffffffffffffffffffffffffffffffffffffffff1673ffffffffffffffffffffffffffffffffffffffff168152602001908152602001600020541015612a92576040517f08c379a0000000000000000000000000000000000000000000000000000000008152600401612a8990614cf7565b60405180910390fd5b8173ffffffffffffffffffffffffffffffffffffffff168373ffffffffffffffffffffffffffffffffffffffff167fddf252ad1be2c89b69c2b068fc378daa952ba7f163c4a11628f55a4df523b3ef83604051612aef9190614f17565b60405180910390a3505050565b600e544211612b40576040517f08c379a0000000000000000000000000000000000000000000000000000000008152600401612b3790614e57565b60405180910390fd5b612b4a338261340c565b6000612b58826008546134e5565b9050612b87600660009054906101000a900473ffffffffffffffffffffffffffffffffffffffff163383613513565b3073ffffffffffffffffffffffffffffffffffffffff163373ffffffffffffffffffffffffffffffffffffffff167f817b0c0d4788c2aad942468226077f2ecebee8ffc9a58c433b980b15d2679d708385604051612be6929190614f32565b60405180910390a35050565b60011515600f60019054906101000a900460ff16151514612c48576040517f08c379a0000000000000000000000000000000000000000000000000000000008152600401612c3f90614e77565b60405180910390fd5b6000600f60029054906101000a900473ffffffffffffffffffffffffffffffffffffffff1690508073ffffffffffffffffffffffffffffffffffffffff16636c84e6466040518163ffffffff1660e01b815260040160206040518083038186803b158015612cb557600080fd5b505afa158015612cc9573d6000803e3d6000fd5b505050506040513d601f19601f82011682018060405250810190612ced91906143f9565b4210158015612d7857508073ffffffffffffffffffffffffffffffffffffffff1663d08c275c6040518163ffffffff1660e01b815260040160206040518083038186803b158015612d3d57600080fd5b505afa158015612d51573d6000803e3d6000fd5b505050506040513d601f19601f82011682018060405250810190612d7591906143f9565b42105b15612d8e57612d8985858585613632565b612ee9565b60008173ffffffffffffffffffffffffffffffffffffffff166396069fb56040518163ffffffff1660e01b815260040160206040518083038186803b158015612dd657600080fd5b505afa158015612dea573d6000803e3d6000fd5b505050506040513d601f19601f82011682018060405250810190612e0e91906143f9565b118015612e9757508073ffffffffffffffffffffffffffffffffffffffff16639c6cb4a66040518163ffffffff1660e01b815260040160206040518083038186803b158015612e5c57600080fd5b505afa158015612e70573d6000803e3d6000fd5b505050506040513d601f19601f82011682018060405250810190612e9491906143f9565b42105b15612ead57612ea8858585856137ee565b612ee8565b6040517f08c379a0000000000000000000000000000000000000000000000000000000008152600401612edf90614ed7565b60405180910390fd5b5b5050505050565b60001515600f60019054906101000a900460ff161515148015612f145750600d5442105b612f53576040517f08c379a0000000000000000000000000000000000000000000000000000000008152600401612f4a90614e97565b60405180910390fd5b6000600660009054906101000a900473ffffffffffffffffffffffffffffffffffffffff1673ffffffffffffffffffffffffffffffffffffffff166370a08231306040518263ffffffff1660e01b8152600401612fb09190614a80565b60206040518083038186803b158015612fc857600080fd5b505afa158015612fdc573d6000803e3d6000fd5b505050506040513d601f19601f8201168201806040525081019061300091906143f9565b905060006007541480613014575060075481105b613053576040517f08c379a000000000000000000000000000000000000000000000000000000000815260040161304a90614e37565b60405180910390fd5b6130926040518060400160405280601f81526020017f66697273742070757263686173655f746f6b656e5f616d6f756e743a202573008152508361282b565b600060075411156130ec5760075481836130ac919061507f565b11156130c557806007546130c091906152d1565b6130c7565b815b91506130eb6040518060600160405280602281526020016159f7602291398361282b565b5b61312b6040518060400160405280601e81526020017f6c6173742070757263686173655f746f6b656e5f616d6f756e743a20257300008152508361282b565b61316c6040518060400160405280601b81526020017f50555243484153455f544f4b454e5f444543494d414c533a202573000000000081525060085461282b565b600061317a83600854613321565b90506131bb6040518060400160405280601581526020017f706f6f6c5f746f6b656e5f616d6f756e743a20257300000000000000000000008152508261282b565b6131e9600660009054906101000a900473ffffffffffffffffffffffffffffffffffffffff163330866138f4565b6131f38482613a16565b3073ffffffffffffffffffffffffffffffffffffffff163373ffffffffffffffffffffffffffffffffffffffff168573ffffffffffffffffffffffffffffffffffffffff167f7e937eb0e1c6fed455215464c1bbd1a776f78226ccdc293a0e81f286504517e38685604051613269929190614f32565b60405180910390a450505050565b6000801515600260009054906101000a900460ff161515146132ce576040517f08c379a00000000000000000000000000000000000000000000000000000000081526004016132c590614cd7565b60405180910390fd5b82600090805190602001906132e4929190613f7f565b5081600190805190602001906132fb929190613f7f565b506001600260006101000a81548160ff0219169083151502179055506001905092915050565b600081601261333091906152d1565b600a61333c9190615159565b836133479190615277565b905092915050565b60008061335b84613aef565b90506037602082016000f09150600073ffffffffffffffffffffffffffffffffffffffff168273ffffffffffffffffffffffffffffffffffffffff16141583906133db576040517f08c379a00000000000000000000000000000000000000000000000000000000081526004016133d29190614b16565b60405180910390fd5b505092915050565b60008151905060006a636f6e736f6c652e6c6f679050602083016000808483855afa5050505050565b806003600082825461341e91906152d1565b9250508190555080600560008473ffffffffffffffffffffffffffffffffffffffff1673ffffffffffffffffffffffffffffffffffffffff168152602001908152602001600020600082825461347491906152d1565b92505081905550600073ffffffffffffffffffffffffffffffffffffffff168273ffffffffffffffffffffffffffffffffffffffff167fddf252ad1be2c89b69c2b068fc378daa952ba7f163c4a11628f55a4df523b3ef836040516134d99190614f17565b60405180910390a35050565b60008160126134f491906152d1565b600a6135009190615159565b8361350b91906150d5565b905092915050565b6000808473ffffffffffffffffffffffffffffffffffffffff1663a9059cbb60e01b8585604051602401613548929190614ad2565b604051602081830303815290604052907bffffffffffffffffffffffffffffffffffffffffffffffffffffffff19166020820180517bffffffffffffffffffffffffffffffffffffffffffffffffffffffff83818316178352505050506040516135b291906149e1565b6000604051808303816000865af19150503d80600081146135ef576040519150601f19603f3d011682016040523d82523d6000602084013e6135f4565b606091505b5091509150818015613622575060008151148061362157508080602001905181019061362091906142b1565b5b5b61362b57600080fd5b5050505050565b600061363d33610bd0565b905061367e6040518060400160405280601e81526020017f696e697469616c206d61782070726f207261746120617661696c3a20257300008152508261282b565b826136c757808411156136c6576040517f08c379a00000000000000000000000000000000000000000000000000000000081526004016136bd90614d17565b60405180910390fd5b5b6000836136d457846136d6565b815b90506136e3868285613b4a565b60006136ee33610bd0565b905061372f6040518060400160405280601d81526020017f656e64696e67206d61782070726f207261746120617661696c3a2025730000008152508261282b565b670de0b6b3a7640000600954141580156137495750600081145b156137e55761378c6040518060400160405280600881526020017f656c696769626c65000000000000000000000000000000000000000000000000815250612792565b6001601160003373ffffffffffffffffffffffffffffffffffffffff1673ffffffffffffffffffffffffffffffffffffffff16815260200190815260200160002060006101000a81548160ff0219169083151502179055505b50505050505050565b601160003373ffffffffffffffffffffffffffffffffffffffff1673ffffffffffffffffffffffffffffffffffffffff16815260200190815260200160002060009054906101000a900460ff1661387a576040517f08c379a000000000000000000000000000000000000000000000000000000000815260040161387190614d57565b60405180910390fd5b6000613885336124ca565b90506000836138945784613896565b815b9050836138e157818111156138e0576040517f08c379a00000000000000000000000000000000000000000000000000000000081526004016138d790614d17565b60405180910390fd5b5b6138ec868285613b4a565b505050505050565b6000808573ffffffffffffffffffffffffffffffffffffffff166323b872dd60e01b86868660405160240161392b93929190614a9b565b604051602081830303815290604052907bffffffffffffffffffffffffffffffffffffffffffffffffffffffff19166020820180517bffffffffffffffffffffffffffffffffffffffffffffffffffffffff838183161783525050505060405161399591906149e1565b6000604051808303816000865af19150503d80600081146139d2576040519150601f19603f3d011682016040523d82523d6000602084013e6139d7565b606091505b5091509150818015613a055750600081511480613a04575080806020019051810190613a0391906142b1565b5b5b613a0e57600080fd5b505050505050565b8060036000828254613a28919061507f565b9250508190555080600560008473ffffffffffffffffffffffffffffffffffffffff1673ffffffffffffffffffffffffffffffffffffffff1681526020019081526020016000206000828254613a7e919061507f565b925050819055508173ffffffffffffffffffffffffffffffffffffffff16600073ffffffffffffffffffffffffffffffffffffffff167fddf252ad1be2c89b69c2b068fc378daa952ba7f163c4a11628f55a4df523b3ef83604051613ae39190614f17565b60405180910390a35050565b6060693d602d80600a3d3981f360b01b69363d3d373d3d3d363d7360b01b836e5af43d82803e903d91602b57fd5bf360881b604051602001613b349493929190614993565b6040516020818303038152906040529050919050565b6000600f60029054906101000a900473ffffffffffffffffffffffffffffffffffffffff1690508115613c0e57613bb76040518060400160405280601f81526020017f616c6c6f636174696e673a20257320746f20726563697069656e743a202573008152508486613ee0565b82601260008673ffffffffffffffffffffffffffffffffffffffff1673ffffffffffffffffffffffffffffffffffffffff1681526020019081526020016000206000828254613c06919061507f565b925050819055505b613c18338461340c565b6000620186a06107d085613c2c9190615277565b613c3691906150d5565b90506000620186a0600a5486613c4c9190615277565b613c5691906150d5565b90508273ffffffffffffffffffffffffffffffffffffffff166340c10f19600b60009054906101000a900473ffffffffffffffffffffffffffffffffffffffff16836040518363ffffffff1660e01b8152600401613cb5929190614ad2565b600060405180830381600087803b158015613ccf57600080fd5b505af1158015613ce3573d6000803e3d6000fd5b505050508273ffffffffffffffffffffffffffffffffffffffff166340c10f196000846040518363ffffffff1660e01b8152600401613d23929190614ad2565b600060405180830381600087803b158015613d3d57600080fd5b505af1158015613d51573d6000803e3d6000fd5b505050508273ffffffffffffffffffffffffffffffffffffffff166340c10f19878484613d7e919061507f565b88613d8991906152d1565b6040518363ffffffff1660e01b8152600401613da6929190614ad2565b600060405180830381600087803b158015613dc057600080fd5b505af1158015613dd4573d6000803e3d6000fd5b505050506000613de6866008546134e5565b9050613e37600660009054906101000a900473ffffffffffffffffffffffffffffffffffffffff16601060009054906101000a900473ffffffffffffffffffffffffffffffffffffffff1683613513565b600f60029054906101000a900473ffffffffffffffffffffffffffffffffffffffff1673ffffffffffffffffffffffffffffffffffffffff163073ffffffffffffffffffffffffffffffffffffffff168873ffffffffffffffffffffffffffffffffffffffff167f6f7b25f3e8af7990515569049c014834b70902e031d53ab5b5387decc49c0b8c8985604051613ecf929190614f32565b60405180910390a450505050505050565b613f7a838383604051602401613ef893929190614bcf565b6040516020818303038152906040527fe3849f79000000000000000000000000000000000000000000000000000000007bffffffffffffffffffffffffffffffffffffffffffffffffffffffff19166020820180517bffffffffffffffffffffffffffffffffffffffffffffffffffffffff83818316178352505050506133e3565b505050565b828054613f8b906153f4565b90600052602060002090601f016020900481019282613fad5760008555613ff4565b82601f10613fc657805160ff1916838001178555613ff4565b82800160010185558215613ff4579182015b82811115613ff3578251825591602001919060010190613fd8565b5b5090506140019190614005565b5090565b5b8082111561401e576000816000905550600101614006565b5090565b600061403561403084614ffc565b614fd7565b90508281526020810184848401111561405157614050615550565b5b61405c8482856153b2565b509392505050565b60008135905061407381615939565b92915050565b60008151905061408881615950565b92915050565b600082601f8301126140a3576140a261554b565b5b81356140b3848260208601614022565b91505092915050565b6000813590506140cb81615967565b92915050565b6000815190506140e081615967565b92915050565b6000815190506140f58161597e565b92915050565b6000602082840312156141115761411061555a565b5b600061411f84828501614064565b91505092915050565b6000806040838503121561413f5761413e61555a565b5b600061414d85828601614064565b925050602061415e85828601614064565b9150509250929050565b6000806000606084860312156141815761418061555a565b5b600061418f86828701614064565b93505060206141a086828701614064565b92505060406141b1868287016140bc565b9150509250925092565b600080604083850312156141d2576141d161555a565b5b60006141e085828601614064565b92505060206141f1858286016140bc565b9150509250929050565b600080600080600080600080610100898b03121561421c5761421b61555a565b5b600061422a8b828c01614064565b985050602061423b8b828c016140bc565b975050604061424c8b828c016140bc565b965050606061425d8b828c016140bc565b955050608061426e8b828c016140bc565b94505060a061427f8b828c016140bc565b93505060c06142908b828c016140bc565b92505060e06142a18b828c01614064565b9150509295985092959890939650565b6000602082840312156142c7576142c661555a565b5b60006142d584828501614079565b91505092915050565b600080600080600080600080610100898b0312156142ff576142fe61555a565b5b600089013567ffffffffffffffff81111561431d5761431c615555565b5b6143298b828c0161408e565b985050602089013567ffffffffffffffff81111561434a57614349615555565b5b6143568b828c0161408e565b97505060406143678b828c016140bc565b96505060606143788b828c01614064565b95505060806143898b828c016140bc565b94505060a061439a8b828c016140bc565b93505060c06143ab8b828c01614064565b92505060e06143bc8b828c016140bc565b9150509295985092959890939650565b6000602082840312156143e2576143e161555a565b5b60006143f0848285016140bc565b91505092915050565b60006020828403121561440f5761440e61555a565b5b600061441d848285016140d1565b91505092915050565b60006020828403121561443c5761443b61555a565b5b600061444a848285016140e6565b91505092915050565b61445c81615305565b82525050565b61447361446e82615305565b615457565b82525050565b61448281615317565b82525050565b61449961449482615323565b615469565b82525050565b6144b06144ab8261534f565b615473565b82525050565b60006144c182615042565b6144cb8185615058565b93506144db8185602086016153c1565b80840191505092915050565b60006144f28261504d565b6144fc8185615063565b935061450c8185602086016153c1565b6145158161555f565b840191505092915050565b600061452b8261504d565b6145358185615074565b93506145458185602086016153c1565b80840191505092915050565b6000815461455e816153f4565b6145688186615063565b945060018216600081146145835760018114614595576145c8565b60ff19831686526020860193506145c8565b61459e8561502d565b60005b838110156145c0578154818901526001820191506020810190506145a1565b808801955050505b50505092915050565b600081546145de816153f4565b6145e88186615074565b94506001821660008114614603576001811461461457614647565b60ff19831686528186019350614647565b61461d8561502d565b60005b8381101561463f57815481890152600182019150602081019050614620565b838801955050505b50505092915050565b600061465d601583615063565b91506146688261558a565b602082019050919050565b6000614680601883615063565b915061468b826155b3565b602082019050919050565b60006146a3600783615074565b91506146ae826155dc565b600782019050919050565b60006146c6600483615074565b91506146d182615605565b600482019050919050565b60006146e9601883615063565b91506146f48261562e565b602082019050919050565b600061470c601983615063565b915061471782615657565b602082019050919050565b600061472f601783615063565b915061473a82615680565b602082019050919050565b6000614752601f83615063565b915061475d826156a9565b602082019050919050565b6000614775601383615063565b9150614780826156d2565b602082019050919050565b6000614798601783615063565b91506147a3826156fb565b602082019050919050565b60006147bb601a83615063565b91506147c682615724565b602082019050919050565b60006147de601a83615063565b91506147e98261574d565b602082019050919050565b6000614801600483615074565b915061480c82615776565b600482019050919050565b6000614824601d83615063565b915061482f8261579f565b602082019050919050565b6000614847601e83615063565b9150614852826157c8565b602082019050919050565b600061486a601883615063565b9150614875826157f1565b602082019050919050565b600061488d601783615063565b91506148988261581a565b602082019050919050565b60006148b0601483615063565b91506148bb82615843565b602082019050919050565b60006148d3600783615074565b91506148de8261586c565b600782019050919050565b60006148f6601683615063565b915061490182615895565b602082019050919050565b6000614919601e83615063565b9150614924826158be565b602082019050919050565b600061493c601883615063565b9150614947826158e7565b602082019050919050565b600061495f601a83615063565b915061496a82615910565b602082019050919050565b61497e8161539b565b82525050565b61498d816153a5565b82525050565b600061499f8287614488565b600a820191506149af8286614488565b600a820191506149bf8285614462565b6014820191506149cf828461449f565b600f8201915081905095945050505050565b60006149ed82846144b6565b915081905092915050565b6000614a0382614696565b9150614a0f82846145d1565b915081905092915050565b6000614a25826146b9565b9150614a3182846145d1565b915081905092915050565b6000614a47826147f4565b9150614a538284614520565b915081905092915050565b6000614a69826148c6565b9150614a758284614520565b915081905092915050565b6000602082019050614a956000830184614453565b92915050565b6000606082019050614ab06000830186614453565b614abd6020830185614453565b614aca6040830184614975565b949350505050565b6000604082019050614ae76000830185614453565b614af46020830184614975565b9392505050565b6000602082019050614b106000830184614479565b92915050565b60006020820190508181036000830152614b3081846144e7565b905092915050565b60006040820190508181036000830152614b5281856144e7565b9050614b616020830184614453565b9392505050565b60006040820190508181036000830152614b8281856144e7565b90508181036020830152614b9681846144e7565b90509392505050565b60006040820190508181036000830152614bb981856144e7565b9050614bc86020830184614975565b9392505050565b60006060820190508181036000830152614be981866144e7565b9050614bf86020830185614975565b614c056040830184614453565b949350505050565b6000610140820190508181036000830152614c28818d614551565b90508181036020830152614c3c818c614551565b9050614c4b604083018b614453565b614c58606083018a614975565b614c656080830189614975565b614c7260a0830188614975565b614c7f60c0830187614975565b614c8c60e0830186614975565b614c9a610100830185614453565b614ca8610120830184614975565b9b9a5050505050505050505050565b60006020820190508181036000830152614cd081614650565b9050919050565b60006020820190508181036000830152614cf081614673565b9050919050565b60006020820190508181036000830152614d10816146dc565b9050919050565b60006020820190508181036000830152614d30816146ff565b9050919050565b60006020820190508181036000830152614d5081614722565b9050919050565b60006020820190508181036000830152614d7081614745565b9050919050565b60006020820190508181036000830152614d9081614768565b9050919050565b60006020820190508181036000830152614db08161478b565b9050919050565b60006020820190508181036000830152614dd0816147ae565b9050919050565b60006020820190508181036000830152614df0816147d1565b9050919050565b60006020820190508181036000830152614e1081614817565b9050919050565b60006020820190508181036000830152614e308161483a565b9050919050565b60006020820190508181036000830152614e508161485d565b9050919050565b60006020820190508181036000830152614e7081614880565b9050919050565b60006020820190508181036000830152614e90816148a3565b9050919050565b60006020820190508181036000830152614eb0816148e9565b9050919050565b60006020820190508181036000830152614ed08161490c565b9050919050565b60006020820190508181036000830152614ef08161492f565b9050919050565b60006020820190508181036000830152614f1081614952565b9050919050565b6000602082019050614f2c6000830184614975565b92915050565b6000604082019050614f476000830185614975565b614f546020830184614975565b9392505050565b600060c082019050614f706000830189614975565b614f7d6020830188614975565b614f8a6040830187614975565b614f976060830186614975565b614fa46080830185614975565b614fb160a0830184614975565b979650505050505050565b6000602082019050614fd16000830184614984565b92915050565b6000614fe1614ff2565b9050614fed8282615426565b919050565b6000604051905090565b600067ffffffffffffffff8211156150175761501661551c565b5b6150208261555f565b9050602081019050919050565b60008190508160005260206000209050919050565b600081519050919050565b600081519050919050565b600081905092915050565b600082825260208201905092915050565b600081905092915050565b600061508a8261539b565b91506150958361539b565b9250827fffffffffffffffffffffffffffffffffffffffffffffffffffffffffffffffff038211156150ca576150c961548f565b5b828201905092915050565b60006150e08261539b565b91506150eb8361539b565b9250826150fb576150fa6154be565b5b828204905092915050565b6000808291508390505b60018511156151505780860481111561512c5761512b61548f565b5b600185161561513b5780820291505b80810290506151498561557d565b9450615110565b94509492505050565b60006151648261539b565b915061516f8361539b565b925061519c7fffffffffffffffffffffffffffffffffffffffffffffffffffffffffffffffff84846151a4565b905092915050565b6000826151b45760019050615270565b816151c25760009050615270565b81600181146151d857600281146151e257615211565b6001915050615270565b60ff8411156151f4576151f361548f565b5b8360020a91508482111561520b5761520a61548f565b5b50615270565b5060208310610133831016604e8410600b84101617156152465782820a9050838111156152415761524061548f565b5b615270565b6152538484846001615106565b9250905081840481111561526a5761526961548f565b5b81810290505b9392505050565b60006152828261539b565b915061528d8361539b565b9250817fffffffffffffffffffffffffffffffffffffffffffffffffffffffffffffffff04831182151516156152c6576152c561548f565b5b828202905092915050565b60006152dc8261539b565b91506152e78361539b565b9250828210156152fa576152f961548f565b5b828203905092915050565b60006153108261537b565b9050919050565b60008115159050919050565b60007fffffffffffffffffffff0000000000000000000000000000000000000000000082169050919050565b60007fffffffffffffffffffffffffffffff000000000000000000000000000000000082169050919050565b600073ffffffffffffffffffffffffffffffffffffffff82169050919050565b6000819050919050565b600060ff82169050919050565b82818337600083830152505050565b60005b838110156153df5780820151818401526020810190506153c4565b838111156153ee576000848401525b50505050565b6000600282049050600182168061540c57607f821691505b602082108114156154205761541f6154ed565b5b50919050565b61542f8261555f565b810181811067ffffffffffffffff8211171561544e5761544d61551c565b5b80604052505050565b60006154628261547d565b9050919050565b6000819050919050565b6000819050919050565b600061548882615570565b9050919050565b7f4e487b7100000000000000000000000000000000000000000000000000000000600052601160045260246000fd5b7f4e487b7100000000000000000000000000000000000000000000000000000000600052601260045260246000fd5b7f4e487b7100000000000000000000000000000000000000000000000000000000600052602260045260246000fd5b7f4e487b7100000000000000000000000000000000000000000000000000000000600052604160045260246000fd5b600080fd5b600080fd5b600080fd5b600080fd5b6000601f19601f8301169050919050565b60008160601b9050919050565b60008160011c9050919050565b7f6465616c20686173206265656e20637265617465640000000000000000000000600082015250565b7f63616e206f6e6c7920696e697469616c697a65206f6e63650000000000000000600082015250565b7f61654465616c2d00000000000000000000000000000000000000000000000000600082015250565b7f6165442d00000000000000000000000000000000000000000000000000000000600082015250565b7f62616c616e63652063616e74206265206e656761746976650000000000000000600082015250565b7f616363657074696e67206d6f7265207468616e20736861726500000000000000600082015250565b7f65786365656473206d61782073706f6e736f7220666565000000000000000000600082015250565b7f696e656c696769626c653a206469646e2774206d61782070726f207261746100600082015250565b7f6d617820312079656172206475726174696f6e00000000000000000000000000600082015250565b7f6f6e6c792073706f6e736f722063616e20616363657373000000000000000000600082015250565b7f3330206d696e73206973206d696e206f70656e20706572696f64000000000000600082015250565b7f6465616c20697320313a312c20736574206f70656e20746f2030000000000000600082015250565b7f6165502d00000000000000000000000000000000000000000000000000000000600082015250565b7f3330206d696e73206973206d696e2070726f7261746120706572696f64000000600082015250565b7f6d696e203330206d696e75746573207075726368617365206578706972790000600082015250565b7f7468652063617020686173206265656e20726561636865640000000000000000600082015250565b7f6e6f742079657420776974686472617720706572696f64000000000000000000600082015250565b7f6465616c206e6f74207965742063726561746564000000000000000000000000600082015250565b7f6165506f6f6c2d00000000000000000000000000000000000000000000000000600082015250565b7f6e6f7420696e2070757263686173652077696e646f7700000000000000000000600082015250565b7f6f6e6c79206675747572652073706f6e736f722063616e206163636573730000600082015250565b7f6f757473696465206f662072656465656d2077696e646f770000000000000000600082015250565b7f6e6f7420656e6f7567682066756e647320617661696c61626c65000000000000600082015250565b61594281615305565b811461594d57600080fd5b50565b61595981615317565b811461596457600080fd5b50565b6159708161539b565b811461597b57600080fd5b50565b615987816153a5565b811461599257600080fd5b5056fe2850524f5f524154415f434f4e56455253494f4e202a20616d6f756e745f6163636570746564202f2031653138292850524f5f524154415f434f4e56455253494f4e202a2062616c616e63654f665b7075726368617365725d202f2031653138296f7074696f6e616c2070757263686173655f746f6b656e5f616d6f756e743a202573a2646970667358221220a85930cb6f4a26cfe076063c14fda511b4737d3fe93704ab8f8e5f6aea1a50f564736f6c63430008060033",
  "linkReferences": {},
  "deployedLinkReferences": {}
}