{
  "_format": "hh-sol-artifact-1",
  "contractName": "AelinDeal",
  "sourceName": "contracts/AelinDeal.sol",
  "abi": [
    {
      "inputs": [],
      "stateMutability": "nonpayable",
      "type": "constructor"
    },
    {
      "anonymous": false,
      "inputs": [
        {
          "indexed": true,
          "internalType": "address",
          "name": "owner",
          "type": "address"
        },
        {
          "indexed": true,
          "internalType": "address",
          "name": "spender",
          "type": "address"
        },
        {
          "indexed": false,
          "internalType": "uint256",
          "name": "amount",
          "type": "uint256"
        }
      ],
      "name": "Approval",
      "type": "event"
    },
    {
      "anonymous": false,
      "inputs": [
        {
          "indexed": false,
          "internalType": "address",
          "name": "underlyingDealTokenAddress",
          "type": "address"
        },
        {
          "indexed": false,
          "internalType": "address",
          "name": "from",
          "type": "address"
        },
        {
          "indexed": false,
          "internalType": "address",
          "name": "recipient",
          "type": "address"
        },
        {
          "indexed": false,
          "internalType": "uint256",
          "name": "underlyingDealTokensClaimed",
          "type": "uint256"
        }
      ],
      "name": "ClaimedUnderlyingDealTokens",
      "type": "event"
    },
    {
      "anonymous": false,
      "inputs": [
        {
          "indexed": false,
          "internalType": "address",
          "name": "poolAddress",
          "type": "address"
        },
        {
          "indexed": false,
          "internalType": "address",
          "name": "dealAddress",
          "type": "address"
        },
        {
          "indexed": false,
          "internalType": "uint256",
          "name": "redemptionStart",
          "type": "uint256"
        },
        {
          "indexed": false,
          "internalType": "uint256",
          "name": "redemptionExpiry",
          "type": "uint256"
        }
      ],
      "name": "DealFullyFunded",
      "type": "event"
    },
    {
      "anonymous": false,
      "inputs": [
        {
          "indexed": false,
          "internalType": "address",
          "name": "underlyingDealTokenAddress",
          "type": "address"
        },
        {
          "indexed": false,
          "internalType": "address",
          "name": "depositor",
          "type": "address"
        },
        {
          "indexed": false,
          "internalType": "address",
          "name": "dealContract",
          "type": "address"
        },
        {
          "indexed": false,
          "internalType": "uint256",
          "name": "underlyingDealTokenAmount",
          "type": "uint256"
        }
      ],
      "name": "DepositDealTokens",
      "type": "event"
    },
    {
      "anonymous": false,
      "inputs": [
        {
          "indexed": false,
          "internalType": "address",
          "name": "dealContract",
          "type": "address"
        },
        {
          "indexed": false,
          "internalType": "address",
          "name": "recipient",
          "type": "address"
        },
        {
          "indexed": false,
          "internalType": "uint256",
          "name": "dealTokenAmount",
          "type": "uint256"
        }
      ],
      "name": "MintDealTokens",
      "type": "event"
    },
    {
      "anonymous": false,
      "inputs": [
        {
          "indexed": true,
          "internalType": "address",
          "name": "from",
          "type": "address"
        },
        {
          "indexed": true,
          "internalType": "address",
          "name": "to",
          "type": "address"
        },
        {
          "indexed": false,
          "internalType": "uint256",
          "name": "amount",
          "type": "uint256"
        }
      ],
      "name": "Transfer",
      "type": "event"
    },
    {
      "anonymous": false,
      "inputs": [
        {
          "indexed": false,
          "internalType": "address",
          "name": "underlyingDealTokenAddress",
          "type": "address"
        },
        {
          "indexed": false,
          "internalType": "address",
          "name": "depositor",
          "type": "address"
        },
        {
          "indexed": false,
          "internalType": "address",
          "name": "dealContract",
          "type": "address"
        },
        {
          "indexed": false,
          "internalType": "uint256",
          "name": "underlyingDealTokenAmount",
          "type": "uint256"
        }
      ],
      "name": "WithdrawUnderlyingDealTokens",
      "type": "event"
    },
    {
      "inputs": [],
      "name": "AELIN_POOL_ADDRESS",
      "outputs": [
        {
          "internalType": "address",
          "name": "",
          "type": "address"
        }
      ],
      "stateMutability": "view",
      "type": "function"
    },
    {
      "inputs": [],
      "name": "CALLED_INITIALIZE",
      "outputs": [
        {
          "internalType": "bool",
          "name": "",
          "type": "bool"
        }
      ],
      "stateMutability": "view",
      "type": "function"
    },
    {
      "inputs": [],
      "name": "DEPOSIT_COMPLETE",
      "outputs": [
        {
          "internalType": "bool",
          "name": "",
          "type": "bool"
        }
      ],
      "stateMutability": "view",
      "type": "function"
    },
    {
      "inputs": [],
      "name": "HOLDER",
      "outputs": [
        {
          "internalType": "address",
          "name": "",
          "type": "address"
        }
      ],
      "stateMutability": "view",
      "type": "function"
    },
    {
      "inputs": [],
      "name": "REDEMPTION_EXPIRY",
      "outputs": [
        {
          "internalType": "uint256",
          "name": "",
          "type": "uint256"
        }
      ],
      "stateMutability": "view",
      "type": "function"
    },
    {
      "inputs": [],
      "name": "REDEMPTION_PERIOD",
      "outputs": [
        {
          "internalType": "uint256",
          "name": "",
          "type": "uint256"
        }
      ],
      "stateMutability": "view",
      "type": "function"
    },
    {
      "inputs": [],
      "name": "REDEMPTION_START",
      "outputs": [
        {
          "internalType": "uint256",
          "name": "",
          "type": "uint256"
        }
      ],
      "stateMutability": "view",
      "type": "function"
    },
    {
      "inputs": [],
      "name": "TOTAL_UNDERLYING_CLAIMED",
      "outputs": [
        {
          "internalType": "uint256",
          "name": "",
          "type": "uint256"
        }
      ],
      "stateMutability": "view",
      "type": "function"
    },
    {
      "inputs": [],
      "name": "UNDERLYING_DEAL_TOKEN",
      "outputs": [
        {
          "internalType": "address",
          "name": "",
          "type": "address"
        }
      ],
      "stateMutability": "view",
      "type": "function"
    },
    {
      "inputs": [],
      "name": "UNDERLYING_DEAL_TOKENS_TOTAL",
      "outputs": [
        {
          "internalType": "uint256",
          "name": "",
          "type": "uint256"
        }
      ],
      "stateMutability": "view",
      "type": "function"
    },
    {
      "inputs": [],
      "name": "UNDERLYING_DEAL_TOKEN_DECIMALS",
      "outputs": [
        {
          "internalType": "uint256",
          "name": "",
          "type": "uint256"
        }
      ],
      "stateMutability": "view",
      "type": "function"
    },
    {
      "inputs": [],
      "name": "UNDERLYING_PER_POOL_EXCHANGE_RATE",
      "outputs": [
        {
          "internalType": "uint256",
          "name": "",
          "type": "uint256"
        }
      ],
      "stateMutability": "view",
      "type": "function"
    },
    {
      "inputs": [],
      "name": "UNDERLYING_PER_PURCHASE_EXCHANGE_RATE",
      "outputs": [
        {
          "internalType": "uint256",
          "name": "",
          "type": "uint256"
        }
      ],
      "stateMutability": "view",
      "type": "function"
    },
    {
      "inputs": [],
      "name": "VESTING_CLIFF",
      "outputs": [
        {
          "internalType": "uint256",
          "name": "",
          "type": "uint256"
        }
      ],
      "stateMutability": "view",
      "type": "function"
    },
    {
      "inputs": [],
      "name": "VESTING_EXPIRY",
      "outputs": [
        {
          "internalType": "uint256",
          "name": "",
          "type": "uint256"
        }
      ],
      "stateMutability": "view",
      "type": "function"
    },
    {
      "inputs": [],
      "name": "VESTING_PERIOD",
      "outputs": [
        {
          "internalType": "uint256",
          "name": "",
          "type": "uint256"
        }
      ],
      "stateMutability": "view",
      "type": "function"
    },
    {
      "inputs": [
        {
          "internalType": "address",
          "name": "",
          "type": "address"
        },
        {
          "internalType": "address",
          "name": "",
          "type": "address"
        }
      ],
      "name": "allowance",
      "outputs": [
        {
          "internalType": "uint256",
          "name": "",
          "type": "uint256"
        }
      ],
      "stateMutability": "view",
      "type": "function"
    },
    {
      "inputs": [
        {
          "internalType": "address",
          "name": "spender",
          "type": "address"
        },
        {
          "internalType": "uint256",
          "name": "amount",
          "type": "uint256"
        }
      ],
      "name": "approve",
      "outputs": [
        {
          "internalType": "bool",
          "name": "",
          "type": "bool"
        }
      ],
      "stateMutability": "nonpayable",
      "type": "function"
    },
    {
      "inputs": [
        {
          "internalType": "address",
          "name": "",
          "type": "address"
        }
      ],
      "name": "balanceOf",
      "outputs": [
        {
          "internalType": "uint256",
          "name": "",
          "type": "uint256"
        }
      ],
      "stateMutability": "view",
      "type": "function"
    },
    {
      "inputs": [
        {
          "internalType": "address",
          "name": "from",
          "type": "address"
        }
      ],
      "name": "claim",
      "outputs": [],
      "stateMutability": "nonpayable",
      "type": "function"
    },
    {
      "inputs": [
        {
          "internalType": "address",
          "name": "from",
          "type": "address"
        },
        {
          "internalType": "address",
          "name": "recipient",
          "type": "address"
        }
      ],
      "name": "claimAndAllocate",
      "outputs": [],
      "stateMutability": "nonpayable",
      "type": "function"
    },
    {
      "inputs": [],
      "name": "decimals",
      "outputs": [
        {
          "internalType": "uint8",
          "name": "",
          "type": "uint8"
        }
      ],
      "stateMutability": "view",
      "type": "function"
    },
    {
      "inputs": [
        {
          "internalType": "uint256",
          "name": "_underlying_deal_token_amount",
          "type": "uint256"
        }
      ],
      "name": "depositUnderlying",
      "outputs": [
        {
          "internalType": "bool",
          "name": "",
          "type": "bool"
        }
      ],
      "stateMutability": "nonpayable",
      "type": "function"
    },
    {
      "inputs": [
        {
          "internalType": "string",
          "name": "_name",
          "type": "string"
        },
        {
          "internalType": "string",
          "name": "_symbol",
          "type": "string"
        },
        {
          "internalType": "address",
          "name": "_underlying_deal_token",
          "type": "address"
        },
        {
          "internalType": "uint256",
          "name": "_underlying_per_purchase_exchange_rate",
          "type": "uint256"
        },
        {
          "internalType": "uint256",
          "name": "_underlying_deal_token_total",
          "type": "uint256"
        },
        {
          "internalType": "uint256",
          "name": "_vesting_period",
          "type": "uint256"
        },
        {
          "internalType": "uint256",
          "name": "_vesting_cliff",
          "type": "uint256"
        },
        {
          "internalType": "uint256",
          "name": "_redemption_period",
          "type": "uint256"
        },
        {
          "internalType": "address",
          "name": "_holder",
          "type": "address"
        },
        {
          "internalType": "uint256",
          "name": "_pool_token_max_purchase_amount",
          "type": "uint256"
        }
      ],
      "name": "initialize",
      "outputs": [],
      "stateMutability": "nonpayable",
      "type": "function"
    },
    {
      "inputs": [
        {
          "internalType": "address",
          "name": "",
          "type": "address"
        }
      ],
      "name": "lastClaim",
      "outputs": [
        {
          "internalType": "uint256",
          "name": "",
          "type": "uint256"
        }
      ],
      "stateMutability": "view",
      "type": "function"
    },
    {
      "inputs": [
        {
          "internalType": "address",
          "name": "dst",
          "type": "address"
        },
        {
          "internalType": "uint256",
          "name": "dealTokenAmount",
          "type": "uint256"
        }
      ],
      "name": "mint",
      "outputs": [],
      "stateMutability": "nonpayable",
      "type": "function"
    },
    {
      "inputs": [],
      "name": "name",
      "outputs": [
        {
          "internalType": "string",
          "name": "",
          "type": "string"
        }
      ],
      "stateMutability": "view",
      "type": "function"
    },
    {
      "inputs": [],
      "name": "symbol",
      "outputs": [
        {
          "internalType": "string",
          "name": "",
          "type": "string"
        }
      ],
      "stateMutability": "view",
      "type": "function"
    },
    {
      "inputs": [],
      "name": "totalSupply",
      "outputs": [
        {
          "internalType": "uint256",
          "name": "",
          "type": "uint256"
        }
      ],
      "stateMutability": "view",
      "type": "function"
    },
    {
      "inputs": [
        {
          "internalType": "address",
          "name": "dst",
          "type": "address"
        },
        {
          "internalType": "uint256",
          "name": "dealTokenAmount",
          "type": "uint256"
        }
      ],
      "name": "transfer",
      "outputs": [
        {
          "internalType": "bool",
          "name": "",
          "type": "bool"
        }
      ],
      "stateMutability": "nonpayable",
      "type": "function"
    },
    {
      "inputs": [
        {
          "internalType": "address",
          "name": "src",
          "type": "address"
        },
        {
          "internalType": "address",
          "name": "dst",
          "type": "address"
        },
        {
          "internalType": "uint256",
          "name": "amount",
          "type": "uint256"
        }
      ],
      "name": "transferFrom",
      "outputs": [
        {
          "internalType": "bool",
          "name": "",
          "type": "bool"
        }
      ],
      "stateMutability": "nonpayable",
      "type": "function"
    },
    {
      "inputs": [
        {
          "internalType": "address",
          "name": "purchaser",
          "type": "address"
        }
      ],
      "name": "underlyingDealTokensClaimable",
      "outputs": [
        {
          "internalType": "uint256",
          "name": "",
          "type": "uint256"
        }
      ],
      "stateMutability": "view",
      "type": "function"
    },
    {
      "inputs": [],
      "name": "withdraw",
      "outputs": [],
      "stateMutability": "nonpayable",
      "type": "function"
    },
    {
      "inputs": [],
      "name": "withdrawExpiry",
      "outputs": [],
      "stateMutability": "nonpayable",
      "type": "function"
    }
  ],
  "bytecode": "0x60806040526000600260006101000a81548160ff02191690831515021790555060006003556000601460006101000a81548160ff0219169083151502179055506000601460016101000a81548160ff02191690831515021790555034801561006657600080fd5b50613134806100766000396000f3fe608060405234801561001057600080fd5b50600436106102065760003560e01c80635c16e15e1161011a578063a125c8c6116100ad578063bf55dbb31161007c578063bf55dbb3146105c1578063c9793f6d146105df578063d7817392146105fd578063dd62ed3e1461061b578063f5a466c61461064b57610206565b8063a125c8c614610539578063a9059cbb14610557578063b9dfaba814610587578063b9f5be411461059157610206565b8063688d0c2c116100e9578063688d0c2c146104af57806370a08231146104cd57806392f3f904146104fd57806395d89b411461051b57610206565b80635c16e15e146104255780635d474a00146104555780635d4e49221461047357806363f3dbe51461049157610206565b80632be529d81161019d57806340c10f191161016c57806340c10f19146103915780634205f092146103ad578063540270f4146103cb578063562df7de146103e957806358ce466a1461040757610206565b80632be529d81461031b578063313ce567146103395780633bf88c44146103575780633ccfd60b1461038757610206565b8063182cf94b116101d9578063182cf94b146102955780631e83409a146102b3578063206efe20146102cf57806323b872dd146102eb57610206565b80630197d9721461020b57806306fdde0314610229578063095ea7b31461024757806318160ddd14610277575b600080fd5b610213610667565b6040516102209190612b78565b60405180910390f35b61023161066d565b60405161023e9190612a76565b60405180910390f35b610261600480360381019061025c91906124de565b6106fb565b60405161026e9190612a5b565b60405180910390f35b61027f6107ed565b60405161028c9190612b78565b60405180910390f35b61029d6107f3565b6040516102aa9190612956565b60405180910390f35b6102cd60048036038101906102c8919061241e565b610819565b005b6102e960048036038101906102e4919061254b565b610827565b005b6103056004803603810190610300919061248b565b610ac4565b6040516103129190612a5b565b60405180910390f35b610323610cbc565b6040516103309190612956565b60405180910390f35b610341610ce2565b60405161034e9190612b93565b60405180910390f35b610371600480360381019061036c919061241e565b610ce7565b60405161037e9190612b78565b60405180910390f35b61038f610ed6565b005b6103ab60048036038101906103a691906124de565b611102565b005b6103b56111db565b6040516103c29190612b78565b60405180910390f35b6103d36111e1565b6040516103e09190612b78565b60405180910390f35b6103f16111e7565b6040516103fe9190612956565b60405180910390f35b61040f61120d565b60405161041c9190612b78565b60405180910390f35b61043f600480360381019061043a919061241e565b611213565b60405161044c9190612b78565b60405180910390f35b61045d61122b565b60405161046a9190612b78565b60405180910390f35b61047b611231565b6040516104889190612b78565b60405180910390f35b610499611237565b6040516104a69190612b78565b60405180910390f35b6104b761123d565b6040516104c49190612a5b565b60405180910390f35b6104e760048036038101906104e2919061241e565b611250565b6040516104f49190612b78565b60405180910390f35b610505611268565b6040516105129190612a5b565b60405180910390f35b61052361127b565b6040516105309190612a76565b60405180910390f35b610541611309565b60405161054e9190612b78565b60405180910390f35b610571600480360381019061056c91906124de565b61130f565b60405161057e9190612a5b565b60405180910390f35b61058f611326565b005b6105ab60048036038101906105a69190612662565b6115ee565b6040516105b89190612a5b565b60405180910390f35b6105c9611863565b6040516105d69190612b78565b60405180910390f35b6105e7611869565b6040516105f49190612b78565b60405180910390f35b61060561186f565b6040516106129190612b78565b60405180910390f35b6106356004803603810190610630919061244b565b611875565b6040516106429190612b78565b60405180910390f35b6106656004803603810190610660919061244b565b61189a565b005b600f5481565b6000805461067a90612ded565b80601f01602080910402602001604051908101604052809291908181526020018280546106a690612ded565b80156106f35780601f106106c8576101008083540402835291602001916106f3565b820191906000526020600020905b8154815290600101906020018083116106d657829003601f168201915b505050505081565b600081600460003373ffffffffffffffffffffffffffffffffffffffff1673ffffffffffffffffffffffffffffffffffffffff16815260200190815260200160002060008573ffffffffffffffffffffffffffffffffffffffff1673ffffffffffffffffffffffffffffffffffffffff168152602001908152602001600020819055508273ffffffffffffffffffffffffffffffffffffffff163373ffffffffffffffffffffffffffffffffffffffff167f8c5be1e5ebec7d5bd14f71427d1e84f3dd0314c0f7b2291e5b200ac8c7c3b925846040516107db9190612b78565b60405180910390a36001905092915050565b60035481565b600760009054906101000a900473ffffffffffffffffffffffffffffffffffffffff1681565b6108238182611917565b5050565b60001515601460009054906101000a900460ff1615151461087d576040517f08c379a000000000000000000000000000000000000000000000000000000000815260040161087490612ab8565b60405180910390fd5b6108c58a6040516020016108919190612912565b6040516020818303038152906040528a6040516020016108b19190612934565b604051602081830303815290604052611c9d565b5081600660006101000a81548173ffffffffffffffffffffffffffffffffffffffff021916908373ffffffffffffffffffffffffffffffffffffffff16021790555087600760006101000a81548173ffffffffffffffffffffffffffffffffffffffff021916908373ffffffffffffffffffffffffffffffffffffffff1602179055508773ffffffffffffffffffffffffffffffffffffffff1663313ce5676040518163ffffffff1660e01b815260040160206040518083038186803b15801561098e57600080fd5b505afa1580156109a2573d6000803e3d6000fd5b505050506040513d601f19601f820116820180604052508101906109c691906126bc565b60ff166008819055508560098190555033600d60006101000a81548173ffffffffffffffffffffffffffffffffffffffff021916908373ffffffffffffffffffffffffffffffffffffffff160217905550838342610a249190612c41565b610a2e9190612c41565b600e8190555084600f8190555084600e54610a499190612c41565b601081905550826011819055506001601460006101000a81548160ff0219169083151502179055506000601460016101000a81548160ff02191690831515021790555080670de0b6b3a764000087610aa19190612cc8565b610aab9190612c97565b600b8190555086600c8190555050505050505050505050565b6000803390506000600460008773ffffffffffffffffffffffffffffffffffffffff1673ffffffffffffffffffffffffffffffffffffffff16815260200190815260200160002060008373ffffffffffffffffffffffffffffffffffffffff1673ffffffffffffffffffffffffffffffffffffffff1681526020019081526020016000205490508573ffffffffffffffffffffffffffffffffffffffff168273ffffffffffffffffffffffffffffffffffffffff1614158015610ba757507fffffffffffffffffffffffffffffffffffffffffffffffffffffffffffffffff8114155b15610ca45760008482610bba9190612d22565b905080600460008973ffffffffffffffffffffffffffffffffffffffff1673ffffffffffffffffffffffffffffffffffffffff16815260200190815260200160002060008573ffffffffffffffffffffffffffffffffffffffff1673ffffffffffffffffffffffffffffffffffffffff168152602001908152602001600020819055508273ffffffffffffffffffffffffffffffffffffffff168773ffffffffffffffffffffffffffffffffffffffff167f8c5be1e5ebec7d5bd14f71427d1e84f3dd0314c0f7b2291e5b200ac8c7c3b92583604051610c9a9190612b78565b60405180910390a3505b610caf868686611d47565b6001925050509392505050565b600660009054906101000a900473ffffffffffffffffffffffffffffffffffffffff1681565b601281565b6000806010544211610cf95742610cfd565b6010545b9050600e54811180610d695750600e5481148015610d1d57506000600f54145b8015610d6857506000601560008573ffffffffffffffffffffffffffffffffffffffff1673ffffffffffffffffffffffffffffffffffffffff16815260200190815260200160002054145b5b15610ecb576000601560008573ffffffffffffffffffffffffffffffffffffffff1673ffffffffffffffffffffffffffffffffffffffff1681526020019081526020016000205490506000811415610dc157600e5490505b818110158015610dd457506000600f5414155b15610de457600092505050610ed1565b60008183610df29190612d22565b9050600080600f5414610e5c57600f5482600560008973ffffffffffffffffffffffffffffffffffffffff1673ffffffffffffffffffffffffffffffffffffffff16815260200190815260200160002054610e4d9190612cc8565b610e579190612c97565b610e9d565b600560008773ffffffffffffffffffffffffffffffffffffffff1673ffffffffffffffffffffffffffffffffffffffff168152602001908152602001600020545b9050670de0b6b3a764000081600b54610eb69190612cc8565b610ec09190612c97565b945050505050610ed1565b60009150505b919050565b600660009054906101000a900473ffffffffffffffffffffffffffffffffffffffff1673ffffffffffffffffffffffffffffffffffffffff163373ffffffffffffffffffffffffffffffffffffffff1614610f66576040517f08c379a0000000000000000000000000000000000000000000000000000000008152600401610f5d90612b58565b60405180910390fd5b6000600a54600954600760009054906101000a900473ffffffffffffffffffffffffffffffffffffffff1673ffffffffffffffffffffffffffffffffffffffff166370a08231306040518263ffffffff1660e01b8152600401610fc99190612956565b60206040518083038186803b158015610fe157600080fd5b505afa158015610ff5573d6000803e3d6000fd5b505050506040513d601f19601f82011682018060405250810190611019919061268f565b6110239190612d22565b61102d9190612d22565b905061107e600760009054906101000a900473ffffffffffffffffffffffffffffffffffffffff16600660009054906101000a900473ffffffffffffffffffffffffffffffffffffffff1683611eaf565b7f8de2e60544c6df64589d507aacf293ef9d47f7a26438c7add2ab99f341437a51600760009054906101000a900473ffffffffffffffffffffffffffffffffffffffff16600660009054906101000a900473ffffffffffffffffffffffffffffffffffffffff1630846040516110f79493929190612971565b60405180910390a150565b600d60009054906101000a900473ffffffffffffffffffffffffffffffffffffffff1673ffffffffffffffffffffffffffffffffffffffff163373ffffffffffffffffffffffffffffffffffffffff1614611192576040517f08c379a000000000000000000000000000000000000000000000000000000000815260040161118990612af8565b60405180910390fd5b61119c8282611fce565b7f6a173fc03da95998510e11c8bb7197f3c0141cd0b237ead0cdc47ade6af6a6483083836040516111cf939291906129b6565b60405180910390a15050565b60095481565b600a5481565b600d60009054906101000a900473ffffffffffffffffffffffffffffffffffffffff1681565b60125481565b60156020528060005260406000206000915090505481565b60115481565b60085481565b600e5481565b601460009054906101000a900460ff1681565b60056020528060005260406000206000915090505481565b601460019054906101000a900460ff1681565b6001805461128890612ded565b80601f01602080910402602001604051908101604052809291908181526020018280546112b490612ded565b80156113015780601f106112d657610100808354040283529160200191611301565b820191906000526020600020905b8154815290600101906020018083116112e457829003601f168201915b505050505081565b600c5481565b600061131c338484611d47565b6001905092915050565b600660009054906101000a900473ffffffffffffffffffffffffffffffffffffffff1673ffffffffffffffffffffffffffffffffffffffff163373ffffffffffffffffffffffffffffffffffffffff16146113b6576040517f08c379a00000000000000000000000000000000000000000000000000000000081526004016113ad90612b58565b60405180910390fd5b6000601354116113fb576040517f08c379a00000000000000000000000000000000000000000000000000000000081526004016113f290612b18565b60405180910390fd5b601354421161143f576040517f08c379a000000000000000000000000000000000000000000000000000000000815260040161143690612a98565b60405180910390fd5b6000670de0b6b3a7640000600354600b5461145a9190612cc8565b6114649190612c97565b600760009054906101000a900473ffffffffffffffffffffffffffffffffffffffff1673ffffffffffffffffffffffffffffffffffffffff166370a08231306040518263ffffffff1660e01b81526004016114bf9190612956565b60206040518083038186803b1580156114d757600080fd5b505afa1580156114eb573d6000803e3d6000fd5b505050506040513d601f19601f8201168201806040525081019061150f919061268f565b6115199190612d22565b905061156a600760009054906101000a900473ffffffffffffffffffffffffffffffffffffffff16600660009054906101000a900473ffffffffffffffffffffffffffffffffffffffff1683611eaf565b7f8de2e60544c6df64589d507aacf293ef9d47f7a26438c7add2ab99f341437a51600760009054906101000a900473ffffffffffffffffffffffffffffffffffffffff16600660009054906101000a900473ffffffffffffffffffffffffffffffffffffffff1630846040516115e39493929190612971565b60405180910390a150565b6000801515601460019054906101000a900460ff16151514611645576040517f08c379a000000000000000000000000000000000000000000000000000000000815260040161163c90612b38565b60405180910390fd5b60095482600760009054906101000a900473ffffffffffffffffffffffffffffffffffffffff1673ffffffffffffffffffffffffffffffffffffffff166370a08231306040518263ffffffff1660e01b81526004016116a49190612956565b60206040518083038186803b1580156116bc57600080fd5b505afa1580156116d0573d6000803e3d6000fd5b505050506040513d601f19601f820116820180604052508101906116f4919061268f565b6116fe9190612c41565b1061171f576001601460016101000a81548160ff0219169083151502179055505b60008211156117b657611756600760009054906101000a900473ffffffffffffffffffffffffffffffffffffffff163330856120a7565b7f2a10581f2de5e726db0b9d66dfa2cb1bf30af8391fb31fcf67cc70c0d3914bc5600760009054906101000a900473ffffffffffffffffffffffffffffffffffffffff163330856040516117ad9493929190612971565b60405180910390a15b60011515601460019054906101000a900460ff16151514156118595742601281905550601154426117e79190612c41565b6013819055507fef0b5858e4b6fb0b329523f828163c115757a56863ae8a0950bf555ab8cca122600d60009054906101000a900473ffffffffffffffffffffffffffffffffffffffff163060125460135460405161184894939291906129ed565b60405180910390a16001905061185e565b600090505b919050565b60135481565b600b5481565b60105481565b6004602052816000526040600020602052806000526040600020600091509150505481565b3373ffffffffffffffffffffffffffffffffffffffff168273ffffffffffffffffffffffffffffffffffffffff1614611908576040517f08c379a00000000000000000000000000000000000000000000000000000000081526004016118ff90612ad8565b60405180910390fd5b6119128282611917565b505050565b600080600560008573ffffffffffffffffffffffffffffffffffffffff1673ffffffffffffffffffffffffffffffffffffffff168152602001908152602001600020541115611c9757600060105442116119715742611975565b6010545b9050600e548111806119e15750600e548114801561199557506000600f54145b80156119e057506000601560008673ffffffffffffffffffffffffffffffffffffffff1673ffffffffffffffffffffffffffffffffffffffff16815260200190815260200160002054145b5b15611c95576000601560008673ffffffffffffffffffffffffffffffffffffffff1673ffffffffffffffffffffffffffffffffffffffff168152602001908152602001600020541415611a7557600e54601560008673ffffffffffffffffffffffffffffffffffffffff1673ffffffffffffffffffffffffffffffffffffffff168152602001908152602001600020819055505b6000601560008673ffffffffffffffffffffffffffffffffffffffff1673ffffffffffffffffffffffffffffffffffffffff1681526020019081526020016000205482611ac29190612d22565b9050600080600f5414611b2c57600f5482600560008973ffffffffffffffffffffffffffffffffffffffff1673ffffffffffffffffffffffffffffffffffffffff16815260200190815260200160002054611b1d9190612cc8565b611b279190612c97565b611b6d565b600560008773ffffffffffffffffffffffffffffffffffffffff1673ffffffffffffffffffffffffffffffffffffffff168152602001908152602001600020545b90506000670de0b6b3a764000082600b54611b889190612cc8565b611b929190612c97565b90506000821115611c4d57611ba787836121c9565b611bd4600760009054906101000a900473ffffffffffffffffffffffffffffffffffffffff168783611eaf565b80600a6000828254611be69190612c41565b925050819055507f2f19a93d6edcb98e0144116ba9a9a7a187ea93a0636b581247d85291d427bbc9600760009054906101000a900473ffffffffffffffffffffffffffffffffffffffff16888884604051611c449493929190612971565b60405180910390a15b83601560008973ffffffffffffffffffffffffffffffffffffffff1673ffffffffffffffffffffffffffffffffffffffff168152602001908152602001600020819055505050505b505b92915050565b6000801515600260009054906101000a900460ff16151514611cf4576040517f08c379a0000000000000000000000000000000000000000000000000000000008152600401611ceb90612ab8565b60405180910390fd5b8260009080519060200190611d0a9291906122a2565b508160019080519060200190611d219291906122a2565b506001600260006101000a81548160ff0219169083151502179055506001905092915050565b611d518384611917565b50600081600560008673ffffffffffffffffffffffffffffffffffffffff1673ffffffffffffffffffffffffffffffffffffffff1681526020019081526020016000205411611da05781611de1565b600560008573ffffffffffffffffffffffffffffffffffffffff1673ffffffffffffffffffffffffffffffffffffffff168152602001908152602001600020545b9050611ded8384611917565b5080600560008573ffffffffffffffffffffffffffffffffffffffff1673ffffffffffffffffffffffffffffffffffffffff1681526020019081526020016000206000828254611e3d9190612c41565b925050819055508273ffffffffffffffffffffffffffffffffffffffff168473ffffffffffffffffffffffffffffffffffffffff167fddf252ad1be2c89b69c2b068fc378daa952ba7f163c4a11628f55a4df523b3ef83604051611ea19190612b78565b60405180910390a350505050565b6000808473ffffffffffffffffffffffffffffffffffffffff1663a9059cbb60e01b8585604051602401611ee4929190612a32565b604051602081830303815290604052907bffffffffffffffffffffffffffffffffffffffffffffffffffffffff19166020820180517bffffffffffffffffffffffffffffffffffffffffffffffffffffffff8381831617835250505050604051611f4e91906128fb565b6000604051808303816000865af19150503d8060008114611f8b576040519150601f19603f3d011682016040523d82523d6000602084013e611f90565b606091505b5091509150818015611fbe5750600081511480611fbd575080806020019051810190611fbc919061251e565b5b5b611fc757600080fd5b5050505050565b8060036000828254611fe09190612c41565b9250508190555080600560008473ffffffffffffffffffffffffffffffffffffffff1673ffffffffffffffffffffffffffffffffffffffff16815260200190815260200160002060008282546120369190612c41565b925050819055508173ffffffffffffffffffffffffffffffffffffffff16600073ffffffffffffffffffffffffffffffffffffffff167fddf252ad1be2c89b69c2b068fc378daa952ba7f163c4a11628f55a4df523b3ef8360405161209b9190612b78565b60405180910390a35050565b6000808573ffffffffffffffffffffffffffffffffffffffff166323b872dd60e01b8686866040516024016120de939291906129b6565b604051602081830303815290604052907bffffffffffffffffffffffffffffffffffffffffffffffffffffffff19166020820180517bffffffffffffffffffffffffffffffffffffffffffffffffffffffff838183161783525050505060405161214891906128fb565b6000604051808303816000865af19150503d8060008114612185576040519150601f19603f3d011682016040523d82523d6000602084013e61218a565b606091505b50915091508180156121b857506000815114806121b75750808060200190518101906121b6919061251e565b5b5b6121c157600080fd5b505050505050565b80600360008282546121db9190612d22565b9250508190555080600560008473ffffffffffffffffffffffffffffffffffffffff1673ffffffffffffffffffffffffffffffffffffffff16815260200190815260200160002060008282546122319190612d22565b92505081905550600073ffffffffffffffffffffffffffffffffffffffff168273ffffffffffffffffffffffffffffffffffffffff167fddf252ad1be2c89b69c2b068fc378daa952ba7f163c4a11628f55a4df523b3ef836040516122969190612b78565b60405180910390a35050565b8280546122ae90612ded565b90600052602060002090601f0160209004810192826122d05760008555612317565b82601f106122e957805160ff1916838001178555612317565b82800160010185558215612317579182015b828111156123165782518255916020019190600101906122fb565b5b5090506123249190612328565b5090565b5b80821115612341576000816000905550600101612329565b5090565b600061235861235384612bd3565b612bae565b90508281526020810184848401111561237457612373612f11565b5b61237f848285612dab565b509392505050565b600081359050612396816130a2565b92915050565b6000815190506123ab816130b9565b92915050565b600082601f8301126123c6576123c5612f0c565b5b81356123d6848260208601612345565b91505092915050565b6000813590506123ee816130d0565b92915050565b600081519050612403816130d0565b92915050565b600081519050612418816130e7565b92915050565b60006020828403121561243457612433612f1b565b5b600061244284828501612387565b91505092915050565b6000806040838503121561246257612461612f1b565b5b600061247085828601612387565b925050602061248185828601612387565b9150509250929050565b6000806000606084860312156124a4576124a3612f1b565b5b60006124b286828701612387565b93505060206124c386828701612387565b92505060406124d4868287016123df565b9150509250925092565b600080604083850312156124f5576124f4612f1b565b5b600061250385828601612387565b9250506020612514858286016123df565b9150509250929050565b60006020828403121561253457612533612f1b565b5b60006125428482850161239c565b91505092915050565b6000806000806000806000806000806101408b8d03121561256f5761256e612f1b565b5b60008b013567ffffffffffffffff81111561258d5761258c612f16565b5b6125998d828e016123b1565b9a505060208b013567ffffffffffffffff8111156125ba576125b9612f16565b5b6125c68d828e016123b1565b99505060406125d78d828e01612387565b98505060606125e88d828e016123df565b97505060806125f98d828e016123df565b96505060a061260a8d828e016123df565b95505060c061261b8d828e016123df565b94505060e061262c8d828e016123df565b93505061010061263e8d828e01612387565b9250506101206126508d828e016123df565b9150509295989b9194979a5092959850565b60006020828403121561267857612677612f1b565b5b6000612686848285016123df565b91505092915050565b6000602082840312156126a5576126a4612f1b565b5b60006126b3848285016123f4565b91505092915050565b6000602082840312156126d2576126d1612f1b565b5b60006126e084828501612409565b91505092915050565b6126f281612d56565b82525050565b61270181612d68565b82525050565b600061271282612c04565b61271c8185612c1a565b935061272c818560208601612dba565b80840191505092915050565b600061274382612c0f565b61274d8185612c25565b935061275d818560208601612dba565b61276681612f20565b840191505092915050565b600061277c82612c0f565b6127868185612c36565b9350612796818560208601612dba565b80840191505092915050565b60006127af601a83612c25565b91506127ba82612f31565b602082019050919050565b60006127d2601883612c25565b91506127dd82612f5a565b602082019050919050565b60006127f5600783612c36565b915061280082612f83565b600782019050919050565b6000612818600483612c36565b915061282382612fac565b600482019050919050565b600061283b601a83612c25565b915061284682612fd5565b602082019050919050565b600061285e601983612c25565b915061286982612ffe565b602082019050919050565b6000612881601d83612c25565b915061288c82613027565b602082019050919050565b60006128a4601883612c25565b91506128af82613050565b602082019050919050565b60006128c7601683612c25565b91506128d282613079565b602082019050919050565b6128e681612d94565b82525050565b6128f581612d9e565b82525050565b60006129078284612707565b915081905092915050565b600061291d826127e8565b91506129298284612771565b915081905092915050565b600061293f8261280b565b915061294b8284612771565b915081905092915050565b600060208201905061296b60008301846126e9565b92915050565b600060808201905061298660008301876126e9565b61299360208301866126e9565b6129a060408301856126e9565b6129ad60608301846128dd565b95945050505050565b60006060820190506129cb60008301866126e9565b6129d860208301856126e9565b6129e560408301846128dd565b949350505050565b6000608082019050612a0260008301876126e9565b612a0f60208301866126e9565b612a1c60408301856128dd565b612a2960608301846128dd565b95945050505050565b6000604082019050612a4760008301856126e9565b612a5460208301846128dd565b9392505050565b6000602082019050612a7060008301846126f8565b92915050565b60006020820190508181036000830152612a908184612738565b905092915050565b60006020820190508181036000830152612ab1816127a2565b9050919050565b60006020820190508181036000830152612ad1816127c5565b9050919050565b60006020820190508181036000830152612af18161282e565b9050919050565b60006020820190508181036000830152612b1181612851565b9050919050565b60006020820190508181036000830152612b3181612874565b9050919050565b60006020820190508181036000830152612b5181612897565b9050919050565b60006020820190508181036000830152612b71816128ba565b9050919050565b6000602082019050612b8d60008301846128dd565b92915050565b6000602082019050612ba860008301846128ec565b92915050565b6000612bb8612bc9565b9050612bc48282612e1f565b919050565b6000604051905090565b600067ffffffffffffffff821115612bee57612bed612edd565b5b612bf782612f20565b9050602081019050919050565b600081519050919050565b600081519050919050565b600081905092915050565b600082825260208201905092915050565b600081905092915050565b6000612c4c82612d94565b9150612c5783612d94565b9250827fffffffffffffffffffffffffffffffffffffffffffffffffffffffffffffffff03821115612c8c57612c8b612e50565b5b828201905092915050565b6000612ca282612d94565b9150612cad83612d94565b925082612cbd57612cbc612e7f565b5b828204905092915050565b6000612cd382612d94565b9150612cde83612d94565b9250817fffffffffffffffffffffffffffffffffffffffffffffffffffffffffffffffff0483118215151615612d1757612d16612e50565b5b828202905092915050565b6000612d2d82612d94565b9150612d3883612d94565b925082821015612d4b57612d4a612e50565b5b828203905092915050565b6000612d6182612d74565b9050919050565b60008115159050919050565b600073ffffffffffffffffffffffffffffffffffffffff82169050919050565b6000819050919050565b600060ff82169050919050565b82818337600083830152505050565b60005b83811015612dd8578082015181840152602081019050612dbd565b83811115612de7576000848401525b50505050565b60006002820490506001821680612e0557607f821691505b60208210811415612e1957612e18612eae565b5b50919050565b612e2882612f20565b810181811067ffffffffffffffff82111715612e4757612e46612edd565b5b80604052505050565b7f4e487b7100000000000000000000000000000000000000000000000000000000600052601160045260246000fd5b7f4e487b7100000000000000000000000000000000000000000000000000000000600052601260045260246000fd5b7f4e487b7100000000000000000000000000000000000000000000000000000000600052602260045260246000fd5b7f4e487b7100000000000000000000000000000000000000000000000000000000600052604160045260246000fd5b600080fd5b600080fd5b600080fd5b600080fd5b6000601f19601f8301169050919050565b7f72656465656d2077696e646f77207374696c6c20616374697665000000000000600082015250565b7f63616e206f6e6c7920696e697469616c697a65206f6e63650000000000000000600082015250565b7f61654465616c2d00000000000000000000000000000000000000000000000000600082015250565b7f6165442d00000000000000000000000000000000000000000000000000000000600082015250565b7f6f6e6c7920636c61696d616e742063616e20616c6c6f63617465000000000000600082015250565b7f6f6e6c792041656c696e506f6f6c2063616e2061636365737300000000000000600082015250565b7f726564656d7074696f6e20706572696f64206e6f742073746172746564000000600082015250565b7f6465706f73697420616c726561647920636f6d706c6574650000000000000000600082015250565b7f6f6e6c7920686f6c6465722063616e2061636365737300000000000000000000600082015250565b6130ab81612d56565b81146130b657600080fd5b50565b6130c281612d68565b81146130cd57600080fd5b50565b6130d981612d94565b81146130e457600080fd5b50565b6130f081612d9e565b81146130fb57600080fd5b5056fea2646970667358221220b657614ebc7ab030a936ae8e772c213d5154fc267039a03045873503695ffb4864736f6c63430008060033",
  "linkReferences": {},
  "deployedLinkReferences": {}
}