{
  "_format": "hh-sol-artifact-1",
  "contractName": "AelinDeal",
  "sourceName": "contracts/AelinDeal.sol",
  "abi": [
    {
      "inputs": [],
      "stateMutability": "nonpayable",
      "type": "constructor"
    },
    {
      "anonymous": false,
      "inputs": [
        {
          "indexed": true,
          "internalType": "address",
          "name": "owner",
          "type": "address"
        },
        {
          "indexed": true,
          "internalType": "address",
          "name": "spender",
          "type": "address"
        },
        {
          "indexed": false,
          "internalType": "uint256",
          "name": "amount",
          "type": "uint256"
        }
      ],
      "name": "Approval",
      "type": "event"
    },
    {
      "anonymous": false,
      "inputs": [
        {
          "indexed": true,
          "internalType": "address",
          "name": "underlyingDealTokenAddress",
          "type": "address"
        },
        {
          "indexed": true,
          "internalType": "address",
          "name": "from",
          "type": "address"
        },
        {
          "indexed": true,
          "internalType": "address",
          "name": "recipient",
          "type": "address"
        },
        {
          "indexed": false,
          "internalType": "uint256",
          "name": "underlyingDealTokensClaimed",
          "type": "uint256"
        }
      ],
      "name": "ClaimedUnderlyingDealTokens",
      "type": "event"
    },
    {
      "anonymous": false,
      "inputs": [
        {
          "indexed": true,
          "internalType": "address",
          "name": "poolAddress",
          "type": "address"
        },
        {
          "indexed": true,
          "internalType": "address",
          "name": "dealAddress",
          "type": "address"
        },
        {
          "indexed": false,
          "internalType": "uint256",
          "name": "proRataRedemptionStart",
          "type": "uint256"
        },
        {
          "indexed": false,
          "internalType": "uint256",
          "name": "proRataRedemptionExpiry",
          "type": "uint256"
        },
        {
          "indexed": false,
          "internalType": "uint256",
          "name": "openRedemptionStart",
          "type": "uint256"
        },
        {
          "indexed": false,
          "internalType": "uint256",
          "name": "openRedemptionExpiry",
          "type": "uint256"
        }
      ],
      "name": "DealFullyFunded",
      "type": "event"
    },
    {
      "anonymous": false,
      "inputs": [
        {
          "indexed": true,
          "internalType": "address",
          "name": "underlyingDealTokenAddress",
          "type": "address"
        },
        {
          "indexed": true,
          "internalType": "address",
          "name": "depositor",
          "type": "address"
        },
        {
          "indexed": true,
          "internalType": "address",
          "name": "dealContract",
          "type": "address"
        },
        {
          "indexed": false,
          "internalType": "uint256",
          "name": "underlyingDealTokenAmount",
          "type": "uint256"
        }
      ],
      "name": "DepositDealTokens",
      "type": "event"
    },
    {
      "anonymous": false,
      "inputs": [
        {
          "indexed": true,
          "internalType": "address",
          "name": "dealContract",
          "type": "address"
        },
        {
          "indexed": true,
          "internalType": "address",
          "name": "recipient",
          "type": "address"
        },
        {
          "indexed": false,
          "internalType": "uint256",
          "name": "dealTokenAmount",
          "type": "uint256"
        }
      ],
      "name": "MintDealTokens",
      "type": "event"
    },
    {
      "anonymous": false,
      "inputs": [
        {
          "indexed": true,
          "internalType": "address",
          "name": "from",
          "type": "address"
        },
        {
          "indexed": true,
          "internalType": "address",
          "name": "to",
          "type": "address"
        },
        {
          "indexed": false,
          "internalType": "uint256",
          "name": "amount",
          "type": "uint256"
        }
      ],
      "name": "Transfer",
      "type": "event"
    },
    {
      "anonymous": false,
      "inputs": [
        {
          "indexed": true,
          "internalType": "address",
          "name": "underlyingDealTokenAddress",
          "type": "address"
        },
        {
          "indexed": true,
          "internalType": "address",
          "name": "depositor",
          "type": "address"
        },
        {
          "indexed": true,
          "internalType": "address",
          "name": "dealContract",
          "type": "address"
        },
        {
          "indexed": false,
          "internalType": "uint256",
          "name": "underlyingDealTokenAmount",
          "type": "uint256"
        }
      ],
      "name": "WithdrawUnderlyingDealTokens",
      "type": "event"
    },
    {
      "inputs": [],
      "name": "AELIN_POOL_ADDRESS",
      "outputs": [
        {
          "internalType": "address",
          "name": "",
          "type": "address"
        }
      ],
      "stateMutability": "view",
      "type": "function"
    },
    {
      "inputs": [],
      "name": "CALLED_INITIALIZE",
      "outputs": [
        {
          "internalType": "bool",
          "name": "",
          "type": "bool"
        }
      ],
      "stateMutability": "view",
      "type": "function"
    },
    {
      "inputs": [],
      "name": "DEPOSIT_COMPLETE",
      "outputs": [
        {
          "internalType": "bool",
          "name": "",
          "type": "bool"
        }
      ],
      "stateMutability": "view",
      "type": "function"
    },
    {
      "inputs": [],
      "name": "HOLDER",
      "outputs": [
        {
          "internalType": "address",
          "name": "",
          "type": "address"
        }
      ],
      "stateMutability": "view",
      "type": "function"
    },
    {
      "inputs": [],
      "name": "MAX_TOTAL_SUPPLY",
      "outputs": [
        {
          "internalType": "uint256",
          "name": "",
          "type": "uint256"
        }
      ],
      "stateMutability": "view",
      "type": "function"
    },
    {
      "inputs": [],
      "name": "OPEN_REDEMPTION_EXPIRY",
      "outputs": [
        {
          "internalType": "uint256",
          "name": "",
          "type": "uint256"
        }
      ],
      "stateMutability": "view",
      "type": "function"
    },
    {
      "inputs": [],
      "name": "OPEN_REDEMPTION_PERIOD",
      "outputs": [
        {
          "internalType": "uint256",
          "name": "",
          "type": "uint256"
        }
      ],
      "stateMutability": "view",
      "type": "function"
    },
    {
      "inputs": [],
      "name": "OPEN_REDEMPTION_START",
      "outputs": [
        {
          "internalType": "uint256",
          "name": "",
          "type": "uint256"
        }
      ],
      "stateMutability": "view",
      "type": "function"
    },
    {
      "inputs": [],
      "name": "PRO_RATA_REDEMPTION_EXPIRY",
      "outputs": [
        {
          "internalType": "uint256",
          "name": "",
          "type": "uint256"
        }
      ],
      "stateMutability": "view",
      "type": "function"
    },
    {
      "inputs": [],
      "name": "PRO_RATA_REDEMPTION_PERIOD",
      "outputs": [
        {
          "internalType": "uint256",
          "name": "",
          "type": "uint256"
        }
      ],
      "stateMutability": "view",
      "type": "function"
    },
    {
      "inputs": [],
      "name": "PRO_RATA_REDEMPTION_START",
      "outputs": [
        {
          "internalType": "uint256",
          "name": "",
          "type": "uint256"
        }
      ],
      "stateMutability": "view",
      "type": "function"
    },
    {
      "inputs": [],
      "name": "TOTAL_UNDERLYING_CLAIMED",
      "outputs": [
        {
          "internalType": "uint256",
          "name": "",
          "type": "uint256"
        }
      ],
      "stateMutability": "view",
      "type": "function"
    },
    {
      "inputs": [],
      "name": "UNDERLYING_DEAL_TOKEN",
      "outputs": [
        {
          "internalType": "address",
          "name": "",
          "type": "address"
        }
      ],
      "stateMutability": "view",
      "type": "function"
    },
    {
      "inputs": [],
      "name": "UNDERLYING_DEAL_TOKENS_TOTAL",
      "outputs": [
        {
          "internalType": "uint256",
          "name": "",
          "type": "uint256"
        }
      ],
      "stateMutability": "view",
      "type": "function"
    },
    {
      "inputs": [],
      "name": "UNDERLYING_DEAL_TOKEN_DECIMALS",
      "outputs": [
        {
          "internalType": "uint256",
          "name": "",
          "type": "uint256"
        }
      ],
      "stateMutability": "view",
      "type": "function"
    },
    {
      "inputs": [],
      "name": "UNDERLYING_PER_POOL_EXCHANGE_RATE",
      "outputs": [
        {
          "internalType": "uint256",
          "name": "",
          "type": "uint256"
        }
      ],
      "stateMutability": "view",
      "type": "function"
    },
    {
      "inputs": [],
      "name": "VESTING_CLIFF",
      "outputs": [
        {
          "internalType": "uint256",
          "name": "",
          "type": "uint256"
        }
      ],
      "stateMutability": "view",
      "type": "function"
    },
    {
      "inputs": [],
      "name": "VESTING_EXPIRY",
      "outputs": [
        {
          "internalType": "uint256",
          "name": "",
          "type": "uint256"
        }
      ],
      "stateMutability": "view",
      "type": "function"
    },
    {
      "inputs": [],
      "name": "VESTING_PERIOD",
      "outputs": [
        {
          "internalType": "uint256",
          "name": "",
          "type": "uint256"
        }
      ],
      "stateMutability": "view",
      "type": "function"
    },
    {
      "inputs": [
        {
          "internalType": "address",
          "name": "",
          "type": "address"
        },
        {
          "internalType": "address",
          "name": "",
          "type": "address"
        }
      ],
      "name": "allowance",
      "outputs": [
        {
          "internalType": "uint256",
          "name": "",
          "type": "uint256"
        }
      ],
      "stateMutability": "view",
      "type": "function"
    },
    {
      "inputs": [
        {
          "internalType": "address",
          "name": "spender",
          "type": "address"
        },
        {
          "internalType": "uint256",
          "name": "amount",
          "type": "uint256"
        }
      ],
      "name": "approve",
      "outputs": [
        {
          "internalType": "bool",
          "name": "",
          "type": "bool"
        }
      ],
      "stateMutability": "nonpayable",
      "type": "function"
    },
    {
      "inputs": [
        {
          "internalType": "address",
          "name": "",
          "type": "address"
        }
      ],
      "name": "balanceOf",
      "outputs": [
        {
          "internalType": "uint256",
          "name": "",
          "type": "uint256"
        }
      ],
      "stateMutability": "view",
      "type": "function"
    },
    {
      "inputs": [
        {
          "internalType": "address",
          "name": "from",
          "type": "address"
        }
      ],
      "name": "claim",
      "outputs": [],
      "stateMutability": "nonpayable",
      "type": "function"
    },
    {
      "inputs": [
        {
          "internalType": "address",
          "name": "from",
          "type": "address"
        },
        {
          "internalType": "address",
          "name": "recipient",
          "type": "address"
        }
      ],
      "name": "claimAndAllocate",
      "outputs": [],
      "stateMutability": "nonpayable",
      "type": "function"
    },
    {
      "inputs": [],
      "name": "decimals",
      "outputs": [
        {
          "internalType": "uint8",
          "name": "",
          "type": "uint8"
        }
      ],
      "stateMutability": "view",
      "type": "function"
    },
    {
      "inputs": [
        {
          "internalType": "uint256",
          "name": "_underlying_deal_token_amount",
          "type": "uint256"
        }
      ],
      "name": "depositUnderlying",
      "outputs": [
        {
          "internalType": "bool",
          "name": "",
          "type": "bool"
        }
      ],
      "stateMutability": "nonpayable",
      "type": "function"
    },
    {
      "inputs": [
        {
          "internalType": "string",
          "name": "_name",
          "type": "string"
        },
        {
          "internalType": "string",
          "name": "_symbol",
          "type": "string"
        },
        {
          "internalType": "address",
          "name": "_underlying_deal_token",
          "type": "address"
        },
        {
          "internalType": "uint256",
          "name": "_underlying_deal_token_total",
          "type": "uint256"
        },
        {
          "internalType": "uint256",
          "name": "_vesting_period",
          "type": "uint256"
        },
        {
          "internalType": "uint256",
          "name": "_vesting_cliff",
          "type": "uint256"
        },
        {
          "internalType": "uint256",
          "name": "_pro_rata_redemption_period",
          "type": "uint256"
        },
        {
          "internalType": "uint256",
          "name": "_open_redemption_period",
          "type": "uint256"
        },
        {
          "internalType": "address",
          "name": "_holder",
          "type": "address"
        },
        {
          "internalType": "uint256",
          "name": "_pool_token_max_purchase_amount",
          "type": "uint256"
        }
      ],
      "name": "initialize",
      "outputs": [],
      "stateMutability": "nonpayable",
      "type": "function"
    },
    {
      "inputs": [
        {
          "internalType": "address",
          "name": "",
          "type": "address"
        }
      ],
      "name": "lastClaim",
      "outputs": [
        {
          "internalType": "uint256",
          "name": "",
          "type": "uint256"
        }
      ],
      "stateMutability": "view",
      "type": "function"
    },
    {
      "inputs": [
        {
          "internalType": "address",
          "name": "dst",
          "type": "address"
        },
        {
          "internalType": "uint256",
          "name": "dealTokenAmount",
          "type": "uint256"
        }
      ],
      "name": "mint",
      "outputs": [],
      "stateMutability": "nonpayable",
      "type": "function"
    },
    {
      "inputs": [],
      "name": "name",
      "outputs": [
        {
          "internalType": "string",
          "name": "",
          "type": "string"
        }
      ],
      "stateMutability": "view",
      "type": "function"
    },
    {
      "inputs": [],
      "name": "symbol",
      "outputs": [
        {
          "internalType": "string",
          "name": "",
          "type": "string"
        }
      ],
      "stateMutability": "view",
      "type": "function"
    },
    {
      "inputs": [],
      "name": "totalSupply",
      "outputs": [
        {
          "internalType": "uint256",
          "name": "",
          "type": "uint256"
        }
      ],
      "stateMutability": "view",
      "type": "function"
    },
    {
      "inputs": [
        {
          "internalType": "address",
          "name": "dst",
          "type": "address"
        },
        {
          "internalType": "uint256",
          "name": "dealTokenAmount",
          "type": "uint256"
        }
      ],
      "name": "transfer",
      "outputs": [
        {
          "internalType": "bool",
          "name": "",
          "type": "bool"
        }
      ],
      "stateMutability": "nonpayable",
      "type": "function"
    },
    {
      "inputs": [
        {
          "internalType": "address",
          "name": "src",
          "type": "address"
        },
        {
          "internalType": "address",
          "name": "dst",
          "type": "address"
        },
        {
          "internalType": "uint256",
          "name": "amount",
          "type": "uint256"
        }
      ],
      "name": "transferFrom",
      "outputs": [
        {
          "internalType": "bool",
          "name": "",
          "type": "bool"
        }
      ],
      "stateMutability": "nonpayable",
      "type": "function"
    },
    {
      "inputs": [
        {
          "internalType": "address",
          "name": "purchaser",
          "type": "address"
        }
      ],
      "name": "underlyingDealTokensClaimable",
      "outputs": [
        {
          "internalType": "uint256",
          "name": "",
          "type": "uint256"
        }
      ],
      "stateMutability": "view",
      "type": "function"
    },
    {
      "inputs": [],
      "name": "withdraw",
      "outputs": [],
      "stateMutability": "nonpayable",
      "type": "function"
    },
    {
      "inputs": [],
      "name": "withdrawExpiry",
      "outputs": [],
      "stateMutability": "nonpayable",
      "type": "function"
    }
  ],
  "bytecode": "0x60806040526000600260006101000a81548160ff02191690831515021790555060006003556000601760006101000a81548160ff0219169083151502179055506000601760016101000a81548160ff02191690831515021790555034801561006657600080fd5b50613326806100766000396000f3fe608060405234801561001057600080fd5b50600436106102275760003560e01c80635d4e492211610130578063a9059cbb116100b8578063c9793f6d1161007c578063c9793f6d1461063c578063d08c275c1461065a578063d781739214610678578063dd62ed3e14610696578063f5a466c6146106c657610227565b8063a9059cbb14610596578063adeb5607146105c6578063b9dfaba8146105e4578063b9f5be41146105ee578063c14e86bf1461061e57610227565b806370a08231116100ff57806370a08231146104ee57806392f3f9041461051e57806395d89b411461053c57806396069fb51461055a5780639c6cb4a61461057857610227565b80635d4e49221461047657806363f3dbe514610494578063688d0c2c146104b25780636c84e646146104d057610227565b8063313ce567116101b357806340c10f191161018257806340c10f19146103d05780634205f092146103ec578063540270f41461040a578063562df7de146104285780635c16e15e1461044657610227565b8063313ce5671461035a57806333039d3d146103785780633bf88c44146103965780633ccfd60b146103c657610227565b8063182cf94b116101fa578063182cf94b146102b65780631e83409a146102d4578063206efe20146102f057806323b872dd1461030c5780632be529d81461033c57610227565b80630197d9721461022c57806306fdde031461024a578063095ea7b31461026857806318160ddd14610298575b600080fd5b6102346106e2565b6040516102419190612d25565b60405180910390f35b6102526106e8565b60405161025f9190612c23565b60405180910390f35b610282600480360381019061027d9190612715565b610776565b60405161028f9190612c08565b60405180910390f35b6102a0610868565b6040516102ad9190612d25565b60405180910390f35b6102be61086e565b6040516102cb9190612b8d565b60405180910390f35b6102ee60048036038101906102e99190612655565b610894565b005b61030a60048036038101906103059190612782565b6108a2565b005b610326600480360381019061032191906126c2565b610b51565b6040516103339190612c08565b60405180910390f35b610344610d49565b6040516103519190612b8d565b60405180910390f35b610362610d6f565b60405161036f9190612d85565b60405180910390f35b610380610d74565b60405161038d9190612d25565b60405180910390f35b6103b060048036038101906103ab9190612655565b610d7a565b6040516103bd9190612d25565b60405180910390f35b6103ce610f69565b005b6103ea60048036038101906103e59190612715565b6111d4565b005b6103f46112d7565b6040516104019190612d25565b60405180910390f35b6104126112dd565b60405161041f9190612d25565b60405180910390f35b6104306112e3565b60405161043d9190612b8d565b60405180910390f35b610460600480360381019061045b9190612655565b611309565b60405161046d9190612d25565b60405180910390f35b61047e611321565b60405161048b9190612d25565b60405180910390f35b61049c611327565b6040516104a99190612d25565b60405180910390f35b6104ba61132d565b6040516104c79190612c08565b60405180910390f35b6104d8611340565b6040516104e59190612d25565b60405180910390f35b61050860048036038101906105039190612655565b611346565b6040516105159190612d25565b60405180910390f35b61052661135e565b6040516105339190612c08565b60405180910390f35b610544611371565b6040516105519190612c23565b60405180910390f35b6105626113ff565b60405161056f9190612d25565b60405180910390f35b610580611405565b60405161058d9190612d25565b60405180910390f35b6105b060048036038101906105ab9190612715565b61140b565b6040516105bd9190612c08565b60405180910390f35b6105ce611422565b6040516105db9190612d25565b60405180910390f35b6105ec611428565b005b61060860048036038101906106039190612899565b611744565b6040516106159190612c08565b60405180910390f35b610626611a55565b6040516106339190612d25565b60405180910390f35b610644611a5b565b6040516106519190612d25565b60405180910390f35b610662611a61565b60405161066f9190612d25565b60405180910390f35b610680611a67565b60405161068d9190612d25565b60405180910390f35b6106b060048036038101906106ab9190612682565b611a6d565b6040516106bd9190612d25565b60405180910390f35b6106e060048036038101906106db9190612682565b611a92565b005b600f5481565b600080546106f590612fdf565b80601f016020809104026020016040519081016040528092919081815260200182805461072190612fdf565b801561076e5780601f106107435761010080835404028352916020019161076e565b820191906000526020600020905b81548152906001019060200180831161075157829003601f168201915b505050505081565b600081600460003373ffffffffffffffffffffffffffffffffffffffff1673ffffffffffffffffffffffffffffffffffffffff16815260200190815260200160002060008573ffffffffffffffffffffffffffffffffffffffff1673ffffffffffffffffffffffffffffffffffffffff168152602001908152602001600020819055508273ffffffffffffffffffffffffffffffffffffffff163373ffffffffffffffffffffffffffffffffffffffff167f8c5be1e5ebec7d5bd14f71427d1e84f3dd0314c0f7b2291e5b200ac8c7c3b925846040516108569190612d25565b60405180910390a36001905092915050565b60035481565b600760009054906101000a900473ffffffffffffffffffffffffffffffffffffffff1681565b61089e8182611b0f565b5050565b60001515601760009054906101000a900460ff161515146108f8576040517f08c379a00000000000000000000000000000000000000000000000000000000081526004016108ef90612c65565b60405180910390fd5b6109408a60405160200161090c9190612b49565b6040516020818303038152906040528a60405160200161092c9190612b6b565b604051602081830303815290604052611ed4565b5081600b60006101000a81548173ffffffffffffffffffffffffffffffffffffffff021916908373ffffffffffffffffffffffffffffffffffffffff16021790555087600760006101000a81548173ffffffffffffffffffffffffffffffffffffffff021916908373ffffffffffffffffffffffffffffffffffffffff1602179055508773ffffffffffffffffffffffffffffffffffffffff1663313ce5676040518163ffffffff1660e01b815260040160206040518083038186803b158015610a0957600080fd5b505afa158015610a1d573d6000803e3d6000fd5b505050506040513d601f19601f82011682018060405250810190610a4191906128f3565b60ff16600881905550866009819055508060068190555033600d60006101000a81548173ffffffffffffffffffffffffffffffffffffffff021916908373ffffffffffffffffffffffffffffffffffffffff16021790555084838542610aa79190612e33565b610ab19190612e33565b610abb9190612e33565b600e8190555085600f8190555085600e54610ad69190612e33565b60108190555083601181905550826014819055506001601760006101000a81548160ff0219169083151502179055506000601760016101000a81548160ff02191690831515021790555080670de0b6b3a764000088610b359190612eba565b610b3f9190612e89565b600c8190555050505050505050505050565b6000803390506000600460008773ffffffffffffffffffffffffffffffffffffffff1673ffffffffffffffffffffffffffffffffffffffff16815260200190815260200160002060008373ffffffffffffffffffffffffffffffffffffffff1673ffffffffffffffffffffffffffffffffffffffff1681526020019081526020016000205490508573ffffffffffffffffffffffffffffffffffffffff168273ffffffffffffffffffffffffffffffffffffffff1614158015610c3457507fffffffffffffffffffffffffffffffffffffffffffffffffffffffffffffffff8114155b15610d315760008482610c479190612f14565b905080600460008973ffffffffffffffffffffffffffffffffffffffff1673ffffffffffffffffffffffffffffffffffffffff16815260200190815260200160002060008573ffffffffffffffffffffffffffffffffffffffff1673ffffffffffffffffffffffffffffffffffffffff168152602001908152602001600020819055508273ffffffffffffffffffffffffffffffffffffffff168773ffffffffffffffffffffffffffffffffffffffff167f8c5be1e5ebec7d5bd14f71427d1e84f3dd0314c0f7b2291e5b200ac8c7c3b92583604051610d279190612d25565b60405180910390a3505b610d3c868686611f7e565b6001925050509392505050565b600b60009054906101000a900473ffffffffffffffffffffffffffffffffffffffff1681565b601281565b60065481565b6000806010544211610d8c5742610d90565b6010545b9050600e54811180610dfc5750600e5481148015610db057506000600f54145b8015610dfb57506000601860008573ffffffffffffffffffffffffffffffffffffffff1673ffffffffffffffffffffffffffffffffffffffff16815260200190815260200160002054145b5b15610f5e576000601860008573ffffffffffffffffffffffffffffffffffffffff1673ffffffffffffffffffffffffffffffffffffffff1681526020019081526020016000205490506000811415610e5457600e5490505b818110158015610e6757506000600f5414155b15610e7757600092505050610f64565b60008183610e859190612f14565b9050600080600f5414610eef57600f5482600560008973ffffffffffffffffffffffffffffffffffffffff1673ffffffffffffffffffffffffffffffffffffffff16815260200190815260200160002054610ee09190612eba565b610eea9190612e89565b610f30565b600560008773ffffffffffffffffffffffffffffffffffffffff1673ffffffffffffffffffffffffffffffffffffffff168152602001908152602001600020545b9050670de0b6b3a764000081600c54610f499190612eba565b610f539190612e89565b945050505050610f64565b60009150505b919050565b600b60009054906101000a900473ffffffffffffffffffffffffffffffffffffffff1673ffffffffffffffffffffffffffffffffffffffff163373ffffffffffffffffffffffffffffffffffffffff1614610ff9576040517f08c379a0000000000000000000000000000000000000000000000000000000008152600401610ff090612d05565b60405180910390fd5b6000600a54600954600760009054906101000a900473ffffffffffffffffffffffffffffffffffffffff1673ffffffffffffffffffffffffffffffffffffffff166370a08231306040518263ffffffff1660e01b815260040161105c9190612b8d565b60206040518083038186803b15801561107457600080fd5b505afa158015611088573d6000803e3d6000fd5b505050506040513d601f19601f820116820180604052508101906110ac91906128c6565b6110b69190612f14565b6110c09190612f14565b9050611111600760009054906101000a900473ffffffffffffffffffffffffffffffffffffffff16600b60009054906101000a900473ffffffffffffffffffffffffffffffffffffffff16836120e6565b3073ffffffffffffffffffffffffffffffffffffffff16600b60009054906101000a900473ffffffffffffffffffffffffffffffffffffffff1673ffffffffffffffffffffffffffffffffffffffff16600760009054906101000a900473ffffffffffffffffffffffffffffffffffffffff1673ffffffffffffffffffffffffffffffffffffffff167f8de2e60544c6df64589d507aacf293ef9d47f7a26438c7add2ab99f341437a51846040516111c99190612d25565b60405180910390a450565b600d60009054906101000a900473ffffffffffffffffffffffffffffffffffffffff1673ffffffffffffffffffffffffffffffffffffffff163373ffffffffffffffffffffffffffffffffffffffff1614611264576040517f08c379a000000000000000000000000000000000000000000000000000000000815260040161125b90612ca5565b60405180910390fd5b61126e8282612205565b8173ffffffffffffffffffffffffffffffffffffffff163073ffffffffffffffffffffffffffffffffffffffff167f6a173fc03da95998510e11c8bb7197f3c0141cd0b237ead0cdc47ade6af6a648836040516112cb9190612d25565b60405180910390a35050565b60095481565b600a5481565b600d60009054906101000a900473ffffffffffffffffffffffffffffffffffffffff1681565b60186020528060005260406000206000915090505481565b60085481565b600e5481565b601760009054906101000a900460ff1681565b60125481565b60056020528060005260406000206000915090505481565b601760019054906101000a900460ff1681565b6001805461137e90612fdf565b80601f01602080910402602001604051908101604052809291908181526020018280546113aa90612fdf565b80156113f75780601f106113cc576101008083540402835291602001916113f7565b820191906000526020600020905b8154815290600101906020018083116113da57829003601f168201915b505050505081565b60155481565b60165481565b6000611418338484611f7e565b6001905092915050565b60145481565b600b60009054906101000a900473ffffffffffffffffffffffffffffffffffffffff1673ffffffffffffffffffffffffffffffffffffffff163373ffffffffffffffffffffffffffffffffffffffff16146114b8576040517f08c379a00000000000000000000000000000000000000000000000000000000081526004016114af90612d05565b60405180910390fd5b6000601354116114fd576040517f08c379a00000000000000000000000000000000000000000000000000000000081526004016114f490612cc5565b60405180910390fd5b600060165411611511576013544211611517565b60165442115b611556576040517f08c379a000000000000000000000000000000000000000000000000000000000815260040161154d90612c45565b60405180910390fd5b6000670de0b6b3a7640000600354600c546115719190612eba565b61157b9190612e89565b600760009054906101000a900473ffffffffffffffffffffffffffffffffffffffff1673ffffffffffffffffffffffffffffffffffffffff166370a08231306040518263ffffffff1660e01b81526004016115d69190612b8d565b60206040518083038186803b1580156115ee57600080fd5b505afa158015611602573d6000803e3d6000fd5b505050506040513d601f19601f8201168201806040525081019061162691906128c6565b6116309190612f14565b9050611681600760009054906101000a900473ffffffffffffffffffffffffffffffffffffffff16600b60009054906101000a900473ffffffffffffffffffffffffffffffffffffffff16836120e6565b3073ffffffffffffffffffffffffffffffffffffffff16600b60009054906101000a900473ffffffffffffffffffffffffffffffffffffffff1673ffffffffffffffffffffffffffffffffffffffff16600760009054906101000a900473ffffffffffffffffffffffffffffffffffffffff1673ffffffffffffffffffffffffffffffffffffffff167f8de2e60544c6df64589d507aacf293ef9d47f7a26438c7add2ab99f341437a51846040516117399190612d25565b60405180910390a450565b6000801515601760019054906101000a900460ff1615151461179b576040517f08c379a000000000000000000000000000000000000000000000000000000000815260040161179290612ce5565b60405180910390fd5b60095482600760009054906101000a900473ffffffffffffffffffffffffffffffffffffffff1673ffffffffffffffffffffffffffffffffffffffff166370a08231306040518263ffffffff1660e01b81526004016117fa9190612b8d565b60206040518083038186803b15801561181257600080fd5b505afa158015611826573d6000803e3d6000fd5b505050506040513d601f19601f8201168201806040525081019061184a91906128c6565b6118549190612e33565b10611875576001601760016101000a81548160ff0219169083151502179055505b600082111561194b576118ac600760009054906101000a900473ffffffffffffffffffffffffffffffffffffffff163330856122de565b3073ffffffffffffffffffffffffffffffffffffffff163373ffffffffffffffffffffffffffffffffffffffff16600760009054906101000a900473ffffffffffffffffffffffffffffffffffffffff1673ffffffffffffffffffffffffffffffffffffffff167f2a10581f2de5e726db0b9d66dfa2cb1bf30af8391fb31fcf67cc70c0d3914bc5856040516119429190612d25565b60405180910390a45b60011515601760019054906101000a900460ff1615151415611a4b57426012819055506011544261197c9190612e33565b601381905550600060145411156119ad576013546015819055506014546013546119a69190612e33565b6016819055505b3073ffffffffffffffffffffffffffffffffffffffff16600d60009054906101000a900473ffffffffffffffffffffffffffffffffffffffff1673ffffffffffffffffffffffffffffffffffffffff167f56015a207e6925d0b8f2cee0cb8863b1e88804a686798c1715557e9817d6b394601254601354601554601654604051611a3a9493929190612d40565b60405180910390a360019050611a50565b600090505b919050565b60115481565b600c5481565b60135481565b60105481565b6004602052816000526040600020602052806000526040600020600091509150505481565b3373ffffffffffffffffffffffffffffffffffffffff168273ffffffffffffffffffffffffffffffffffffffff1614611b00576040517f08c379a0000000000000000000000000000000000000000000000000000000008152600401611af790612c85565b60405180910390fd5b611b0a8282611b0f565b505050565b600080600560008573ffffffffffffffffffffffffffffffffffffffff1673ffffffffffffffffffffffffffffffffffffffff168152602001908152602001600020541115611ece5760006010544211611b695742611b6d565b6010545b9050600e54811180611bd95750600e5481148015611b8d57506000600f54145b8015611bd857506000601860008673ffffffffffffffffffffffffffffffffffffffff1673ffffffffffffffffffffffffffffffffffffffff16815260200190815260200160002054145b5b15611ecc576000601860008673ffffffffffffffffffffffffffffffffffffffff1673ffffffffffffffffffffffffffffffffffffffff168152602001908152602001600020541415611c6d57600e54601860008673ffffffffffffffffffffffffffffffffffffffff1673ffffffffffffffffffffffffffffffffffffffff168152602001908152602001600020819055505b6000601860008673ffffffffffffffffffffffffffffffffffffffff1673ffffffffffffffffffffffffffffffffffffffff1681526020019081526020016000205482611cba9190612f14565b9050600080600f5414611d2457600f5482600560008973ffffffffffffffffffffffffffffffffffffffff1673ffffffffffffffffffffffffffffffffffffffff16815260200190815260200160002054611d159190612eba565b611d1f9190612e89565b611d65565b600560008773ffffffffffffffffffffffffffffffffffffffff1673ffffffffffffffffffffffffffffffffffffffff168152602001908152602001600020545b90506000670de0b6b3a764000082600c54611d809190612eba565b611d8a9190612e89565b90506000821115611e8457611d9f8783612400565b611dcc600760009054906101000a900473ffffffffffffffffffffffffffffffffffffffff1687836120e6565b80600a6000828254611dde9190612e33565b925050819055508573ffffffffffffffffffffffffffffffffffffffff168773ffffffffffffffffffffffffffffffffffffffff16600760009054906101000a900473ffffffffffffffffffffffffffffffffffffffff1673ffffffffffffffffffffffffffffffffffffffff167f2f19a93d6edcb98e0144116ba9a9a7a187ea93a0636b581247d85291d427bbc984604051611e7b9190612d25565b60405180910390a45b83601860008973ffffffffffffffffffffffffffffffffffffffff1673ffffffffffffffffffffffffffffffffffffffff168152602001908152602001600020819055505050505b505b92915050565b6000801515600260009054906101000a900460ff16151514611f2b576040517f08c379a0000000000000000000000000000000000000000000000000000000008152600401611f2290612c65565b60405180910390fd5b8260009080519060200190611f419291906124d9565b508160019080519060200190611f589291906124d9565b506001600260006101000a81548160ff0219169083151502179055506001905092915050565b611f888384611b0f565b50600081600560008673ffffffffffffffffffffffffffffffffffffffff1673ffffffffffffffffffffffffffffffffffffffff1681526020019081526020016000205411611fd75781612018565b600560008573ffffffffffffffffffffffffffffffffffffffff1673ffffffffffffffffffffffffffffffffffffffff168152602001908152602001600020545b90506120248384611b0f565b5080600560008573ffffffffffffffffffffffffffffffffffffffff1673ffffffffffffffffffffffffffffffffffffffff16815260200190815260200160002060008282546120749190612e33565b925050819055508273ffffffffffffffffffffffffffffffffffffffff168473ffffffffffffffffffffffffffffffffffffffff167fddf252ad1be2c89b69c2b068fc378daa952ba7f163c4a11628f55a4df523b3ef836040516120d89190612d25565b60405180910390a350505050565b6000808473ffffffffffffffffffffffffffffffffffffffff1663a9059cbb60e01b858560405160240161211b929190612bdf565b604051602081830303815290604052907bffffffffffffffffffffffffffffffffffffffffffffffffffffffff19166020820180517bffffffffffffffffffffffffffffffffffffffffffffffffffffffff83818316178352505050506040516121859190612b32565b6000604051808303816000865af19150503d80600081146121c2576040519150601f19603f3d011682016040523d82523d6000602084013e6121c7565b606091505b50915091508180156121f557506000815114806121f45750808060200190518101906121f39190612755565b5b5b6121fe57600080fd5b5050505050565b80600360008282546122179190612e33565b9250508190555080600560008473ffffffffffffffffffffffffffffffffffffffff1673ffffffffffffffffffffffffffffffffffffffff168152602001908152602001600020600082825461226d9190612e33565b925050819055508173ffffffffffffffffffffffffffffffffffffffff16600073ffffffffffffffffffffffffffffffffffffffff167fddf252ad1be2c89b69c2b068fc378daa952ba7f163c4a11628f55a4df523b3ef836040516122d29190612d25565b60405180910390a35050565b6000808573ffffffffffffffffffffffffffffffffffffffff166323b872dd60e01b86868660405160240161231593929190612ba8565b604051602081830303815290604052907bffffffffffffffffffffffffffffffffffffffffffffffffffffffff19166020820180517bffffffffffffffffffffffffffffffffffffffffffffffffffffffff838183161783525050505060405161237f9190612b32565b6000604051808303816000865af19150503d80600081146123bc576040519150601f19603f3d011682016040523d82523d6000602084013e6123c1565b606091505b50915091508180156123ef57506000815114806123ee5750808060200190518101906123ed9190612755565b5b5b6123f857600080fd5b505050505050565b80600360008282546124129190612f14565b9250508190555080600560008473ffffffffffffffffffffffffffffffffffffffff1673ffffffffffffffffffffffffffffffffffffffff16815260200190815260200160002060008282546124689190612f14565b92505081905550600073ffffffffffffffffffffffffffffffffffffffff168273ffffffffffffffffffffffffffffffffffffffff167fddf252ad1be2c89b69c2b068fc378daa952ba7f163c4a11628f55a4df523b3ef836040516124cd9190612d25565b60405180910390a35050565b8280546124e590612fdf565b90600052602060002090601f016020900481019282612507576000855561254e565b82601f1061252057805160ff191683800117855561254e565b8280016001018555821561254e579182015b8281111561254d578251825591602001919060010190612532565b5b50905061255b919061255f565b5090565b5b80821115612578576000816000905550600101612560565b5090565b600061258f61258a84612dc5565b612da0565b9050828152602081018484840111156125ab576125aa613103565b5b6125b6848285612f9d565b509392505050565b6000813590506125cd81613294565b92915050565b6000815190506125e2816132ab565b92915050565b600082601f8301126125fd576125fc6130fe565b5b813561260d84826020860161257c565b91505092915050565b600081359050612625816132c2565b92915050565b60008151905061263a816132c2565b92915050565b60008151905061264f816132d9565b92915050565b60006020828403121561266b5761266a61310d565b5b6000612679848285016125be565b91505092915050565b600080604083850312156126995761269861310d565b5b60006126a7858286016125be565b92505060206126b8858286016125be565b9150509250929050565b6000806000606084860312156126db576126da61310d565b5b60006126e9868287016125be565b93505060206126fa868287016125be565b925050604061270b86828701612616565b9150509250925092565b6000806040838503121561272c5761272b61310d565b5b600061273a858286016125be565b925050602061274b85828601612616565b9150509250929050565b60006020828403121561276b5761276a61310d565b5b6000612779848285016125d3565b91505092915050565b6000806000806000806000806000806101408b8d0312156127a6576127a561310d565b5b60008b013567ffffffffffffffff8111156127c4576127c3613108565b5b6127d08d828e016125e8565b9a505060208b013567ffffffffffffffff8111156127f1576127f0613108565b5b6127fd8d828e016125e8565b995050604061280e8d828e016125be565b985050606061281f8d828e01612616565b97505060806128308d828e01612616565b96505060a06128418d828e01612616565b95505060c06128528d828e01612616565b94505060e06128638d828e01612616565b9350506101006128758d828e016125be565b9250506101206128878d828e01612616565b9150509295989b9194979a5092959850565b6000602082840312156128af576128ae61310d565b5b60006128bd84828501612616565b91505092915050565b6000602082840312156128dc576128db61310d565b5b60006128ea8482850161262b565b91505092915050565b6000602082840312156129095761290861310d565b5b600061291784828501612640565b91505092915050565b61292981612f48565b82525050565b61293881612f5a565b82525050565b600061294982612df6565b6129538185612e0c565b9350612963818560208601612fac565b80840191505092915050565b600061297a82612e01565b6129848185612e17565b9350612994818560208601612fac565b61299d81613112565b840191505092915050565b60006129b382612e01565b6129bd8185612e28565b93506129cd818560208601612fac565b80840191505092915050565b60006129e6601a83612e17565b91506129f182613123565b602082019050919050565b6000612a09601883612e17565b9150612a148261314c565b602082019050919050565b6000612a2c600783612e28565b9150612a3782613175565b600782019050919050565b6000612a4f600483612e28565b9150612a5a8261319e565b600482019050919050565b6000612a72601a83612e17565b9150612a7d826131c7565b602082019050919050565b6000612a95601983612e17565b9150612aa0826131f0565b602082019050919050565b6000612ab8601d83612e17565b9150612ac382613219565b602082019050919050565b6000612adb601883612e17565b9150612ae682613242565b602082019050919050565b6000612afe601683612e17565b9150612b098261326b565b602082019050919050565b612b1d81612f86565b82525050565b612b2c81612f90565b82525050565b6000612b3e828461293e565b915081905092915050565b6000612b5482612a1f565b9150612b6082846129a8565b915081905092915050565b6000612b7682612a42565b9150612b8282846129a8565b915081905092915050565b6000602082019050612ba26000830184612920565b92915050565b6000606082019050612bbd6000830186612920565b612bca6020830185612920565b612bd76040830184612b14565b949350505050565b6000604082019050612bf46000830185612920565b612c016020830184612b14565b9392505050565b6000602082019050612c1d600083018461292f565b92915050565b60006020820190508181036000830152612c3d818461296f565b905092915050565b60006020820190508181036000830152612c5e816129d9565b9050919050565b60006020820190508181036000830152612c7e816129fc565b9050919050565b60006020820190508181036000830152612c9e81612a65565b9050919050565b60006020820190508181036000830152612cbe81612a88565b9050919050565b60006020820190508181036000830152612cde81612aab565b9050919050565b60006020820190508181036000830152612cfe81612ace565b9050919050565b60006020820190508181036000830152612d1e81612af1565b9050919050565b6000602082019050612d3a6000830184612b14565b92915050565b6000608082019050612d556000830187612b14565b612d626020830186612b14565b612d6f6040830185612b14565b612d7c6060830184612b14565b95945050505050565b6000602082019050612d9a6000830184612b23565b92915050565b6000612daa612dbb565b9050612db68282613011565b919050565b6000604051905090565b600067ffffffffffffffff821115612de057612ddf6130cf565b5b612de982613112565b9050602081019050919050565b600081519050919050565b600081519050919050565b600081905092915050565b600082825260208201905092915050565b600081905092915050565b6000612e3e82612f86565b9150612e4983612f86565b9250827fffffffffffffffffffffffffffffffffffffffffffffffffffffffffffffffff03821115612e7e57612e7d613042565b5b828201905092915050565b6000612e9482612f86565b9150612e9f83612f86565b925082612eaf57612eae613071565b5b828204905092915050565b6000612ec582612f86565b9150612ed083612f86565b9250817fffffffffffffffffffffffffffffffffffffffffffffffffffffffffffffffff0483118215151615612f0957612f08613042565b5b828202905092915050565b6000612f1f82612f86565b9150612f2a83612f86565b925082821015612f3d57612f3c613042565b5b828203905092915050565b6000612f5382612f66565b9050919050565b60008115159050919050565b600073ffffffffffffffffffffffffffffffffffffffff82169050919050565b6000819050919050565b600060ff82169050919050565b82818337600083830152505050565b60005b83811015612fca578082015181840152602081019050612faf565b83811115612fd9576000848401525b50505050565b60006002820490506001821680612ff757607f821691505b6020821081141561300b5761300a6130a0565b5b50919050565b61301a82613112565b810181811067ffffffffffffffff82111715613039576130386130cf565b5b80604052505050565b7f4e487b7100000000000000000000000000000000000000000000000000000000600052601160045260246000fd5b7f4e487b7100000000000000000000000000000000000000000000000000000000600052601260045260246000fd5b7f4e487b7100000000000000000000000000000000000000000000000000000000600052602260045260246000fd5b7f4e487b7100000000000000000000000000000000000000000000000000000000600052604160045260246000fd5b600080fd5b600080fd5b600080fd5b600080fd5b6000601f19601f8301169050919050565b7f72656465656d2077696e646f77207374696c6c20616374697665000000000000600082015250565b7f63616e206f6e6c7920696e697469616c697a65206f6e63650000000000000000600082015250565b7f61654465616c2d00000000000000000000000000000000000000000000000000600082015250565b7f6165442d00000000000000000000000000000000000000000000000000000000600082015250565b7f6f6e6c7920636c61696d616e742063616e20616c6c6f63617465000000000000600082015250565b7f6f6e6c792041656c696e506f6f6c2063616e2061636365737300000000000000600082015250565b7f726564656d7074696f6e20706572696f64206e6f742073746172746564000000600082015250565b7f6465706f73697420616c726561647920636f6d706c6574650000000000000000600082015250565b7f6f6e6c7920686f6c6465722063616e2061636365737300000000000000000000600082015250565b61329d81612f48565b81146132a857600080fd5b50565b6132b481612f5a565b81146132bf57600080fd5b50565b6132cb81612f86565b81146132d657600080fd5b50565b6132e281612f90565b81146132ed57600080fd5b5056fea264697066735822122014502d94461c1398f62a3670ceb3b4614fe4e437f3add51773d62739ae9948bd64736f6c63430008060033",
  "linkReferences": {},
  "deployedLinkReferences": {}
}